{
	"data": {
		"bytecode": {
			"linkReferences": {},
			"object": "6080604052348015600e575f5ffd5b503360065f6101000a81548173ffffffffffffffffffffffffffffffffffffffff021916908373ffffffffffffffffffffffffffffffffffffffff16021790555060016005819055506159d2806100645f395ff3fe608060405234801561000f575f5ffd5b506004361061012a575f3560e01c80635632ba98116100ab57806389e0465b1161006f57806389e0465b146103ce5780639a1b4098146103fe578063b0f513b81461041a578063c4a2e64114610436578063f851a440146104525761012a565b80635632ba98146102eb5780635e3e2f351461030757806368111cce14610337578063689e1c0314610367578063712ca0f81461039e5761012a565b806326415d30116100f257806326415d30146102215780633b0328be1461023f57806343ec56651461026f5780634732c1831461029f5780634bb54384146102bb5761012a565b80630186a4231461012e57806310a7fd7b1461016457806312d491c91461019b578063163f7522146101b95780631a948947146101e9575b5f5ffd5b6101486004803603810190610143919061375e565b610470565b60405161015b9796959493929190613837565b60405180910390f35b61017e600480360381019061017991906138ea565b6106ea565b604051610192989796959493929190613a25565b60405180910390f35b6101a36107f7565b6040516101b09190613aa8565b60405180910390f35b6101d360048036038101906101ce9190613aeb565b61080c565b6040516101e09190613b16565b60405180910390f35b61020360048036038101906101fe919061375e565b610860565b60405161021899989796959493929190613b2f565b60405180910390f35b610229610af2565b6040516102369190613aa8565b60405180910390f35b61025960048036038101906102549190613aeb565b610af8565b6040516102669190613d53565b60405180910390f35b610289600480360381019061028491906138ea565b610f2e565b6040516102969190613e4d565b60405180910390f35b6102b960048036038101906102b49190613f0b565b611149565b005b6102d560048036038101906102d09190613aeb565b61164e565b6040516102e29190613ff2565b60405180910390f35b61030560048036038101906103009190614035565b6116e9565b005b610321600480360381019061031c919061414a565b611ac3565b60405161032e91906142f0565b60405180910390f35b610351600480360381019061034c919061375e565b611d83565b60405161035e91906143be565b60405180910390f35b610381600480360381019061037c919061375e565b612095565b6040516103959897969594939291906143ed565b60405180910390f35b6103b860048036038101906103b3919061375e565b612340565b6040516103c5919061455c565b60405180910390f35b6103e860048036038101906103e391906145a6565b612697565b6040516103f59190613b16565b60405180910390f35b61041860048036038101906104139190613f0b565b612715565b005b610434600480360381019061042f9190614607565b612b82565b005b610450600480360381019061044b919061468f565b612f09565b005b61045a6130e9565b60405161046791906146e9565b60405180910390f35b6003818051602081018201805184825260208301602085012081835280955050505050505f91509050805f0180546104a79061472f565b80601f01602080910402602001604051908101604052809291908181526020018280546104d39061472f565b801561051e5780601f106104f55761010080835404028352916020019161051e565b820191905f5260205f20905b81548152906001019060200180831161050157829003601f168201915b5050505050908060010180546105339061472f565b80601f016020809104026020016040519081016040528092919081815260200182805461055f9061472f565b80156105aa5780601f10610581576101008083540402835291602001916105aa565b820191905f5260205f20905b81548152906001019060200180831161058d57829003601f168201915b5050505050908060020180546105bf9061472f565b80601f01602080910402602001604051908101604052809291908181526020018280546105eb9061472f565b80156106365780601f1061060d57610100808354040283529160200191610636565b820191905f5260205f20905b81548152906001019060200180831161061957829003601f168201915b50505050509080600301805461064b9061472f565b80601f01602080910402602001604051908101604052809291908181526020018280546106779061472f565b80156106c25780601f10610699576101008083540402835291602001916106c2565b820191905f5260205f20905b8154815290600101906020018083116106a557829003601f168201915b505050505090806004015490806005015490806006015f9054906101000a900460ff16905087565b5f602052805f5260405f205f91509050805f015490806001015f9054906101000a900473ffffffffffffffffffffffffffffffffffffffff1690806002015490806003015f9054906101000a900460ff16908060030160019054906101000a900460ff16908060040154908060050180546107649061472f565b80601f01602080910402602001604051908101604052809291908181526020018280546107909061472f565b80156107db5780601f106107b2576101008083540402835291602001916107db565b820191905f5260205f20905b8154815290600101906020018083116107be57829003601f168201915b505050505090806006015f9054906101000a900460ff16905088565b5f6001600554610807919061478c565b905090565b5f5f60015f8473ffffffffffffffffffffffffffffffffffffffff1673ffffffffffffffffffffffffffffffffffffffff1681526020019081526020015f2080546108569061472f565b9050119050919050565b6004818051602081018201805184825260208301602085012081835280955050505050505f91509050805f0180546108979061472f565b80601f01602080910402602001604051908101604052809291908181526020018280546108c39061472f565b801561090e5780601f106108e55761010080835404028352916020019161090e565b820191905f5260205f20905b8154815290600101906020018083116108f157829003601f168201915b5050505050908060010180546109239061472f565b80601f016020809104026020016040519081016040528092919081815260200182805461094f9061472f565b801561099a5780601f106109715761010080835404028352916020019161099a565b820191905f5260205f20905b81548152906001019060200180831161097d57829003601f168201915b5050505050908060020180546109af9061472f565b80601f01602080910402602001604051908101604052809291908181526020018280546109db9061472f565b8015610a265780601f106109fd57610100808354040283529160200191610a26565b820191905f5260205f20905b815481529060010190602001808311610a0957829003601f168201915b505050505090806003018054610a3b9061472f565b80601f0160208091040260200160405190810160405280929190818152602001828054610a679061472f565b8015610ab25780601f10610a8957610100808354040283529160200191610ab2565b820191905f5260205f20905b815481529060010190602001808311610a9557829003601f168201915b505050505090806004015490806005015490806006015f9054906101000a900460ff1690806007015490806008015f9054906101000a900460ff16905089565b60055481565b610b00613495565b5f60015f8473ffffffffffffffffffffffffffffffffffffffff1673ffffffffffffffffffffffffffffffffffffffff1681526020019081526020015f208054610b499061472f565b80601f0160208091040260200160405190810160405280929190818152602001828054610b759061472f565b8015610bc05780601f10610b9757610100808354040283529160200191610bc0565b820191905f5260205f20905b815481529060010190602001808311610ba357829003601f168201915b505050505090505f815111610c0a576040517f08c379a0000000000000000000000000000000000000000000000000000000008152600401610c0190614809565b60405180910390fd5b600281604051610c1a9190614861565b9081526020016040518091039020604051806101000160405290815f82018054610c439061472f565b80601f0160208091040260200160405190810160405280929190818152602001828054610c6f9061472f565b8015610cba5780601f10610c9157610100808354040283529160200191610cba565b820191905f5260205f20905b815481529060010190602001808311610c9d57829003601f168201915b50505050508152602001600182015f9054906101000a900473ffffffffffffffffffffffffffffffffffffffff1673ffffffffffffffffffffffffffffffffffffffff1673ffffffffffffffffffffffffffffffffffffffff168152602001600282018054610d289061472f565b80601f0160208091040260200160405190810160405280929190818152602001828054610d549061472f565b8015610d9f5780601f10610d7657610100808354040283529160200191610d9f565b820191905f5260205f20905b815481529060010190602001808311610d8257829003601f168201915b50505050508152602001600382015f9054906101000a900460ff166004811115610dcc57610dcb61396c565b5b6004811115610dde57610ddd61396c565b5b8152602001600482018054610df29061472f565b80601f0160208091040260200160405190810160405280929190818152602001828054610e1e9061472f565b8015610e695780601f10610e4057610100808354040283529160200191610e69565b820191905f5260205f20905b815481529060010190602001808311610e4c57829003601f168201915b50505050508152602001600582018054610e829061472f565b80601f0160208091040260200160405190810160405280929190818152602001828054610eae9061472f565b8015610ef95780601f10610ed057610100808354040283529160200191610ef9565b820191905f5260205f20905b815481529060010190602001808311610edc57829003601f168201915b5050505050815260200160068201548152602001600782015f9054906101000a900460ff161515151581525050915050919050565b610f36613500565b5f5f8381526020019081526020015f206006015f9054906101000a900460ff16610f95576040517f08c379a0000000000000000000000000000000000000000000000000000000008152600401610f8c906148c1565b60405180910390fd5b5f5f8381526020019081526020015f20604051806101000160405290815f8201548152602001600182015f9054906101000a900473ffffffffffffffffffffffffffffffffffffffff1673ffffffffffffffffffffffffffffffffffffffff1673ffffffffffffffffffffffffffffffffffffffff16815260200160028201548152602001600382015f9054906101000a900460ff16600481111561103d5761103c61396c565b5b600481111561104f5761104e61396c565b5b81526020016003820160019054906101000a900460ff1660028111156110785761107761396c565b5b600281111561108a5761108961396c565b5b8152602001600482015481526020016005820180546110a89061472f565b80601f01602080910402602001604051908101604052809291908181526020018280546110d49061472f565b801561111f5780601f106110f65761010080835404028352916020019161111f565b820191905f5260205f20905b81548152906001019060200180831161110257829003601f168201915b50505050508152602001600682015f9054906101000a900460ff1615151515815250509050919050565b5f60015f3373ffffffffffffffffffffffffffffffffffffffff1673ffffffffffffffffffffffffffffffffffffffff1681526020019081526020015f2080546111929061472f565b9050116111d4576040517f08c379a00000000000000000000000000000000000000000000000000000000081526004016111cb90614929565b60405180910390fd5b6004856040516111e49190614861565b90815260200160405180910390206008015f9054906101000a900460ff1615611242576040517f08c379a000000000000000000000000000000000000000000000000000000000815260040161123990614991565b60405180910390fd5b6002846040516112529190614861565b90815260200160405180910390206007015f9054906101000a900460ff166112af576040517f08c379a00000000000000000000000000000000000000000000000000000000081526004016112a6906149f9565b60405180910390fd5b6003836040516112bf9190614861565b90815260200160405180910390206006015f9054906101000a900460ff1661131c576040517f08c379a000000000000000000000000000000000000000000000000000000000815260040161131390614a61565b60405180910390fd5b5f60015f3373ffffffffffffffffffffffffffffffffffffffff1673ffffffffffffffffffffffffffffffffffffffff1681526020019081526020015f2080546113659061472f565b80601f01602080910402602001604051908101604052809291908181526020018280546113919061472f565b80156113dc5780601f106113b3576101008083540402835291602001916113dc565b820191905f5260205f20905b8154815290600101906020018083116113bf57829003601f168201915b505050505090505f6003856040516113f49190614861565b908152602001604051809103902060040154846114119190614a7f565b90505f87838888888660405160200161142f96959493929190614ae0565b60405160208183030381529060405280519060200120905061145281853361310e565b611491576040517f08c379a000000000000000000000000000000000000000000000000000000000815260040161148890614b89565b60405180910390fd5b6040518061012001604052808981526020018481526020018881526020018781526020018681526020018381526020015f60028111156114d4576114d361396c565b5b8152602001428152602001600115158152506004896040516114f69190614861565b90815260200160405180910390205f820151815f0190816115179190614d47565b50602082015181600101908161152d9190614d47565b5060408201518160020190816115439190614d47565b5060608201518160030190816115599190614d47565b506080820151816004015560a0820151816005015560c0820151816006015f6101000a81548160ff021916908360028111156115985761159761396c565b5b021790555060e08201518160070155610100820151816008015f6101000a81548160ff0219169083151502179055509050506115f58160028a6040516020016115e19190614e60565b60405160208183030381529060405261317b565b876040516116039190614861565b60405180910390207f8849a69cae32e2cee951cbe777bb31142fb780f1177465095b1418334a28c826848960405161163c929190614e81565b60405180910390a25050505050505050565b6001602052805f5260405f205f91509050805461166a9061472f565b80601f01602080910402602001604051908101604052809291908181526020018280546116969061472f565b80156116e15780601f106116b8576101008083540402835291602001916116e1565b820191905f5260205f20905b8154815290600101906020018083116116c457829003601f168201915b505050505081565b5f60015f3373ffffffffffffffffffffffffffffffffffffffff1673ffffffffffffffffffffffffffffffffffffffff1681526020019081526020015f2080546117329061472f565b905014611774576040517f08c379a000000000000000000000000000000000000000000000000000000000815260040161176b90614f00565b60405180910390fd5b6002866040516117849190614861565b90815260200160405180910390206007015f9054906101000a900460ff16156117e2576040517f08c379a00000000000000000000000000000000000000000000000000000000081526004016117d990614f68565b60405180910390fd5b5f86868660048111156117f8576117f761396c565b5b86863360405160200161181096959493929190614fcb565b60405160208183030381529060405280519060200120905061183381833361310e565b611872576040517f08c379a000000000000000000000000000000000000000000000000000000000815260040161186990614b89565b60405180910390fd5b6040518061010001604052808881526020013373ffffffffffffffffffffffffffffffffffffffff1681526020018781526020018660048111156118b9576118b861396c565b5b8152602001858152602001848152602001428152602001600115158152506002886040516118e79190614861565b90815260200160405180910390205f820151815f0190816119089190614d47565b506020820151816001015f6101000a81548173ffffffffffffffffffffffffffffffffffffffff021916908373ffffffffffffffffffffffffffffffffffffffff16021790555060408201518160020190816119649190614d47565b506060820151816003015f6101000a81548160ff0219169083600481111561198f5761198e61396c565b5b021790555060808201518160040190816119a99190614d47565b5060a08201518160050190816119bf9190614d47565b5060c0820151816006015560e0820151816007015f6101000a81548160ff0219169083151502179055509050508660015f3373ffffffffffffffffffffffffffffffffffffffff1673ffffffffffffffffffffffffffffffffffffffff1681526020019081526020015f209081611a369190614d47565b50611a61815f89604051602001611a4d9190615074565b60405160208183030381529060405261317b565b3373ffffffffffffffffffffffffffffffffffffffff1687604051611a869190614861565b60405180910390207f7f605d0ff47d2a070e456b69ce2a36041788910b64443c7f4c6d307993cade2c60405160405180910390a350505050505050565b6060818311158015611ad6575060055482105b611b15576040517f08c379a0000000000000000000000000000000000000000000000000000000008152600401611b0c906150df565b60405180910390fd5b5f60018484611b24919061478c565b611b2e91906150fd565b90505f8167ffffffffffffffff811115611b4b57611b4a61363a565b5b604051908082528060200260200182016040528015611b8457816020015b611b71613500565b815260200190600190039081611b695790505b5090505f5f90505b82811015611d77575f5f8288611ba291906150fd565b81526020019081526020015f20604051806101000160405290815f8201548152602001600182015f9054906101000a900473ffffffffffffffffffffffffffffffffffffffff1673ffffffffffffffffffffffffffffffffffffffff1673ffffffffffffffffffffffffffffffffffffffff16815260200160028201548152602001600382015f9054906101000a900460ff166004811115611c4757611c4661396c565b5b6004811115611c5957611c5861396c565b5b81526020016003820160019054906101000a900460ff166002811115611c8257611c8161396c565b5b6002811115611c9457611c9361396c565b5b815260200160048201548152602001600582018054611cb29061472f565b80601f0160208091040260200160405190810160405280929190818152602001828054611cde9061472f565b8015611d295780601f10611d0057610100808354040283529160200191611d29565b820191905f5260205f20905b815481529060010190602001808311611d0c57829003601f168201915b50505050508152602001600682015f9054906101000a900460ff161515151581525050828281518110611d5f57611d5e615130565b5b60200260200101819052508080600101915050611b8c565b50809250505092915050565b611d8b61357a565b600382604051611d9b9190614861565b90815260200160405180910390206006015f9054906101000a900460ff16611df8576040517f08c379a0000000000000000000000000000000000000000000000000000000008152600401611def90614a61565b60405180910390fd5b600382604051611e089190614861565b90815260200160405180910390206040518060e00160405290815f82018054611e309061472f565b80601f0160208091040260200160405190810160405280929190818152602001828054611e5c9061472f565b8015611ea75780601f10611e7e57610100808354040283529160200191611ea7565b820191905f5260205f20905b815481529060010190602001808311611e8a57829003601f168201915b50505050508152602001600182018054611ec09061472f565b80601f0160208091040260200160405190810160405280929190818152602001828054611eec9061472f565b8015611f375780601f10611f0e57610100808354040283529160200191611f37565b820191905f5260205f20905b815481529060010190602001808311611f1a57829003601f168201915b50505050508152602001600282018054611f509061472f565b80601f0160208091040260200160405190810160405280929190818152602001828054611f7c9061472f565b8015611fc75780601f10611f9e57610100808354040283529160200191611fc7565b820191905f5260205f20905b815481529060010190602001808311611faa57829003601f168201915b50505050508152602001600382018054611fe09061472f565b80601f016020809104026020016040519081016040528092919081815260200182805461200c9061472f565b80156120575780601f1061202e57610100808354040283529160200191612057565b820191905f5260205f20905b81548152906001019060200180831161203a57829003601f168201915b505050505081526020016004820154815260200160058201548152602001600682015f9054906101000a900460ff1615151515815250509050919050565b6002818051602081018201805184825260208301602085012081835280955050505050505f91509050805f0180546120cc9061472f565b80601f01602080910402602001604051908101604052809291908181526020018280546120f89061472f565b80156121435780601f1061211a57610100808354040283529160200191612143565b820191905f5260205f20905b81548152906001019060200180831161212657829003601f168201915b505050505090806001015f9054906101000a900473ffffffffffffffffffffffffffffffffffffffff169080600201805461217d9061472f565b80601f01602080910402602001604051908101604052809291908181526020018280546121a99061472f565b80156121f45780601f106121cb576101008083540402835291602001916121f4565b820191905f5260205f20905b8154815290600101906020018083116121d757829003601f168201915b505050505090806003015f9054906101000a900460ff169080600401805461221b9061472f565b80601f01602080910402602001604051908101604052809291908181526020018280546122479061472f565b80156122925780601f1061226957610100808354040283529160200191612292565b820191905f5260205f20905b81548152906001019060200180831161227557829003601f168201915b5050505050908060050180546122a79061472f565b80601f01602080910402602001604051908101604052809291908181526020018280546122d39061472f565b801561231e5780601f106122f55761010080835404028352916020019161231e565b820191905f5260205f20905b81548152906001019060200180831161230157829003601f168201915b505050505090806006015490806007015f9054906101000a900460ff16905088565b6123486135b6565b6004826040516123589190614861565b90815260200160405180910390206008015f9054906101000a900460ff166123b5576040517f08c379a00000000000000000000000000000000000000000000000000000000081526004016123ac906151a7565b60405180910390fd5b6004826040516123c59190614861565b9081526020016040518091039020604051806101200160405290815f820180546123ee9061472f565b80601f016020809104026020016040519081016040528092919081815260200182805461241a9061472f565b80156124655780601f1061243c57610100808354040283529160200191612465565b820191905f5260205f20905b81548152906001019060200180831161244857829003601f168201915b5050505050815260200160018201805461247e9061472f565b80601f01602080910402602001604051908101604052809291908181526020018280546124aa9061472f565b80156124f55780601f106124cc576101008083540402835291602001916124f5565b820191905f5260205f20905b8154815290600101906020018083116124d857829003601f168201915b5050505050815260200160028201805461250e9061472f565b80601f016020809104026020016040519081016040528092919081815260200182805461253a9061472f565b80156125855780601f1061255c57610100808354040283529160200191612585565b820191905f5260205f20905b81548152906001019060200180831161256857829003601f168201915b5050505050815260200160038201805461259e9061472f565b80601f01602080910402602001604051908101604052809291908181526020018280546125ca9061472f565b80156126155780601f106125ec57610100808354040283529160200191612615565b820191905f5260205f20905b8154815290600101906020018083116125f857829003601f168201915b505050505081526020016004820154815260200160058201548152602001600682015f9054906101000a900460ff1660028111156126565761265561396c565b5b60028111156126685761266761396c565b5b815260200160078201548152602001600882015f9054906101000a900460ff1615151515815250509050919050565b5f5f5f8481526020019081526020015f206006015f9054906101000a900460ff166126f7576040517f08c379a00000000000000000000000000000000000000000000000000000000081526004016126ee906148c1565b60405180910390fd5b815f5f8581526020019081526020015f206002015414905092915050565b5f60015f3373ffffffffffffffffffffffffffffffffffffffff1673ffffffffffffffffffffffffffffffffffffffff1681526020019081526020015f20805461275e9061472f565b9050116127a0576040517f08c379a000000000000000000000000000000000000000000000000000000000815260040161279790614929565b60405180910390fd5b6003856040516127b09190614861565b90815260200160405180910390206006015f9054906101000a900460ff161561280e576040517f08c379a00000000000000000000000000000000000000000000000000000000081526004016128059061520f565b60405180910390fd5b600160048111156128225761282161396c565b5b600260015f3373ffffffffffffffffffffffffffffffffffffffff1673ffffffffffffffffffffffffffffffffffffffff1681526020019081526020015f2060405161286e91906152ad565b90815260200160405180910390206003015f9054906101000a900460ff16600481111561289e5761289d61396c565b5b146128de576040517f08c379a00000000000000000000000000000000000000000000000000000000081526004016128d590615333565b60405180910390fd5b5f60015f3373ffffffffffffffffffffffffffffffffffffffff1673ffffffffffffffffffffffffffffffffffffffff1681526020019081526020015f2080546129279061472f565b80601f01602080910402602001604051908101604052809291908181526020018280546129539061472f565b801561299e5780601f106129755761010080835404028352916020019161299e565b820191905f5260205f20905b81548152906001019060200180831161298157829003601f168201915b505050505090505f86868684876040516020016129bf959493929190615351565b6040516020818303038152906040528051906020012090506129e281843361310e565b612a21576040517f08c379a0000000000000000000000000000000000000000000000000000000008152600401612a1890614b89565b60405180910390fd5b6040518060e0016040528088815260200187815260200186815260200183815260200185815260200142815260200160011515815250600388604051612a679190614861565b90815260200160405180910390205f820151815f019081612a889190614d47565b506020820151816001019081612a9e9190614d47565b506040820151816002019081612ab49190614d47565b506060820151816003019081612aca9190614d47565b506080820151816004015560a0820151816005015560c0820151816006015f6101000a81548160ff021916908315150217905550905050612b2c81600189604051602001612b1891906153e9565b60405160208183030381529060405261317b565b86604051612b3a9190614861565b60405180910390207f05c683c8ef124ed98b107dcf80c644abc011626816b5b3a73e3f6d518c0cd77883604051612b719190613ff2565b60405180910390a250505050505050565b5f60015f3373ffffffffffffffffffffffffffffffffffffffff1673ffffffffffffffffffffffffffffffffffffffff1681526020019081526020015f208054612bcb9061472f565b905011612c0d576040517f08c379a0000000000000000000000000000000000000000000000000000000008152600401612c0490614929565b60405180910390fd5b600483604051612c1d9190614861565b90815260200160405180910390206008015f9054906101000a900460ff16612c7a576040517f08c379a0000000000000000000000000000000000000000000000000000000008152600401612c71906151a7565b60405180910390fd5b5f60015f3373ffffffffffffffffffffffffffffffffffffffff1673ffffffffffffffffffffffffffffffffffffffff1681526020019081526020015f208054612cc39061472f565b80601f0160208091040260200160405190810160405280929190818152602001828054612cef9061472f565b8015612d3a5780601f10612d1157610100808354040283529160200191612d3a565b820191905f5260205f20905b815481529060010190602001808311612d1d57829003601f168201915b505050505090508080519060200120600485604051612d599190614861565b9081526020016040518091039020600201604051612d7791906154a6565b60405180910390201480612dc657508080519060200120600485604051612d9e9190614861565b9081526020016040518091039020600101604051612dbc91906154a6565b6040518091039020145b612e05576040517f08c379a0000000000000000000000000000000000000000000000000000000008152600401612dfc9061552c565b60405180910390fd5b5f84846002811115612e1a57612e1961396c565b5b42604051602001612e2d9392919061554a565b604051602081830303815290604052805190602001209050612e5081843361310e565b612e8f576040517f08c379a0000000000000000000000000000000000000000000000000000000008152600401612e8690614b89565b60405180910390fd5b83600486604051612ea09190614861565b90815260200160405180910390206006015f6101000a81548160ff02191690836002811115612ed257612ed161396c565b5b0217905550612f0281600387604051602001612eee91906155cc565b60405160208183030381529060405261317b565b5050505050565b5f5f8381526020019081526020015f206006015f9054906101000a900460ff16612f68576040517f08c379a0000000000000000000000000000000000000000000000000000000008152600401612f5f906148c1565b60405180910390fd5b5f6002811115612f7b57612f7a61396c565b5b5f5f8481526020019081526020015f2060030160019054906101000a900460ff166002811115612fae57612fad61396c565b5b14612fee576040517f08c379a0000000000000000000000000000000000000000000000000000000008152600401612fe590615637565b60405180910390fd5b5f824260405160200161300292919061569f565b60405160208183030381529060405280519060200120905061302581833361310e565b613064576040517f08c379a000000000000000000000000000000000000000000000000000000000815260040161305b9061571f565b60405180910390fd5b60015f5f8581526020019081526020015f2060030160016101000a81548160ff0219169083600281111561309b5761309a61396c565b5b02179055503373ffffffffffffffffffffffffffffffffffffffff16837f15c2f311c9e0f53b50388279894aeff029a3457884a6601e924fca879e12adcc60405160405180910390a3505050565b60065f9054906101000a900473ffffffffffffffffffffffffffffffffffffffff1681565b5f5f8460405160200161312191906157a7565b6040516020818303038152906040528051906020012090508273ffffffffffffffffffffffffffffffffffffffff1661315a828661336f565b73ffffffffffffffffffffffffffffffffffffffff16149150509392505050565b60405180610100016040528060055481526020013373ffffffffffffffffffffffffffffffffffffffff1681526020018481526020018360048111156131c4576131c361396c565b5b8152602001600160028111156131dd576131dc61396c565b5b8152602001428152602001828152602001600115158152505f5f60055481526020019081526020015f205f820151815f01556020820151816001015f6101000a81548173ffffffffffffffffffffffffffffffffffffffff021916908373ffffffffffffffffffffffffffffffffffffffff160217905550604082015181600201556060820151816003015f6101000a81548160ff021916908360048111156132895761328861396c565b5b021790555060808201518160030160016101000a81548160ff021916908360028111156132b9576132b861396c565b5b021790555060a0820151816004015560c08201518160050190816132dd9190614d47565b5060e0820151816006015f6101000a81548160ff0219169083151502179055509050503373ffffffffffffffffffffffffffffffffffffffff166005547f473d33250ca56498a2fc52bd1c778ac788fcc075cb56498b29bb945134541194858560405161334b9291906157cc565b60405180910390a360055f815480929190613365906157f3565b9190505550505050565b5f60418251146133b4576040517f08c379a00000000000000000000000000000000000000000000000000000000081526004016133ab90615884565b60405180910390fd5b5f5f5f602085015192506040850151915060608501515f1a9050601b8160ff1610156133ea57601b816133e791906158ae565b90505b601b8160ff1614806133ff5750601c8160ff16145b61343e576040517f08c379a00000000000000000000000000000000000000000000000000000000081526004016134359061592c565b60405180910390fd5b6001868285856040515f81526020016040526040516134609493929190615959565b6020604051602081039080840390855afa158015613480573d5f5f3e3d5ffd5b50505060206040510351935050505092915050565b604051806101000160405280606081526020015f73ffffffffffffffffffffffffffffffffffffffff168152602001606081526020015f60048111156134de576134dd61396c565b5b815260200160608152602001606081526020015f81526020015f151581525090565b6040518061010001604052805f81526020015f73ffffffffffffffffffffffffffffffffffffffff1681526020015f81526020015f60048111156135475761354661396c565b5b81526020015f600281111561355f5761355e61396c565b5b81526020015f8152602001606081526020015f151581525090565b6040518060e00160405280606081526020016060815260200160608152602001606081526020015f81526020015f81526020015f151581525090565b604051806101200160405280606081526020016060815260200160608152602001606081526020015f81526020015f81526020015f60028111156135fd576135fc61396c565b5b81526020015f81526020015f151581525090565b5f604051905090565b5f5ffd5b5f5ffd5b5f5ffd5b5f5ffd5b5f601f19601f8301169050919050565b7f4e487b71000000000000000000000000000000000000000000000000000000005f52604160045260245ffd5b6136708261362a565b810181811067ffffffffffffffff8211171561368f5761368e61363a565b5b80604052505050565b5f6136a1613611565b90506136ad8282613667565b919050565b5f67ffffffffffffffff8211156136cc576136cb61363a565b5b6136d58261362a565b9050602081019050919050565b828183375f83830152505050565b5f6137026136fd846136b2565b613698565b90508281526020810184848401111561371e5761371d613626565b5b6137298482856136e2565b509392505050565b5f82601f83011261374557613744613622565b5b81356137558482602086016136f0565b91505092915050565b5f602082840312156137735761377261361a565b5b5f82013567ffffffffffffffff8111156137905761378f61361e565b5b61379c84828501613731565b91505092915050565b5f81519050919050565b5f82825260208201905092915050565b8281835e5f83830152505050565b5f6137d7826137a5565b6137e181856137af565b93506137f18185602086016137bf565b6137fa8161362a565b840191505092915050565b5f819050919050565b61381781613805565b82525050565b5f8115159050919050565b6138318161381d565b82525050565b5f60e0820190508181035f83015261384f818a6137cd565b9050818103602083015261386381896137cd565b9050818103604083015261387781886137cd565b9050818103606083015261388b81876137cd565b905061389a608083018661380e565b6138a760a083018561380e565b6138b460c0830184613828565b98975050505050505050565b6138c981613805565b81146138d3575f5ffd5b50565b5f813590506138e4816138c0565b92915050565b5f602082840312156138ff576138fe61361a565b5b5f61390c848285016138d6565b91505092915050565b5f73ffffffffffffffffffffffffffffffffffffffff82169050919050565b5f61393e82613915565b9050919050565b61394e81613934565b82525050565b5f819050919050565b61396681613954565b82525050565b7f4e487b71000000000000000000000000000000000000000000000000000000005f52602160045260245ffd5b600581106139aa576139a961396c565b5b50565b5f8190506139ba82613999565b919050565b5f6139c9826139ad565b9050919050565b6139d9816139bf565b82525050565b600381106139f0576139ef61396c565b5b50565b5f819050613a00826139df565b919050565b5f613a0f826139f3565b9050919050565b613a1f81613a05565b82525050565b5f61010082019050613a395f83018b61380e565b613a46602083018a613945565b613a53604083018961395d565b613a6060608301886139d0565b613a6d6080830187613a16565b613a7a60a083018661380e565b81810360c0830152613a8c81856137cd565b9050613a9b60e0830184613828565b9998505050505050505050565b5f602082019050613abb5f83018461380e565b92915050565b613aca81613934565b8114613ad4575f5ffd5b50565b5f81359050613ae581613ac1565b92915050565b5f60208284031215613b0057613aff61361a565b5b5f613b0d84828501613ad7565b91505092915050565b5f602082019050613b295f830184613828565b92915050565b5f610120820190508181035f830152613b48818c6137cd565b90508181036020830152613b5c818b6137cd565b90508181036040830152613b70818a6137cd565b90508181036060830152613b8481896137cd565b9050613b93608083018861380e565b613ba060a083018761380e565b613bad60c0830186613a16565b613bba60e083018561380e565b613bc8610100830184613828565b9a9950505050505050505050565b5f82825260208201905092915050565b5f613bf0826137a5565b613bfa8185613bd6565b9350613c0a8185602086016137bf565b613c138161362a565b840191505092915050565b613c2781613934565b82525050565b60058110613c3e57613c3d61396c565b5b50565b5f819050613c4e82613c2d565b919050565b5f613c5d82613c41565b9050919050565b613c6d81613c53565b82525050565b613c7c81613805565b82525050565b613c8b8161381d565b82525050565b5f61010083015f8301518482035f860152613cac8282613be6565b9150506020830151613cc16020860182613c1e565b5060408301518482036040860152613cd98282613be6565b9150506060830151613cee6060860182613c64565b5060808301518482036080860152613d068282613be6565b91505060a083015184820360a0860152613d208282613be6565b91505060c0830151613d3560c0860182613c73565b5060e0830151613d4860e0860182613c82565b508091505092915050565b5f6020820190508181035f830152613d6b8184613c91565b905092915050565b613d7c81613954565b82525050565b613d8b816139bf565b82525050565b613d9a81613a05565b82525050565b5f61010083015f830151613db65f860182613c73565b506020830151613dc96020860182613c1e565b506040830151613ddc6040860182613d73565b506060830151613def6060860182613d82565b506080830151613e026080860182613d91565b5060a0830151613e1560a0860182613c73565b5060c083015184820360c0860152613e2d8282613be6565b91505060e0830151613e4260e0860182613c82565b508091505092915050565b5f6020820190508181035f830152613e658184613da0565b905092915050565b5f67ffffffffffffffff821115613e8757613e8661363a565b5b613e908261362a565b9050602081019050919050565b5f613eaf613eaa84613e6d565b613698565b905082815260208101848484011115613ecb57613eca613626565b5b613ed68482856136e2565b509392505050565b5f82601f830112613ef257613ef1613622565b5b8135613f02848260208601613e9d565b91505092915050565b5f5f5f5f5f60a08688031215613f2457613f2361361a565b5b5f86013567ffffffffffffffff811115613f4157613f4061361e565b5b613f4d88828901613731565b955050602086013567ffffffffffffffff811115613f6e57613f6d61361e565b5b613f7a88828901613731565b945050604086013567ffffffffffffffff811115613f9b57613f9a61361e565b5b613fa788828901613731565b9350506060613fb8888289016138d6565b925050608086013567ffffffffffffffff811115613fd957613fd861361e565b5b613fe588828901613ede565b9150509295509295909350565b5f6020820190508181035f83015261400a81846137cd565b905092915050565b6005811061401e575f5ffd5b50565b5f8135905061402f81614012565b92915050565b5f5f5f5f5f5f60c0878903121561404f5761404e61361a565b5b5f87013567ffffffffffffffff81111561406c5761406b61361e565b5b61407889828a01613731565b965050602087013567ffffffffffffffff8111156140995761409861361e565b5b6140a589828a01613731565b95505060406140b689828a01614021565b945050606087013567ffffffffffffffff8111156140d7576140d661361e565b5b6140e389828a01613731565b935050608087013567ffffffffffffffff8111156141045761410361361e565b5b61411089828a01613731565b92505060a087013567ffffffffffffffff8111156141315761413061361e565b5b61413d89828a01613ede565b9150509295509295509295565b5f5f604083850312156141605761415f61361a565b5b5f61416d858286016138d6565b925050602061417e858286016138d6565b9150509250929050565b5f81519050919050565b5f82825260208201905092915050565b5f819050602082019050919050565b5f61010083015f8301516141c75f860182613c73565b5060208301516141da6020860182613c1e565b5060408301516141ed6040860182613d73565b5060608301516142006060860182613d82565b5060808301516142136080860182613d91565b5060a083015161422660a0860182613c73565b5060c083015184820360c086015261423e8282613be6565b91505060e083015161425360e0860182613c82565b508091505092915050565b5f61426983836141b1565b905092915050565b5f602082019050919050565b5f61428782614188565b6142918185614192565b9350836020820285016142a3856141a2565b805f5b858110156142de57848403895281516142bf858261425e565b94506142ca83614271565b925060208a019950506001810190506142a6565b50829750879550505050505092915050565b5f6020820190508181035f830152614308818461427d565b905092915050565b5f60e083015f8301518482035f86015261432a8282613be6565b915050602083015184820360208601526143448282613be6565b9150506040830151848203604086015261435e8282613be6565b915050606083015184820360608601526143788282613be6565b915050608083015161438d6080860182613c73565b5060a08301516143a060a0860182613c73565b5060c08301516143b360c0860182613c82565b508091505092915050565b5f6020820190508181035f8301526143d68184614310565b905092915050565b6143e781613c53565b82525050565b5f610100820190508181035f830152614406818b6137cd565b9050614415602083018a613945565b818103604083015261442781896137cd565b905061443660608301886143de565b818103608083015261444881876137cd565b905081810360a083015261445c81866137cd565b905061446b60c083018561380e565b61447860e0830184613828565b9998505050505050505050565b5f61012083015f8301518482035f8601526144a08282613be6565b915050602083015184820360208601526144ba8282613be6565b915050604083015184820360408601526144d48282613be6565b915050606083015184820360608601526144ee8282613be6565b91505060808301516145036080860182613c73565b5060a083015161451660a0860182613c73565b5060c083015161452960c0860182613d91565b5060e083015161453c60e0860182613c73565b50610100830151614551610100860182613c82565b508091505092915050565b5f6020820190508181035f8301526145748184614485565b905092915050565b61458581613954565b811461458f575f5ffd5b50565b5f813590506145a08161457c565b92915050565b5f5f604083850312156145bc576145bb61361a565b5b5f6145c9858286016138d6565b92505060206145da85828601614592565b9150509250929050565b600381106145f0575f5ffd5b50565b5f81359050614601816145e4565b92915050565b5f5f5f6060848603121561461e5761461d61361a565b5b5f84013567ffffffffffffffff81111561463b5761463a61361e565b5b61464786828701613731565b9350506020614658868287016145f3565b925050604084013567ffffffffffffffff8111156146795761467861361e565b5b61468586828701613ede565b9150509250925092565b5f5f604083850312156146a5576146a461361a565b5b5f6146b2858286016138d6565b925050602083013567ffffffffffffffff8111156146d3576146d261361e565b5b6146df85828601613ede565b9150509250929050565b5f6020820190506146fc5f830184613945565b92915050565b7f4e487b71000000000000000000000000000000000000000000000000000000005f52602260045260245ffd5b5f600282049050600182168061474657607f821691505b60208210810361475957614758614702565b5b50919050565b7f4e487b71000000000000000000000000000000000000000000000000000000005f52601160045260245ffd5b5f61479682613805565b91506147a183613805565b92508282039050818111156147b9576147b861475f565b5b92915050565b7f55736572206e6f7420666f756e640000000000000000000000000000000000005f82015250565b5f6147f3600e836137af565b91506147fe826147bf565b602082019050919050565b5f6020820190508181035f830152614820816147e7565b9050919050565b5f81905092915050565b5f61483b826137a5565b6148458185614827565b93506148558185602086016137bf565b80840191505092915050565b5f61486c8284614831565b915081905092915050565b7f456e74727920646f6573206e6f742065786973740000000000000000000000005f82015250565b5f6148ab6014836137af565b91506148b682614877565b602082019050919050565b5f6020820190508181035f8301526148d88161489f565b9050919050565b7f55736572206e6f742072656769737465726564000000000000000000000000005f82015250565b5f6149136013836137af565b915061491e826148df565b602082019050919050565b5f6020820190508181035f83015261494081614907565b9050919050565b7f4f7264657220616c7265616479206578697374730000000000000000000000005f82015250565b5f61497b6014836137af565b915061498682614947565b602082019050919050565b5f6020820190508181035f8301526149a88161496f565b9050919050565b7f53656c6c6572206e6f7420666f756e64000000000000000000000000000000005f82015250565b5f6149e36010836137af565b91506149ee826149af565b602082019050919050565b5f6020820190508181035f830152614a10816149d7565b9050919050565b7f50726f64756374206e6f7420666f756e640000000000000000000000000000005f82015250565b5f614a4b6011836137af565b9150614a5682614a17565b602082019050919050565b5f6020820190508181035f830152614a7881614a3f565b9050919050565b5f614a8982613805565b9150614a9483613805565b9250828202614aa281613805565b91508282048414831517614ab957614ab861475f565b5b5092915050565b5f819050919050565b614ada614ad582613805565b614ac0565b82525050565b5f614aeb8289614831565b9150614af78288614831565b9150614b038287614831565b9150614b0f8286614831565b9150614b1b8285614ac9565b602082019150614b2b8284614ac9565b602082019150819050979650505050505050565b7f496e76616c6964207369676e61747572650000000000000000000000000000005f82015250565b5f614b736011836137af565b9150614b7e82614b3f565b602082019050919050565b5f6020820190508181035f830152614ba081614b67565b9050919050565b5f819050815f5260205f209050919050565b5f6020601f8301049050919050565b5f82821b905092915050565b5f60088302614c037fffffffffffffffffffffffffffffffffffffffffffffffffffffffffffffffff82614bc8565b614c0d8683614bc8565b95508019841693508086168417925050509392505050565b5f819050919050565b5f614c48614c43614c3e84613805565b614c25565b613805565b9050919050565b5f819050919050565b614c6183614c2e565b614c75614c6d82614c4f565b848454614bd4565b825550505050565b5f5f905090565b614c8c614c7d565b614c97818484614c58565b505050565b5b81811015614cba57614caf5f82614c84565b600181019050614c9d565b5050565b601f821115614cff57614cd081614ba7565b614cd984614bb9565b81016020851015614ce8578190505b614cfc614cf485614bb9565b830182614c9c565b50505b505050565b5f82821c905092915050565b5f614d1f5f1984600802614d04565b1980831691505092915050565b5f614d378383614d10565b9150826002028217905092915050565b614d50826137a5565b67ffffffffffffffff811115614d6957614d6861363a565b5b614d73825461472f565b614d7e828285614cbe565b5f60209050601f831160018114614daf575f8415614d9d578287015190505b614da78582614d2c565b865550614e0e565b601f198416614dbd86614ba7565b5f5b82811015614de457848901518255600182019150602085019450602081019050614dbf565b86831015614e015784890151614dfd601f891682614d10565b8355505b6001600288020188555050505b505050505050565b7f4f726465723a00000000000000000000000000000000000000000000000000005f82015250565b5f614e4a600683614827565b9150614e5582614e16565b600682019050919050565b5f614e6a82614e3e565b9150614e768284614831565b915081905092915050565b5f6040820190508181035f830152614e9981856137cd565b90508181036020830152614ead81846137cd565b90509392505050565b7f57616c6c657420616c72656164792072656769737465726564000000000000005f82015250565b5f614eea6019836137af565b9150614ef582614eb6565b602082019050919050565b5f6020820190508181035f830152614f1781614ede565b9050919050565b7f5573657220494420616c726561647920657869737473000000000000000000005f82015250565b5f614f526016836137af565b9150614f5d82614f1e565b602082019050919050565b5f6020820190508181035f830152614f7f81614f46565b9050919050565b5f8160601b9050919050565b5f614f9c82614f86565b9050919050565b5f614fad82614f92565b9050919050565b614fc5614fc082613934565b614fa3565b82525050565b5f614fd68289614831565b9150614fe28288614831565b9150614fee8287614ac9565b602082019150614ffe8286614831565b915061500a8285614831565b91506150168284614fb4565b601482019150819050979650505050505050565b7f557365723a0000000000000000000000000000000000000000000000000000005f82015250565b5f61505e600583614827565b91506150698261502a565b600582019050919050565b5f61507e82615052565b915061508a8284614831565b915081905092915050565b7f496e76616c69642072616e6765000000000000000000000000000000000000005f82015250565b5f6150c9600d836137af565b91506150d482615095565b602082019050919050565b5f6020820190508181035f8301526150f6816150bd565b9050919050565b5f61510782613805565b915061511283613805565b925082820190508082111561512a5761512961475f565b5b92915050565b7f4e487b71000000000000000000000000000000000000000000000000000000005f52603260045260245ffd5b7f4f72646572206e6f7420666f756e6400000000000000000000000000000000005f82015250565b5f615191600f836137af565b915061519c8261515d565b602082019050919050565b5f6020820190508181035f8301526151be81615185565b9050919050565b7f50726f6475637420616c726561647920657869737473000000000000000000005f82015250565b5f6151f96016836137af565b9150615204826151c5565b602082019050919050565b5f6020820190508181035f830152615226816151ed565b9050919050565b5f81546152398161472f565b6152438186614827565b9450600182165f811461525d5760018114615272576152a4565b60ff19831686528115158202860193506152a4565b61527b85614ba7565b5f5b8381101561529c5781548189015260018201915060208101905061527d565b838801955050505b50505092915050565b5f6152b8828461522d565b915081905092915050565b7f4f6e6c79206661726d6572732063616e2072656769737465722070726f6475635f8201527f7473000000000000000000000000000000000000000000000000000000000000602082015250565b5f61531d6022836137af565b9150615328826152c3565b604082019050919050565b5f6020820190508181035f83015261534a81615311565b9050919050565b5f61535c8288614831565b91506153688287614831565b91506153748286614831565b91506153808285614831565b915061538c8284614ac9565b6020820191508190509695505050505050565b7f50726f647563743a0000000000000000000000000000000000000000000000005f82015250565b5f6153d3600883614827565b91506153de8261539f565b600882019050919050565b5f6153f3826153c7565b91506153ff8284614831565b915081905092915050565b5f81905092915050565b5f819050815f5260205f209050919050565b5f81546154328161472f565b61543c818661540a565b9450600182165f8114615456576001811461546b5761549d565b60ff198316865281151582028601935061549d565b61547485615414565b5f5b8381101561549557815481890152600182019150602081019050615476565b838801955050505b50505092915050565b5f6154b18284615426565b915081905092915050565b7f4e6f7420617574686f72697a656420746f207570646174652074686973206f725f8201527f6465720000000000000000000000000000000000000000000000000000000000602082015250565b5f6155166023836137af565b9150615521826154bc565b604082019050919050565b5f6020820190508181035f8301526155438161550a565b9050919050565b5f6155558286614831565b91506155618285614ac9565b6020820191506155718284614ac9565b602082019150819050949350505050565b7f4f726465725374617475733a00000000000000000000000000000000000000005f82015250565b5f6155b6600c83614827565b91506155c182615582565b600c82019050919050565b5f6155d6826155aa565b91506155e28284614831565b915081905092915050565b7f5472616e73616374696f6e20616c72656164792070726f6365737365640000005f82015250565b5f615621601d836137af565b915061562c826155ed565b602082019050919050565b5f6020820190508181035f83015261564e81615615565b9050919050565b7f434f4e4649524d000000000000000000000000000000000000000000000000005f82015250565b5f615689600783614827565b915061569482615655565b600782019050919050565b5f6156aa8285614ac9565b6020820191506156b98261567d565b91506156c58284614ac9565b6020820191508190509392505050565b7f496e76616c696420636f6e6669726d6174696f6e207369676e617475726500005f82015250565b5f615709601e836137af565b9150615714826156d5565b602082019050919050565b5f6020820190508181035f830152615736816156fd565b9050919050565b7f19457468657265756d205369676e6564204d6573736167653a0a3332000000005f82015250565b5f615771601c83614827565b915061577c8261573d565b601c82019050919050565b5f819050919050565b6157a161579c82613954565b615787565b82525050565b5f6157b182615765565b91506157bd8284615790565b60208201915081905092915050565b5f6040820190506157df5f83018561395d565b6157ec60208301846139d0565b9392505050565b5f6157fd82613805565b91507fffffffffffffffffffffffffffffffffffffffffffffffffffffffffffffffff820361582f5761582e61475f565b5b600182019050919050565b7f496e76616c6964207369676e6174757265206c656e67746800000000000000005f82015250565b5f61586e6018836137af565b91506158798261583a565b602082019050919050565b5f6020820190508181035f83015261589b81615862565b9050919050565b5f60ff82169050919050565b5f6158b8826158a2565b91506158c3836158a2565b9250828201905060ff8111156158dc576158db61475f565b5b92915050565b7f496e76616c6964207369676e617475726520762076616c7565000000000000005f82015250565b5f6159166019836137af565b9150615921826158e2565b602082019050919050565b5f6020820190508181035f8301526159438161590a565b9050919050565b615953816158a2565b82525050565b5f60808201905061596c5f83018761395d565b615979602083018661594a565b615986604083018561395d565b615993606083018461395d565b9594505050505056fea2646970667358221220b475ba44a6182268abca674563122191ee936a953475fecd4ae578de57d28a8364736f6c634300081e0033",
			"opcodes": "PUSH1 0x80 PUSH1 0x40 MSTORE CALLVALUE DUP1 ISZERO PUSH1 0xE JUMPI PUSH0 PUSH0 REVERT JUMPDEST POP CALLER PUSH1 0x6 PUSH0 PUSH2 0x100 EXP DUP2 SLOAD DUP2 PUSH20 0xFFFFFFFFFFFFFFFFFFFFFFFFFFFFFFFFFFFFFFFF MUL NOT AND SWAP1 DUP4 PUSH20 0xFFFFFFFFFFFFFFFFFFFFFFFFFFFFFFFFFFFFFFFF AND MUL OR SWAP1 SSTORE POP PUSH1 0x1 PUSH1 0x5 DUP2 SWAP1 SSTORE POP PUSH2 0x59D2 DUP1 PUSH2 0x64 PUSH0 CODECOPY PUSH0 RETURN INVALID PUSH1 0x80 PUSH1 0x40 MSTORE CALLVALUE DUP1 ISZERO PUSH2 0xF JUMPI PUSH0 PUSH0 REVERT JUMPDEST POP PUSH1 0x4 CALLDATASIZE LT PUSH2 0x12A JUMPI PUSH0 CALLDATALOAD PUSH1 0xE0 SHR DUP1 PUSH4 0x5632BA98 GT PUSH2 0xAB JUMPI DUP1 PUSH4 0x89E0465B GT PUSH2 0x6F JUMPI DUP1 PUSH4 0x89E0465B EQ PUSH2 0x3CE JUMPI DUP1 PUSH4 0x9A1B4098 EQ PUSH2 0x3FE JUMPI DUP1 PUSH4 0xB0F513B8 EQ PUSH2 0x41A JUMPI DUP1 PUSH4 0xC4A2E641 EQ PUSH2 0x436 JUMPI DUP1 PUSH4 0xF851A440 EQ PUSH2 0x452 JUMPI PUSH2 0x12A JUMP JUMPDEST DUP1 PUSH4 0x5632BA98 EQ PUSH2 0x2EB JUMPI DUP1 PUSH4 0x5E3E2F35 EQ PUSH2 0x307 JUMPI DUP1 PUSH4 0x68111CCE EQ PUSH2 0x337 JUMPI DUP1 PUSH4 0x689E1C03 EQ PUSH2 0x367 JUMPI DUP1 PUSH4 0x712CA0F8 EQ PUSH2 0x39E JUMPI PUSH2 0x12A JUMP JUMPDEST DUP1 PUSH4 0x26415D30 GT PUSH2 0xF2 JUMPI DUP1 PUSH4 0x26415D30 EQ PUSH2 0x221 JUMPI DUP1 PUSH4 0x3B0328BE EQ PUSH2 0x23F JUMPI DUP1 PUSH4 0x43EC5665 EQ PUSH2 0x26F JUMPI DUP1 PUSH4 0x4732C183 EQ PUSH2 0x29F JUMPI DUP1 PUSH4 0x4BB54384 EQ PUSH2 0x2BB JUMPI PUSH2 0x12A JUMP JUMPDEST DUP1 PUSH4 0x186A423 EQ PUSH2 0x12E JUMPI DUP1 PUSH4 0x10A7FD7B EQ PUSH2 0x164 JUMPI DUP1 PUSH4 0x12D491C9 EQ PUSH2 0x19B JUMPI DUP1 PUSH4 0x163F7522 EQ PUSH2 0x1B9 JUMPI DUP1 PUSH4 0x1A948947 EQ PUSH2 0x1E9 JUMPI JUMPDEST PUSH0 PUSH0 REVERT JUMPDEST PUSH2 0x148 PUSH1 0x4 DUP1 CALLDATASIZE SUB DUP2 ADD SWAP1 PUSH2 0x143 SWAP2 SWAP1 PUSH2 0x375E JUMP JUMPDEST PUSH2 0x470 JUMP JUMPDEST PUSH1 0x40 MLOAD PUSH2 0x15B SWAP8 SWAP7 SWAP6 SWAP5 SWAP4 SWAP3 SWAP2 SWAP1 PUSH2 0x3837 JUMP JUMPDEST PUSH1 0x40 MLOAD DUP1 SWAP2 SUB SWAP1 RETURN JUMPDEST PUSH2 0x17E PUSH1 0x4 DUP1 CALLDATASIZE SUB DUP2 ADD SWAP1 PUSH2 0x179 SWAP2 SWAP1 PUSH2 0x38EA JUMP JUMPDEST PUSH2 0x6EA JUMP JUMPDEST PUSH1 0x40 MLOAD PUSH2 0x192 SWAP9 SWAP8 SWAP7 SWAP6 SWAP5 SWAP4 SWAP3 SWAP2 SWAP1 PUSH2 0x3A25 JUMP JUMPDEST PUSH1 0x40 MLOAD DUP1 SWAP2 SUB SWAP1 RETURN JUMPDEST PUSH2 0x1A3 PUSH2 0x7F7 JUMP JUMPDEST PUSH1 0x40 MLOAD PUSH2 0x1B0 SWAP2 SWAP1 PUSH2 0x3AA8 JUMP JUMPDEST PUSH1 0x40 MLOAD DUP1 SWAP2 SUB SWAP1 RETURN JUMPDEST PUSH2 0x1D3 PUSH1 0x4 DUP1 CALLDATASIZE SUB DUP2 ADD SWAP1 PUSH2 0x1CE SWAP2 SWAP1 PUSH2 0x3AEB JUMP JUMPDEST PUSH2 0x80C JUMP JUMPDEST PUSH1 0x40 MLOAD PUSH2 0x1E0 SWAP2 SWAP1 PUSH2 0x3B16 JUMP JUMPDEST PUSH1 0x40 MLOAD DUP1 SWAP2 SUB SWAP1 RETURN JUMPDEST PUSH2 0x203 PUSH1 0x4 DUP1 CALLDATASIZE SUB DUP2 ADD SWAP1 PUSH2 0x1FE SWAP2 SWAP1 PUSH2 0x375E JUMP JUMPDEST PUSH2 0x860 JUMP JUMPDEST PUSH1 0x40 MLOAD PUSH2 0x218 SWAP10 SWAP9 SWAP8 SWAP7 SWAP6 SWAP5 SWAP4 SWAP3 SWAP2 SWAP1 PUSH2 0x3B2F JUMP JUMPDEST PUSH1 0x40 MLOAD DUP1 SWAP2 SUB SWAP1 RETURN JUMPDEST PUSH2 0x229 PUSH2 0xAF2 JUMP JUMPDEST PUSH1 0x40 MLOAD PUSH2 0x236 SWAP2 SWAP1 PUSH2 0x3AA8 JUMP JUMPDEST PUSH1 0x40 MLOAD DUP1 SWAP2 SUB SWAP1 RETURN JUMPDEST PUSH2 0x259 PUSH1 0x4 DUP1 CALLDATASIZE SUB DUP2 ADD SWAP1 PUSH2 0x254 SWAP2 SWAP1 PUSH2 0x3AEB JUMP JUMPDEST PUSH2 0xAF8 JUMP JUMPDEST PUSH1 0x40 MLOAD PUSH2 0x266 SWAP2 SWAP1 PUSH2 0x3D53 JUMP JUMPDEST PUSH1 0x40 MLOAD DUP1 SWAP2 SUB SWAP1 RETURN JUMPDEST PUSH2 0x289 PUSH1 0x4 DUP1 CALLDATASIZE SUB DUP2 ADD SWAP1 PUSH2 0x284 SWAP2 SWAP1 PUSH2 0x38EA JUMP JUMPDEST PUSH2 0xF2E JUMP JUMPDEST PUSH1 0x40 MLOAD PUSH2 0x296 SWAP2 SWAP1 PUSH2 0x3E4D JUMP JUMPDEST PUSH1 0x40 MLOAD DUP1 SWAP2 SUB SWAP1 RETURN JUMPDEST PUSH2 0x2B9 PUSH1 0x4 DUP1 CALLDATASIZE SUB DUP2 ADD SWAP1 PUSH2 0x2B4 SWAP2 SWAP1 PUSH2 0x3F0B JUMP JUMPDEST PUSH2 0x1149 JUMP JUMPDEST STOP JUMPDEST PUSH2 0x2D5 PUSH1 0x4 DUP1 CALLDATASIZE SUB DUP2 ADD SWAP1 PUSH2 0x2D0 SWAP2 SWAP1 PUSH2 0x3AEB JUMP JUMPDEST PUSH2 0x164E JUMP JUMPDEST PUSH1 0x40 MLOAD PUSH2 0x2E2 SWAP2 SWAP1 PUSH2 0x3FF2 JUMP JUMPDEST PUSH1 0x40 MLOAD DUP1 SWAP2 SUB SWAP1 RETURN JUMPDEST PUSH2 0x305 PUSH1 0x4 DUP1 CALLDATASIZE SUB DUP2 ADD SWAP1 PUSH2 0x300 SWAP2 SWAP1 PUSH2 0x4035 JUMP JUMPDEST PUSH2 0x16E9 JUMP JUMPDEST STOP JUMPDEST PUSH2 0x321 PUSH1 0x4 DUP1 CALLDATASIZE SUB DUP2 ADD SWAP1 PUSH2 0x31C SWAP2 SWAP1 PUSH2 0x414A JUMP JUMPDEST PUSH2 0x1AC3 JUMP JUMPDEST PUSH1 0x40 MLOAD PUSH2 0x32E SWAP2 SWAP1 PUSH2 0x42F0 JUMP JUMPDEST PUSH1 0x40 MLOAD DUP1 SWAP2 SUB SWAP1 RETURN JUMPDEST PUSH2 0x351 PUSH1 0x4 DUP1 CALLDATASIZE SUB DUP2 ADD SWAP1 PUSH2 0x34C SWAP2 SWAP1 PUSH2 0x375E JUMP JUMPDEST PUSH2 0x1D83 JUMP JUMPDEST PUSH1 0x40 MLOAD PUSH2 0x35E SWAP2 SWAP1 PUSH2 0x43BE JUMP JUMPDEST PUSH1 0x40 MLOAD DUP1 SWAP2 SUB SWAP1 RETURN JUMPDEST PUSH2 0x381 PUSH1 0x4 DUP1 CALLDATASIZE SUB DUP2 ADD SWAP1 PUSH2 0x37C SWAP2 SWAP1 PUSH2 0x375E JUMP JUMPDEST PUSH2 0x2095 JUMP JUMPDEST PUSH1 0x40 MLOAD PUSH2 0x395 SWAP9 SWAP8 SWAP7 SWAP6 SWAP5 SWAP4 SWAP3 SWAP2 SWAP1 PUSH2 0x43ED JUMP JUMPDEST PUSH1 0x40 MLOAD DUP1 SWAP2 SUB SWAP1 RETURN JUMPDEST PUSH2 0x3B8 PUSH1 0x4 DUP1 CALLDATASIZE SUB DUP2 ADD SWAP1 PUSH2 0x3B3 SWAP2 SWAP1 PUSH2 0x375E JUMP JUMPDEST PUSH2 0x2340 JUMP JUMPDEST PUSH1 0x40 MLOAD PUSH2 0x3C5 SWAP2 SWAP1 PUSH2 0x455C JUMP JUMPDEST PUSH1 0x40 MLOAD DUP1 SWAP2 SUB SWAP1 RETURN JUMPDEST PUSH2 0x3E8 PUSH1 0x4 DUP1 CALLDATASIZE SUB DUP2 ADD SWAP1 PUSH2 0x3E3 SWAP2 SWAP1 PUSH2 0x45A6 JUMP JUMPDEST PUSH2 0x2697 JUMP JUMPDEST PUSH1 0x40 MLOAD PUSH2 0x3F5 SWAP2 SWAP1 PUSH2 0x3B16 JUMP JUMPDEST PUSH1 0x40 MLOAD DUP1 SWAP2 SUB SWAP1 RETURN JUMPDEST PUSH2 0x418 PUSH1 0x4 DUP1 CALLDATASIZE SUB DUP2 ADD SWAP1 PUSH2 0x413 SWAP2 SWAP1 PUSH2 0x3F0B JUMP JUMPDEST PUSH2 0x2715 JUMP JUMPDEST STOP JUMPDEST PUSH2 0x434 PUSH1 0x4 DUP1 CALLDATASIZE SUB DUP2 ADD SWAP1 PUSH2 0x42F SWAP2 SWAP1 PUSH2 0x4607 JUMP JUMPDEST PUSH2 0x2B82 JUMP JUMPDEST STOP JUMPDEST PUSH2 0x450 PUSH1 0x4 DUP1 CALLDATASIZE SUB DUP2 ADD SWAP1 PUSH2 0x44B SWAP2 SWAP1 PUSH2 0x468F JUMP JUMPDEST PUSH2 0x2F09 JUMP JUMPDEST STOP JUMPDEST PUSH2 0x45A PUSH2 0x30E9 JUMP JUMPDEST PUSH1 0x40 MLOAD PUSH2 0x467 SWAP2 SWAP1 PUSH2 0x46E9 JUMP JUMPDEST PUSH1 0x40 MLOAD DUP1 SWAP2 SUB SWAP1 RETURN JUMPDEST PUSH1 0x3 DUP2 DUP1 MLOAD PUSH1 0x20 DUP2 ADD DUP3 ADD DUP1 MLOAD DUP5 DUP3 MSTORE PUSH1 0x20 DUP4 ADD PUSH1 0x20 DUP6 ADD KECCAK256 DUP2 DUP4 MSTORE DUP1 SWAP6 POP POP POP POP POP POP PUSH0 SWAP2 POP SWAP1 POP DUP1 PUSH0 ADD DUP1 SLOAD PUSH2 0x4A7 SWAP1 PUSH2 0x472F JUMP JUMPDEST DUP1 PUSH1 0x1F ADD PUSH1 0x20 DUP1 SWAP2 DIV MUL PUSH1 0x20 ADD PUSH1 0x40 MLOAD SWAP1 DUP2 ADD PUSH1 0x40 MSTORE DUP1 SWAP3 SWAP2 SWAP1 DUP2 DUP2 MSTORE PUSH1 0x20 ADD DUP3 DUP1 SLOAD PUSH2 0x4D3 SWAP1 PUSH2 0x472F JUMP JUMPDEST DUP1 ISZERO PUSH2 0x51E JUMPI DUP1 PUSH1 0x1F LT PUSH2 0x4F5 JUMPI PUSH2 0x100 DUP1 DUP4 SLOAD DIV MUL DUP4 MSTORE SWAP2 PUSH1 0x20 ADD SWAP2 PUSH2 0x51E JUMP JUMPDEST DUP3 ADD SWAP2 SWAP1 PUSH0 MSTORE PUSH1 0x20 PUSH0 KECCAK256 SWAP1 JUMPDEST DUP2 SLOAD DUP2 MSTORE SWAP1 PUSH1 0x1 ADD SWAP1 PUSH1 0x20 ADD DUP1 DUP4 GT PUSH2 0x501 JUMPI DUP3 SWAP1 SUB PUSH1 0x1F AND DUP3 ADD SWAP2 JUMPDEST POP POP POP POP POP SWAP1 DUP1 PUSH1 0x1 ADD DUP1 SLOAD PUSH2 0x533 SWAP1 PUSH2 0x472F JUMP JUMPDEST DUP1 PUSH1 0x1F ADD PUSH1 0x20 DUP1 SWAP2 DIV MUL PUSH1 0x20 ADD PUSH1 0x40 MLOAD SWAP1 DUP2 ADD PUSH1 0x40 MSTORE DUP1 SWAP3 SWAP2 SWAP1 DUP2 DUP2 MSTORE PUSH1 0x20 ADD DUP3 DUP1 SLOAD PUSH2 0x55F SWAP1 PUSH2 0x472F JUMP JUMPDEST DUP1 ISZERO PUSH2 0x5AA JUMPI DUP1 PUSH1 0x1F LT PUSH2 0x581 JUMPI PUSH2 0x100 DUP1 DUP4 SLOAD DIV MUL DUP4 MSTORE SWAP2 PUSH1 0x20 ADD SWAP2 PUSH2 0x5AA JUMP JUMPDEST DUP3 ADD SWAP2 SWAP1 PUSH0 MSTORE PUSH1 0x20 PUSH0 KECCAK256 SWAP1 JUMPDEST DUP2 SLOAD DUP2 MSTORE SWAP1 PUSH1 0x1 ADD SWAP1 PUSH1 0x20 ADD DUP1 DUP4 GT PUSH2 0x58D JUMPI DUP3 SWAP1 SUB PUSH1 0x1F AND DUP3 ADD SWAP2 JUMPDEST POP POP POP POP POP SWAP1 DUP1 PUSH1 0x2 ADD DUP1 SLOAD PUSH2 0x5BF SWAP1 PUSH2 0x472F JUMP JUMPDEST DUP1 PUSH1 0x1F ADD PUSH1 0x20 DUP1 SWAP2 DIV MUL PUSH1 0x20 ADD PUSH1 0x40 MLOAD SWAP1 DUP2 ADD PUSH1 0x40 MSTORE DUP1 SWAP3 SWAP2 SWAP1 DUP2 DUP2 MSTORE PUSH1 0x20 ADD DUP3 DUP1 SLOAD PUSH2 0x5EB SWAP1 PUSH2 0x472F JUMP JUMPDEST DUP1 ISZERO PUSH2 0x636 JUMPI DUP1 PUSH1 0x1F LT PUSH2 0x60D JUMPI PUSH2 0x100 DUP1 DUP4 SLOAD DIV MUL DUP4 MSTORE SWAP2 PUSH1 0x20 ADD SWAP2 PUSH2 0x636 JUMP JUMPDEST DUP3 ADD SWAP2 SWAP1 PUSH0 MSTORE PUSH1 0x20 PUSH0 KECCAK256 SWAP1 JUMPDEST DUP2 SLOAD DUP2 MSTORE SWAP1 PUSH1 0x1 ADD SWAP1 PUSH1 0x20 ADD DUP1 DUP4 GT PUSH2 0x619 JUMPI DUP3 SWAP1 SUB PUSH1 0x1F AND DUP3 ADD SWAP2 JUMPDEST POP POP POP POP POP SWAP1 DUP1 PUSH1 0x3 ADD DUP1 SLOAD PUSH2 0x64B SWAP1 PUSH2 0x472F JUMP JUMPDEST DUP1 PUSH1 0x1F ADD PUSH1 0x20 DUP1 SWAP2 DIV MUL PUSH1 0x20 ADD PUSH1 0x40 MLOAD SWAP1 DUP2 ADD PUSH1 0x40 MSTORE DUP1 SWAP3 SWAP2 SWAP1 DUP2 DUP2 MSTORE PUSH1 0x20 ADD DUP3 DUP1 SLOAD PUSH2 0x677 SWAP1 PUSH2 0x472F JUMP JUMPDEST DUP1 ISZERO PUSH2 0x6C2 JUMPI DUP1 PUSH1 0x1F LT PUSH2 0x699 JUMPI PUSH2 0x100 DUP1 DUP4 SLOAD DIV MUL DUP4 MSTORE SWAP2 PUSH1 0x20 ADD SWAP2 PUSH2 0x6C2 JUMP JUMPDEST DUP3 ADD SWAP2 SWAP1 PUSH0 MSTORE PUSH1 0x20 PUSH0 KECCAK256 SWAP1 JUMPDEST DUP2 SLOAD DUP2 MSTORE SWAP1 PUSH1 0x1 ADD SWAP1 PUSH1 0x20 ADD DUP1 DUP4 GT PUSH2 0x6A5 JUMPI DUP3 SWAP1 SUB PUSH1 0x1F AND DUP3 ADD SWAP2 JUMPDEST POP POP POP POP POP SWAP1 DUP1 PUSH1 0x4 ADD SLOAD SWAP1 DUP1 PUSH1 0x5 ADD SLOAD SWAP1 DUP1 PUSH1 0x6 ADD PUSH0 SWAP1 SLOAD SWAP1 PUSH2 0x100 EXP SWAP1 DIV PUSH1 0xFF AND SWAP1 POP DUP8 JUMP JUMPDEST PUSH0 PUSH1 0x20 MSTORE DUP1 PUSH0 MSTORE PUSH1 0x40 PUSH0 KECCAK256 PUSH0 SWAP2 POP SWAP1 POP DUP1 PUSH0 ADD SLOAD SWAP1 DUP1 PUSH1 0x1 ADD PUSH0 SWAP1 SLOAD SWAP1 PUSH2 0x100 EXP SWAP1 DIV PUSH20 0xFFFFFFFFFFFFFFFFFFFFFFFFFFFFFFFFFFFFFFFF AND SWAP1 DUP1 PUSH1 0x2 ADD SLOAD SWAP1 DUP1 PUSH1 0x3 ADD PUSH0 SWAP1 SLOAD SWAP1 PUSH2 0x100 EXP SWAP1 DIV PUSH1 0xFF AND SWAP1 DUP1 PUSH1 0x3 ADD PUSH1 0x1 SWAP1 SLOAD SWAP1 PUSH2 0x100 EXP SWAP1 DIV PUSH1 0xFF AND SWAP1 DUP1 PUSH1 0x4 ADD SLOAD SWAP1 DUP1 PUSH1 0x5 ADD DUP1 SLOAD PUSH2 0x764 SWAP1 PUSH2 0x472F JUMP JUMPDEST DUP1 PUSH1 0x1F ADD PUSH1 0x20 DUP1 SWAP2 DIV MUL PUSH1 0x20 ADD PUSH1 0x40 MLOAD SWAP1 DUP2 ADD PUSH1 0x40 MSTORE DUP1 SWAP3 SWAP2 SWAP1 DUP2 DUP2 MSTORE PUSH1 0x20 ADD DUP3 DUP1 SLOAD PUSH2 0x790 SWAP1 PUSH2 0x472F JUMP JUMPDEST DUP1 ISZERO PUSH2 0x7DB JUMPI DUP1 PUSH1 0x1F LT PUSH2 0x7B2 JUMPI PUSH2 0x100 DUP1 DUP4 SLOAD DIV MUL DUP4 MSTORE SWAP2 PUSH1 0x20 ADD SWAP2 PUSH2 0x7DB JUMP JUMPDEST DUP3 ADD SWAP2 SWAP1 PUSH0 MSTORE PUSH1 0x20 PUSH0 KECCAK256 SWAP1 JUMPDEST DUP2 SLOAD DUP2 MSTORE SWAP1 PUSH1 0x1 ADD SWAP1 PUSH1 0x20 ADD DUP1 DUP4 GT PUSH2 0x7BE JUMPI DUP3 SWAP1 SUB PUSH1 0x1F AND DUP3 ADD SWAP2 JUMPDEST POP POP POP POP POP SWAP1 DUP1 PUSH1 0x6 ADD PUSH0 SWAP1 SLOAD SWAP1 PUSH2 0x100 EXP SWAP1 DIV PUSH1 0xFF AND SWAP1 POP DUP9 JUMP JUMPDEST PUSH0 PUSH1 0x1 PUSH1 0x5 SLOAD PUSH2 0x807 SWAP2 SWAP1 PUSH2 0x478C JUMP JUMPDEST SWAP1 POP SWAP1 JUMP JUMPDEST PUSH0 PUSH0 PUSH1 0x1 PUSH0 DUP5 PUSH20 0xFFFFFFFFFFFFFFFFFFFFFFFFFFFFFFFFFFFFFFFF AND PUSH20 0xFFFFFFFFFFFFFFFFFFFFFFFFFFFFFFFFFFFFFFFF AND DUP2 MSTORE PUSH1 0x20 ADD SWAP1 DUP2 MSTORE PUSH1 0x20 ADD PUSH0 KECCAK256 DUP1 SLOAD PUSH2 0x856 SWAP1 PUSH2 0x472F JUMP JUMPDEST SWAP1 POP GT SWAP1 POP SWAP2 SWAP1 POP JUMP JUMPDEST PUSH1 0x4 DUP2 DUP1 MLOAD PUSH1 0x20 DUP2 ADD DUP3 ADD DUP1 MLOAD DUP5 DUP3 MSTORE PUSH1 0x20 DUP4 ADD PUSH1 0x20 DUP6 ADD KECCAK256 DUP2 DUP4 MSTORE DUP1 SWAP6 POP POP POP POP POP POP PUSH0 SWAP2 POP SWAP1 POP DUP1 PUSH0 ADD DUP1 SLOAD PUSH2 0x897 SWAP1 PUSH2 0x472F JUMP JUMPDEST DUP1 PUSH1 0x1F ADD PUSH1 0x20 DUP1 SWAP2 DIV MUL PUSH1 0x20 ADD PUSH1 0x40 MLOAD SWAP1 DUP2 ADD PUSH1 0x40 MSTORE DUP1 SWAP3 SWAP2 SWAP1 DUP2 DUP2 MSTORE PUSH1 0x20 ADD DUP3 DUP1 SLOAD PUSH2 0x8C3 SWAP1 PUSH2 0x472F JUMP JUMPDEST DUP1 ISZERO PUSH2 0x90E JUMPI DUP1 PUSH1 0x1F LT PUSH2 0x8E5 JUMPI PUSH2 0x100 DUP1 DUP4 SLOAD DIV MUL DUP4 MSTORE SWAP2 PUSH1 0x20 ADD SWAP2 PUSH2 0x90E JUMP JUMPDEST DUP3 ADD SWAP2 SWAP1 PUSH0 MSTORE PUSH1 0x20 PUSH0 KECCAK256 SWAP1 JUMPDEST DUP2 SLOAD DUP2 MSTORE SWAP1 PUSH1 0x1 ADD SWAP1 PUSH1 0x20 ADD DUP1 DUP4 GT PUSH2 0x8F1 JUMPI DUP3 SWAP1 SUB PUSH1 0x1F AND DUP3 ADD SWAP2 JUMPDEST POP POP POP POP POP SWAP1 DUP1 PUSH1 0x1 ADD DUP1 SLOAD PUSH2 0x923 SWAP1 PUSH2 0x472F JUMP JUMPDEST DUP1 PUSH1 0x1F ADD PUSH1 0x20 DUP1 SWAP2 DIV MUL PUSH1 0x20 ADD PUSH1 0x40 MLOAD SWAP1 DUP2 ADD PUSH1 0x40 MSTORE DUP1 SWAP3 SWAP2 SWAP1 DUP2 DUP2 MSTORE PUSH1 0x20 ADD DUP3 DUP1 SLOAD PUSH2 0x94F SWAP1 PUSH2 0x472F JUMP JUMPDEST DUP1 ISZERO PUSH2 0x99A JUMPI DUP1 PUSH1 0x1F LT PUSH2 0x971 JUMPI PUSH2 0x100 DUP1 DUP4 SLOAD DIV MUL DUP4 MSTORE SWAP2 PUSH1 0x20 ADD SWAP2 PUSH2 0x99A JUMP JUMPDEST DUP3 ADD SWAP2 SWAP1 PUSH0 MSTORE PUSH1 0x20 PUSH0 KECCAK256 SWAP1 JUMPDEST DUP2 SLOAD DUP2 MSTORE SWAP1 PUSH1 0x1 ADD SWAP1 PUSH1 0x20 ADD DUP1 DUP4 GT PUSH2 0x97D JUMPI DUP3 SWAP1 SUB PUSH1 0x1F AND DUP3 ADD SWAP2 JUMPDEST POP POP POP POP POP SWAP1 DUP1 PUSH1 0x2 ADD DUP1 SLOAD PUSH2 0x9AF SWAP1 PUSH2 0x472F JUMP JUMPDEST DUP1 PUSH1 0x1F ADD PUSH1 0x20 DUP1 SWAP2 DIV MUL PUSH1 0x20 ADD PUSH1 0x40 MLOAD SWAP1 DUP2 ADD PUSH1 0x40 MSTORE DUP1 SWAP3 SWAP2 SWAP1 DUP2 DUP2 MSTORE PUSH1 0x20 ADD DUP3 DUP1 SLOAD PUSH2 0x9DB SWAP1 PUSH2 0x472F JUMP JUMPDEST DUP1 ISZERO PUSH2 0xA26 JUMPI DUP1 PUSH1 0x1F LT PUSH2 0x9FD JUMPI PUSH2 0x100 DUP1 DUP4 SLOAD DIV MUL DUP4 MSTORE SWAP2 PUSH1 0x20 ADD SWAP2 PUSH2 0xA26 JUMP JUMPDEST DUP3 ADD SWAP2 SWAP1 PUSH0 MSTORE PUSH1 0x20 PUSH0 KECCAK256 SWAP1 JUMPDEST DUP2 SLOAD DUP2 MSTORE SWAP1 PUSH1 0x1 ADD SWAP1 PUSH1 0x20 ADD DUP1 DUP4 GT PUSH2 0xA09 JUMPI DUP3 SWAP1 SUB PUSH1 0x1F AND DUP3 ADD SWAP2 JUMPDEST POP POP POP POP POP SWAP1 DUP1 PUSH1 0x3 ADD DUP1 SLOAD PUSH2 0xA3B SWAP1 PUSH2 0x472F JUMP JUMPDEST DUP1 PUSH1 0x1F ADD PUSH1 0x20 DUP1 SWAP2 DIV MUL PUSH1 0x20 ADD PUSH1 0x40 MLOAD SWAP1 DUP2 ADD PUSH1 0x40 MSTORE DUP1 SWAP3 SWAP2 SWAP1 DUP2 DUP2 MSTORE PUSH1 0x20 ADD DUP3 DUP1 SLOAD PUSH2 0xA67 SWAP1 PUSH2 0x472F JUMP JUMPDEST DUP1 ISZERO PUSH2 0xAB2 JUMPI DUP1 PUSH1 0x1F LT PUSH2 0xA89 JUMPI PUSH2 0x100 DUP1 DUP4 SLOAD DIV MUL DUP4 MSTORE SWAP2 PUSH1 0x20 ADD SWAP2 PUSH2 0xAB2 JUMP JUMPDEST DUP3 ADD SWAP2 SWAP1 PUSH0 MSTORE PUSH1 0x20 PUSH0 KECCAK256 SWAP1 JUMPDEST DUP2 SLOAD DUP2 MSTORE SWAP1 PUSH1 0x1 ADD SWAP1 PUSH1 0x20 ADD DUP1 DUP4 GT PUSH2 0xA95 JUMPI DUP3 SWAP1 SUB PUSH1 0x1F AND DUP3 ADD SWAP2 JUMPDEST POP POP POP POP POP SWAP1 DUP1 PUSH1 0x4 ADD SLOAD SWAP1 DUP1 PUSH1 0x5 ADD SLOAD SWAP1 DUP1 PUSH1 0x6 ADD PUSH0 SWAP1 SLOAD SWAP1 PUSH2 0x100 EXP SWAP1 DIV PUSH1 0xFF AND SWAP1 DUP1 PUSH1 0x7 ADD SLOAD SWAP1 DUP1 PUSH1 0x8 ADD PUSH0 SWAP1 SLOAD SWAP1 PUSH2 0x100 EXP SWAP1 DIV PUSH1 0xFF AND SWAP1 POP DUP10 JUMP JUMPDEST PUSH1 0x5 SLOAD DUP2 JUMP JUMPDEST PUSH2 0xB00 PUSH2 0x3495 JUMP JUMPDEST PUSH0 PUSH1 0x1 PUSH0 DUP5 PUSH20 0xFFFFFFFFFFFFFFFFFFFFFFFFFFFFFFFFFFFFFFFF AND PUSH20 0xFFFFFFFFFFFFFFFFFFFFFFFFFFFFFFFFFFFFFFFF AND DUP2 MSTORE PUSH1 0x20 ADD SWAP1 DUP2 MSTORE PUSH1 0x20 ADD PUSH0 KECCAK256 DUP1 SLOAD PUSH2 0xB49 SWAP1 PUSH2 0x472F JUMP JUMPDEST DUP1 PUSH1 0x1F ADD PUSH1 0x20 DUP1 SWAP2 DIV MUL PUSH1 0x20 ADD PUSH1 0x40 MLOAD SWAP1 DUP2 ADD PUSH1 0x40 MSTORE DUP1 SWAP3 SWAP2 SWAP1 DUP2 DUP2 MSTORE PUSH1 0x20 ADD DUP3 DUP1 SLOAD PUSH2 0xB75 SWAP1 PUSH2 0x472F JUMP JUMPDEST DUP1 ISZERO PUSH2 0xBC0 JUMPI DUP1 PUSH1 0x1F LT PUSH2 0xB97 JUMPI PUSH2 0x100 DUP1 DUP4 SLOAD DIV MUL DUP4 MSTORE SWAP2 PUSH1 0x20 ADD SWAP2 PUSH2 0xBC0 JUMP JUMPDEST DUP3 ADD SWAP2 SWAP1 PUSH0 MSTORE PUSH1 0x20 PUSH0 KECCAK256 SWAP1 JUMPDEST DUP2 SLOAD DUP2 MSTORE SWAP1 PUSH1 0x1 ADD SWAP1 PUSH1 0x20 ADD DUP1 DUP4 GT PUSH2 0xBA3 JUMPI DUP3 SWAP1 SUB PUSH1 0x1F AND DUP3 ADD SWAP2 JUMPDEST POP POP POP POP POP SWAP1 POP PUSH0 DUP2 MLOAD GT PUSH2 0xC0A JUMPI PUSH1 0x40 MLOAD PUSH32 0x8C379A000000000000000000000000000000000000000000000000000000000 DUP2 MSTORE PUSH1 0x4 ADD PUSH2 0xC01 SWAP1 PUSH2 0x4809 JUMP JUMPDEST PUSH1 0x40 MLOAD DUP1 SWAP2 SUB SWAP1 REVERT JUMPDEST PUSH1 0x2 DUP2 PUSH1 0x40 MLOAD PUSH2 0xC1A SWAP2 SWAP1 PUSH2 0x4861 JUMP JUMPDEST SWAP1 DUP2 MSTORE PUSH1 0x20 ADD PUSH1 0x40 MLOAD DUP1 SWAP2 SUB SWAP1 KECCAK256 PUSH1 0x40 MLOAD DUP1 PUSH2 0x100 ADD PUSH1 0x40 MSTORE SWAP1 DUP2 PUSH0 DUP3 ADD DUP1 SLOAD PUSH2 0xC43 SWAP1 PUSH2 0x472F JUMP JUMPDEST DUP1 PUSH1 0x1F ADD PUSH1 0x20 DUP1 SWAP2 DIV MUL PUSH1 0x20 ADD PUSH1 0x40 MLOAD SWAP1 DUP2 ADD PUSH1 0x40 MSTORE DUP1 SWAP3 SWAP2 SWAP1 DUP2 DUP2 MSTORE PUSH1 0x20 ADD DUP3 DUP1 SLOAD PUSH2 0xC6F SWAP1 PUSH2 0x472F JUMP JUMPDEST DUP1 ISZERO PUSH2 0xCBA JUMPI DUP1 PUSH1 0x1F LT PUSH2 0xC91 JUMPI PUSH2 0x100 DUP1 DUP4 SLOAD DIV MUL DUP4 MSTORE SWAP2 PUSH1 0x20 ADD SWAP2 PUSH2 0xCBA JUMP JUMPDEST DUP3 ADD SWAP2 SWAP1 PUSH0 MSTORE PUSH1 0x20 PUSH0 KECCAK256 SWAP1 JUMPDEST DUP2 SLOAD DUP2 MSTORE SWAP1 PUSH1 0x1 ADD SWAP1 PUSH1 0x20 ADD DUP1 DUP4 GT PUSH2 0xC9D JUMPI DUP3 SWAP1 SUB PUSH1 0x1F AND DUP3 ADD SWAP2 JUMPDEST POP POP POP POP POP DUP2 MSTORE PUSH1 0x20 ADD PUSH1 0x1 DUP3 ADD PUSH0 SWAP1 SLOAD SWAP1 PUSH2 0x100 EXP SWAP1 DIV PUSH20 0xFFFFFFFFFFFFFFFFFFFFFFFFFFFFFFFFFFFFFFFF AND PUSH20 0xFFFFFFFFFFFFFFFFFFFFFFFFFFFFFFFFFFFFFFFF AND PUSH20 0xFFFFFFFFFFFFFFFFFFFFFFFFFFFFFFFFFFFFFFFF AND DUP2 MSTORE PUSH1 0x20 ADD PUSH1 0x2 DUP3 ADD DUP1 SLOAD PUSH2 0xD28 SWAP1 PUSH2 0x472F JUMP JUMPDEST DUP1 PUSH1 0x1F ADD PUSH1 0x20 DUP1 SWAP2 DIV MUL PUSH1 0x20 ADD PUSH1 0x40 MLOAD SWAP1 DUP2 ADD PUSH1 0x40 MSTORE DUP1 SWAP3 SWAP2 SWAP1 DUP2 DUP2 MSTORE PUSH1 0x20 ADD DUP3 DUP1 SLOAD PUSH2 0xD54 SWAP1 PUSH2 0x472F JUMP JUMPDEST DUP1 ISZERO PUSH2 0xD9F JUMPI DUP1 PUSH1 0x1F LT PUSH2 0xD76 JUMPI PUSH2 0x100 DUP1 DUP4 SLOAD DIV MUL DUP4 MSTORE SWAP2 PUSH1 0x20 ADD SWAP2 PUSH2 0xD9F JUMP JUMPDEST DUP3 ADD SWAP2 SWAP1 PUSH0 MSTORE PUSH1 0x20 PUSH0 KECCAK256 SWAP1 JUMPDEST DUP2 SLOAD DUP2 MSTORE SWAP1 PUSH1 0x1 ADD SWAP1 PUSH1 0x20 ADD DUP1 DUP4 GT PUSH2 0xD82 JUMPI DUP3 SWAP1 SUB PUSH1 0x1F AND DUP3 ADD SWAP2 JUMPDEST POP POP POP POP POP DUP2 MSTORE PUSH1 0x20 ADD PUSH1 0x3 DUP3 ADD PUSH0 SWAP1 SLOAD SWAP1 PUSH2 0x100 EXP SWAP1 DIV PUSH1 0xFF AND PUSH1 0x4 DUP2 GT ISZERO PUSH2 0xDCC JUMPI PUSH2 0xDCB PUSH2 0x396C JUMP JUMPDEST JUMPDEST PUSH1 0x4 DUP2 GT ISZERO PUSH2 0xDDE JUMPI PUSH2 0xDDD PUSH2 0x396C JUMP JUMPDEST JUMPDEST DUP2 MSTORE PUSH1 0x20 ADD PUSH1 0x4 DUP3 ADD DUP1 SLOAD PUSH2 0xDF2 SWAP1 PUSH2 0x472F JUMP JUMPDEST DUP1 PUSH1 0x1F ADD PUSH1 0x20 DUP1 SWAP2 DIV MUL PUSH1 0x20 ADD PUSH1 0x40 MLOAD SWAP1 DUP2 ADD PUSH1 0x40 MSTORE DUP1 SWAP3 SWAP2 SWAP1 DUP2 DUP2 MSTORE PUSH1 0x20 ADD DUP3 DUP1 SLOAD PUSH2 0xE1E SWAP1 PUSH2 0x472F JUMP JUMPDEST DUP1 ISZERO PUSH2 0xE69 JUMPI DUP1 PUSH1 0x1F LT PUSH2 0xE40 JUMPI PUSH2 0x100 DUP1 DUP4 SLOAD DIV MUL DUP4 MSTORE SWAP2 PUSH1 0x20 ADD SWAP2 PUSH2 0xE69 JUMP JUMPDEST DUP3 ADD SWAP2 SWAP1 PUSH0 MSTORE PUSH1 0x20 PUSH0 KECCAK256 SWAP1 JUMPDEST DUP2 SLOAD DUP2 MSTORE SWAP1 PUSH1 0x1 ADD SWAP1 PUSH1 0x20 ADD DUP1 DUP4 GT PUSH2 0xE4C JUMPI DUP3 SWAP1 SUB PUSH1 0x1F AND DUP3 ADD SWAP2 JUMPDEST POP POP POP POP POP DUP2 MSTORE PUSH1 0x20 ADD PUSH1 0x5 DUP3 ADD DUP1 SLOAD PUSH2 0xE82 SWAP1 PUSH2 0x472F JUMP JUMPDEST DUP1 PUSH1 0x1F ADD PUSH1 0x20 DUP1 SWAP2 DIV MUL PUSH1 0x20 ADD PUSH1 0x40 MLOAD SWAP1 DUP2 ADD PUSH1 0x40 MSTORE DUP1 SWAP3 SWAP2 SWAP1 DUP2 DUP2 MSTORE PUSH1 0x20 ADD DUP3 DUP1 SLOAD PUSH2 0xEAE SWAP1 PUSH2 0x472F JUMP JUMPDEST DUP1 ISZERO PUSH2 0xEF9 JUMPI DUP1 PUSH1 0x1F LT PUSH2 0xED0 JUMPI PUSH2 0x100 DUP1 DUP4 SLOAD DIV MUL DUP4 MSTORE SWAP2 PUSH1 0x20 ADD SWAP2 PUSH2 0xEF9 JUMP JUMPDEST DUP3 ADD SWAP2 SWAP1 PUSH0 MSTORE PUSH1 0x20 PUSH0 KECCAK256 SWAP1 JUMPDEST DUP2 SLOAD DUP2 MSTORE SWAP1 PUSH1 0x1 ADD SWAP1 PUSH1 0x20 ADD DUP1 DUP4 GT PUSH2 0xEDC JUMPI DUP3 SWAP1 SUB PUSH1 0x1F AND DUP3 ADD SWAP2 JUMPDEST POP POP POP POP POP DUP2 MSTORE PUSH1 0x20 ADD PUSH1 0x6 DUP3 ADD SLOAD DUP2 MSTORE PUSH1 0x20 ADD PUSH1 0x7 DUP3 ADD PUSH0 SWAP1 SLOAD SWAP1 PUSH2 0x100 EXP SWAP1 DIV PUSH1 0xFF AND ISZERO ISZERO ISZERO ISZERO DUP2 MSTORE POP POP SWAP2 POP POP SWAP2 SWAP1 POP JUMP JUMPDEST PUSH2 0xF36 PUSH2 0x3500 JUMP JUMPDEST PUSH0 PUSH0 DUP4 DUP2 MSTORE PUSH1 0x20 ADD SWAP1 DUP2 MSTORE PUSH1 0x20 ADD PUSH0 KECCAK256 PUSH1 0x6 ADD PUSH0 SWAP1 SLOAD SWAP1 PUSH2 0x100 EXP SWAP1 DIV PUSH1 0xFF AND PUSH2 0xF95 JUMPI PUSH1 0x40 MLOAD PUSH32 0x8C379A000000000000000000000000000000000000000000000000000000000 DUP2 MSTORE PUSH1 0x4 ADD PUSH2 0xF8C SWAP1 PUSH2 0x48C1 JUMP JUMPDEST PUSH1 0x40 MLOAD DUP1 SWAP2 SUB SWAP1 REVERT JUMPDEST PUSH0 PUSH0 DUP4 DUP2 MSTORE PUSH1 0x20 ADD SWAP1 DUP2 MSTORE PUSH1 0x20 ADD PUSH0 KECCAK256 PUSH1 0x40 MLOAD DUP1 PUSH2 0x100 ADD PUSH1 0x40 MSTORE SWAP1 DUP2 PUSH0 DUP3 ADD SLOAD DUP2 MSTORE PUSH1 0x20 ADD PUSH1 0x1 DUP3 ADD PUSH0 SWAP1 SLOAD SWAP1 PUSH2 0x100 EXP SWAP1 DIV PUSH20 0xFFFFFFFFFFFFFFFFFFFFFFFFFFFFFFFFFFFFFFFF AND PUSH20 0xFFFFFFFFFFFFFFFFFFFFFFFFFFFFFFFFFFFFFFFF AND PUSH20 0xFFFFFFFFFFFFFFFFFFFFFFFFFFFFFFFFFFFFFFFF AND DUP2 MSTORE PUSH1 0x20 ADD PUSH1 0x2 DUP3 ADD SLOAD DUP2 MSTORE PUSH1 0x20 ADD PUSH1 0x3 DUP3 ADD PUSH0 SWAP1 SLOAD SWAP1 PUSH2 0x100 EXP SWAP1 DIV PUSH1 0xFF AND PUSH1 0x4 DUP2 GT ISZERO PUSH2 0x103D JUMPI PUSH2 0x103C PUSH2 0x396C JUMP JUMPDEST JUMPDEST PUSH1 0x4 DUP2 GT ISZERO PUSH2 0x104F JUMPI PUSH2 0x104E PUSH2 0x396C JUMP JUMPDEST JUMPDEST DUP2 MSTORE PUSH1 0x20 ADD PUSH1 0x3 DUP3 ADD PUSH1 0x1 SWAP1 SLOAD SWAP1 PUSH2 0x100 EXP SWAP1 DIV PUSH1 0xFF AND PUSH1 0x2 DUP2 GT ISZERO PUSH2 0x1078 JUMPI PUSH2 0x1077 PUSH2 0x396C JUMP JUMPDEST JUMPDEST PUSH1 0x2 DUP2 GT ISZERO PUSH2 0x108A JUMPI PUSH2 0x1089 PUSH2 0x396C JUMP JUMPDEST JUMPDEST DUP2 MSTORE PUSH1 0x20 ADD PUSH1 0x4 DUP3 ADD SLOAD DUP2 MSTORE PUSH1 0x20 ADD PUSH1 0x5 DUP3 ADD DUP1 SLOAD PUSH2 0x10A8 SWAP1 PUSH2 0x472F JUMP JUMPDEST DUP1 PUSH1 0x1F ADD PUSH1 0x20 DUP1 SWAP2 DIV MUL PUSH1 0x20 ADD PUSH1 0x40 MLOAD SWAP1 DUP2 ADD PUSH1 0x40 MSTORE DUP1 SWAP3 SWAP2 SWAP1 DUP2 DUP2 MSTORE PUSH1 0x20 ADD DUP3 DUP1 SLOAD PUSH2 0x10D4 SWAP1 PUSH2 0x472F JUMP JUMPDEST DUP1 ISZERO PUSH2 0x111F JUMPI DUP1 PUSH1 0x1F LT PUSH2 0x10F6 JUMPI PUSH2 0x100 DUP1 DUP4 SLOAD DIV MUL DUP4 MSTORE SWAP2 PUSH1 0x20 ADD SWAP2 PUSH2 0x111F JUMP JUMPDEST DUP3 ADD SWAP2 SWAP1 PUSH0 MSTORE PUSH1 0x20 PUSH0 KECCAK256 SWAP1 JUMPDEST DUP2 SLOAD DUP2 MSTORE SWAP1 PUSH1 0x1 ADD SWAP1 PUSH1 0x20 ADD DUP1 DUP4 GT PUSH2 0x1102 JUMPI DUP3 SWAP1 SUB PUSH1 0x1F AND DUP3 ADD SWAP2 JUMPDEST POP POP POP POP POP DUP2 MSTORE PUSH1 0x20 ADD PUSH1 0x6 DUP3 ADD PUSH0 SWAP1 SLOAD SWAP1 PUSH2 0x100 EXP SWAP1 DIV PUSH1 0xFF AND ISZERO ISZERO ISZERO ISZERO DUP2 MSTORE POP POP SWAP1 POP SWAP2 SWAP1 POP JUMP JUMPDEST PUSH0 PUSH1 0x1 PUSH0 CALLER PUSH20 0xFFFFFFFFFFFFFFFFFFFFFFFFFFFFFFFFFFFFFFFF AND PUSH20 0xFFFFFFFFFFFFFFFFFFFFFFFFFFFFFFFFFFFFFFFF AND DUP2 MSTORE PUSH1 0x20 ADD SWAP1 DUP2 MSTORE PUSH1 0x20 ADD PUSH0 KECCAK256 DUP1 SLOAD PUSH2 0x1192 SWAP1 PUSH2 0x472F JUMP JUMPDEST SWAP1 POP GT PUSH2 0x11D4 JUMPI PUSH1 0x40 MLOAD PUSH32 0x8C379A000000000000000000000000000000000000000000000000000000000 DUP2 MSTORE PUSH1 0x4 ADD PUSH2 0x11CB SWAP1 PUSH2 0x4929 JUMP JUMPDEST PUSH1 0x40 MLOAD DUP1 SWAP2 SUB SWAP1 REVERT JUMPDEST PUSH1 0x4 DUP6 PUSH1 0x40 MLOAD PUSH2 0x11E4 SWAP2 SWAP1 PUSH2 0x4861 JUMP JUMPDEST SWAP1 DUP2 MSTORE PUSH1 0x20 ADD PUSH1 0x40 MLOAD DUP1 SWAP2 SUB SWAP1 KECCAK256 PUSH1 0x8 ADD PUSH0 SWAP1 SLOAD SWAP1 PUSH2 0x100 EXP SWAP1 DIV PUSH1 0xFF AND ISZERO PUSH2 0x1242 JUMPI PUSH1 0x40 MLOAD PUSH32 0x8C379A000000000000000000000000000000000000000000000000000000000 DUP2 MSTORE PUSH1 0x4 ADD PUSH2 0x1239 SWAP1 PUSH2 0x4991 JUMP JUMPDEST PUSH1 0x40 MLOAD DUP1 SWAP2 SUB SWAP1 REVERT JUMPDEST PUSH1 0x2 DUP5 PUSH1 0x40 MLOAD PUSH2 0x1252 SWAP2 SWAP1 PUSH2 0x4861 JUMP JUMPDEST SWAP1 DUP2 MSTORE PUSH1 0x20 ADD PUSH1 0x40 MLOAD DUP1 SWAP2 SUB SWAP1 KECCAK256 PUSH1 0x7 ADD PUSH0 SWAP1 SLOAD SWAP1 PUSH2 0x100 EXP SWAP1 DIV PUSH1 0xFF AND PUSH2 0x12AF JUMPI PUSH1 0x40 MLOAD PUSH32 0x8C379A000000000000000000000000000000000000000000000000000000000 DUP2 MSTORE PUSH1 0x4 ADD PUSH2 0x12A6 SWAP1 PUSH2 0x49F9 JUMP JUMPDEST PUSH1 0x40 MLOAD DUP1 SWAP2 SUB SWAP1 REVERT JUMPDEST PUSH1 0x3 DUP4 PUSH1 0x40 MLOAD PUSH2 0x12BF SWAP2 SWAP1 PUSH2 0x4861 JUMP JUMPDEST SWAP1 DUP2 MSTORE PUSH1 0x20 ADD PUSH1 0x40 MLOAD DUP1 SWAP2 SUB SWAP1 KECCAK256 PUSH1 0x6 ADD PUSH0 SWAP1 SLOAD SWAP1 PUSH2 0x100 EXP SWAP1 DIV PUSH1 0xFF AND PUSH2 0x131C JUMPI PUSH1 0x40 MLOAD PUSH32 0x8C379A000000000000000000000000000000000000000000000000000000000 DUP2 MSTORE PUSH1 0x4 ADD PUSH2 0x1313 SWAP1 PUSH2 0x4A61 JUMP JUMPDEST PUSH1 0x40 MLOAD DUP1 SWAP2 SUB SWAP1 REVERT JUMPDEST PUSH0 PUSH1 0x1 PUSH0 CALLER PUSH20 0xFFFFFFFFFFFFFFFFFFFFFFFFFFFFFFFFFFFFFFFF AND PUSH20 0xFFFFFFFFFFFFFFFFFFFFFFFFFFFFFFFFFFFFFFFF AND DUP2 MSTORE PUSH1 0x20 ADD SWAP1 DUP2 MSTORE PUSH1 0x20 ADD PUSH0 KECCAK256 DUP1 SLOAD PUSH2 0x1365 SWAP1 PUSH2 0x472F JUMP JUMPDEST DUP1 PUSH1 0x1F ADD PUSH1 0x20 DUP1 SWAP2 DIV MUL PUSH1 0x20 ADD PUSH1 0x40 MLOAD SWAP1 DUP2 ADD PUSH1 0x40 MSTORE DUP1 SWAP3 SWAP2 SWAP1 DUP2 DUP2 MSTORE PUSH1 0x20 ADD DUP3 DUP1 SLOAD PUSH2 0x1391 SWAP1 PUSH2 0x472F JUMP JUMPDEST DUP1 ISZERO PUSH2 0x13DC JUMPI DUP1 PUSH1 0x1F LT PUSH2 0x13B3 JUMPI PUSH2 0x100 DUP1 DUP4 SLOAD DIV MUL DUP4 MSTORE SWAP2 PUSH1 0x20 ADD SWAP2 PUSH2 0x13DC JUMP JUMPDEST DUP3 ADD SWAP2 SWAP1 PUSH0 MSTORE PUSH1 0x20 PUSH0 KECCAK256 SWAP1 JUMPDEST DUP2 SLOAD DUP2 MSTORE SWAP1 PUSH1 0x1 ADD SWAP1 PUSH1 0x20 ADD DUP1 DUP4 GT PUSH2 0x13BF JUMPI DUP3 SWAP1 SUB PUSH1 0x1F AND DUP3 ADD SWAP2 JUMPDEST POP POP POP POP POP SWAP1 POP PUSH0 PUSH1 0x3 DUP6 PUSH1 0x40 MLOAD PUSH2 0x13F4 SWAP2 SWAP1 PUSH2 0x4861 JUMP JUMPDEST SWAP1 DUP2 MSTORE PUSH1 0x20 ADD PUSH1 0x40 MLOAD DUP1 SWAP2 SUB SWAP1 KECCAK256 PUSH1 0x4 ADD SLOAD DUP5 PUSH2 0x1411 SWAP2 SWAP1 PUSH2 0x4A7F JUMP JUMPDEST SWAP1 POP PUSH0 DUP8 DUP4 DUP9 DUP9 DUP9 DUP7 PUSH1 0x40 MLOAD PUSH1 0x20 ADD PUSH2 0x142F SWAP7 SWAP6 SWAP5 SWAP4 SWAP3 SWAP2 SWAP1 PUSH2 0x4AE0 JUMP JUMPDEST PUSH1 0x40 MLOAD PUSH1 0x20 DUP2 DUP4 SUB SUB DUP2 MSTORE SWAP1 PUSH1 0x40 MSTORE DUP1 MLOAD SWAP1 PUSH1 0x20 ADD KECCAK256 SWAP1 POP PUSH2 0x1452 DUP2 DUP6 CALLER PUSH2 0x310E JUMP JUMPDEST PUSH2 0x1491 JUMPI PUSH1 0x40 MLOAD PUSH32 0x8C379A000000000000000000000000000000000000000000000000000000000 DUP2 MSTORE PUSH1 0x4 ADD PUSH2 0x1488 SWAP1 PUSH2 0x4B89 JUMP JUMPDEST PUSH1 0x40 MLOAD DUP1 SWAP2 SUB SWAP1 REVERT JUMPDEST PUSH1 0x40 MLOAD DUP1 PUSH2 0x120 ADD PUSH1 0x40 MSTORE DUP1 DUP10 DUP2 MSTORE PUSH1 0x20 ADD DUP5 DUP2 MSTORE PUSH1 0x20 ADD DUP9 DUP2 MSTORE PUSH1 0x20 ADD DUP8 DUP2 MSTORE PUSH1 0x20 ADD DUP7 DUP2 MSTORE PUSH1 0x20 ADD DUP4 DUP2 MSTORE PUSH1 0x20 ADD PUSH0 PUSH1 0x2 DUP2 GT ISZERO PUSH2 0x14D4 JUMPI PUSH2 0x14D3 PUSH2 0x396C JUMP JUMPDEST JUMPDEST DUP2 MSTORE PUSH1 0x20 ADD TIMESTAMP DUP2 MSTORE PUSH1 0x20 ADD PUSH1 0x1 ISZERO ISZERO DUP2 MSTORE POP PUSH1 0x4 DUP10 PUSH1 0x40 MLOAD PUSH2 0x14F6 SWAP2 SWAP1 PUSH2 0x4861 JUMP JUMPDEST SWAP1 DUP2 MSTORE PUSH1 0x20 ADD PUSH1 0x40 MLOAD DUP1 SWAP2 SUB SWAP1 KECCAK256 PUSH0 DUP3 ADD MLOAD DUP2 PUSH0 ADD SWAP1 DUP2 PUSH2 0x1517 SWAP2 SWAP1 PUSH2 0x4D47 JUMP JUMPDEST POP PUSH1 0x20 DUP3 ADD MLOAD DUP2 PUSH1 0x1 ADD SWAP1 DUP2 PUSH2 0x152D SWAP2 SWAP1 PUSH2 0x4D47 JUMP JUMPDEST POP PUSH1 0x40 DUP3 ADD MLOAD DUP2 PUSH1 0x2 ADD SWAP1 DUP2 PUSH2 0x1543 SWAP2 SWAP1 PUSH2 0x4D47 JUMP JUMPDEST POP PUSH1 0x60 DUP3 ADD MLOAD DUP2 PUSH1 0x3 ADD SWAP1 DUP2 PUSH2 0x1559 SWAP2 SWAP1 PUSH2 0x4D47 JUMP JUMPDEST POP PUSH1 0x80 DUP3 ADD MLOAD DUP2 PUSH1 0x4 ADD SSTORE PUSH1 0xA0 DUP3 ADD MLOAD DUP2 PUSH1 0x5 ADD SSTORE PUSH1 0xC0 DUP3 ADD MLOAD DUP2 PUSH1 0x6 ADD PUSH0 PUSH2 0x100 EXP DUP2 SLOAD DUP2 PUSH1 0xFF MUL NOT AND SWAP1 DUP4 PUSH1 0x2 DUP2 GT ISZERO PUSH2 0x1598 JUMPI PUSH2 0x1597 PUSH2 0x396C JUMP JUMPDEST JUMPDEST MUL OR SWAP1 SSTORE POP PUSH1 0xE0 DUP3 ADD MLOAD DUP2 PUSH1 0x7 ADD SSTORE PUSH2 0x100 DUP3 ADD MLOAD DUP2 PUSH1 0x8 ADD PUSH0 PUSH2 0x100 EXP DUP2 SLOAD DUP2 PUSH1 0xFF MUL NOT AND SWAP1 DUP4 ISZERO ISZERO MUL OR SWAP1 SSTORE POP SWAP1 POP POP PUSH2 0x15F5 DUP2 PUSH1 0x2 DUP11 PUSH1 0x40 MLOAD PUSH1 0x20 ADD PUSH2 0x15E1 SWAP2 SWAP1 PUSH2 0x4E60 JUMP JUMPDEST PUSH1 0x40 MLOAD PUSH1 0x20 DUP2 DUP4 SUB SUB DUP2 MSTORE SWAP1 PUSH1 0x40 MSTORE PUSH2 0x317B JUMP JUMPDEST DUP8 PUSH1 0x40 MLOAD PUSH2 0x1603 SWAP2 SWAP1 PUSH2 0x4861 JUMP JUMPDEST PUSH1 0x40 MLOAD DUP1 SWAP2 SUB SWAP1 KECCAK256 PUSH32 0x8849A69CAE32E2CEE951CBE777BB31142FB780F1177465095B1418334A28C826 DUP5 DUP10 PUSH1 0x40 MLOAD PUSH2 0x163C SWAP3 SWAP2 SWAP1 PUSH2 0x4E81 JUMP JUMPDEST PUSH1 0x40 MLOAD DUP1 SWAP2 SUB SWAP1 LOG2 POP POP POP POP POP POP POP POP JUMP JUMPDEST PUSH1 0x1 PUSH1 0x20 MSTORE DUP1 PUSH0 MSTORE PUSH1 0x40 PUSH0 KECCAK256 PUSH0 SWAP2 POP SWAP1 POP DUP1 SLOAD PUSH2 0x166A SWAP1 PUSH2 0x472F JUMP JUMPDEST DUP1 PUSH1 0x1F ADD PUSH1 0x20 DUP1 SWAP2 DIV MUL PUSH1 0x20 ADD PUSH1 0x40 MLOAD SWAP1 DUP2 ADD PUSH1 0x40 MSTORE DUP1 SWAP3 SWAP2 SWAP1 DUP2 DUP2 MSTORE PUSH1 0x20 ADD DUP3 DUP1 SLOAD PUSH2 0x1696 SWAP1 PUSH2 0x472F JUMP JUMPDEST DUP1 ISZERO PUSH2 0x16E1 JUMPI DUP1 PUSH1 0x1F LT PUSH2 0x16B8 JUMPI PUSH2 0x100 DUP1 DUP4 SLOAD DIV MUL DUP4 MSTORE SWAP2 PUSH1 0x20 ADD SWAP2 PUSH2 0x16E1 JUMP JUMPDEST DUP3 ADD SWAP2 SWAP1 PUSH0 MSTORE PUSH1 0x20 PUSH0 KECCAK256 SWAP1 JUMPDEST DUP2 SLOAD DUP2 MSTORE SWAP1 PUSH1 0x1 ADD SWAP1 PUSH1 0x20 ADD DUP1 DUP4 GT PUSH2 0x16C4 JUMPI DUP3 SWAP1 SUB PUSH1 0x1F AND DUP3 ADD SWAP2 JUMPDEST POP POP POP POP POP DUP2 JUMP JUMPDEST PUSH0 PUSH1 0x1 PUSH0 CALLER PUSH20 0xFFFFFFFFFFFFFFFFFFFFFFFFFFFFFFFFFFFFFFFF AND PUSH20 0xFFFFFFFFFFFFFFFFFFFFFFFFFFFFFFFFFFFFFFFF AND DUP2 MSTORE PUSH1 0x20 ADD SWAP1 DUP2 MSTORE PUSH1 0x20 ADD PUSH0 KECCAK256 DUP1 SLOAD PUSH2 0x1732 SWAP1 PUSH2 0x472F JUMP JUMPDEST SWAP1 POP EQ PUSH2 0x1774 JUMPI PUSH1 0x40 MLOAD PUSH32 0x8C379A000000000000000000000000000000000000000000000000000000000 DUP2 MSTORE PUSH1 0x4 ADD PUSH2 0x176B SWAP1 PUSH2 0x4F00 JUMP JUMPDEST PUSH1 0x40 MLOAD DUP1 SWAP2 SUB SWAP1 REVERT JUMPDEST PUSH1 0x2 DUP7 PUSH1 0x40 MLOAD PUSH2 0x1784 SWAP2 SWAP1 PUSH2 0x4861 JUMP JUMPDEST SWAP1 DUP2 MSTORE PUSH1 0x20 ADD PUSH1 0x40 MLOAD DUP1 SWAP2 SUB SWAP1 KECCAK256 PUSH1 0x7 ADD PUSH0 SWAP1 SLOAD SWAP1 PUSH2 0x100 EXP SWAP1 DIV PUSH1 0xFF AND ISZERO PUSH2 0x17E2 JUMPI PUSH1 0x40 MLOAD PUSH32 0x8C379A000000000000000000000000000000000000000000000000000000000 DUP2 MSTORE PUSH1 0x4 ADD PUSH2 0x17D9 SWAP1 PUSH2 0x4F68 JUMP JUMPDEST PUSH1 0x40 MLOAD DUP1 SWAP2 SUB SWAP1 REVERT JUMPDEST PUSH0 DUP7 DUP7 DUP7 PUSH1 0x4 DUP2 GT ISZERO PUSH2 0x17F8 JUMPI PUSH2 0x17F7 PUSH2 0x396C JUMP JUMPDEST JUMPDEST DUP7 DUP7 CALLER PUSH1 0x40 MLOAD PUSH1 0x20 ADD PUSH2 0x1810 SWAP7 SWAP6 SWAP5 SWAP4 SWAP3 SWAP2 SWAP1 PUSH2 0x4FCB JUMP JUMPDEST PUSH1 0x40 MLOAD PUSH1 0x20 DUP2 DUP4 SUB SUB DUP2 MSTORE SWAP1 PUSH1 0x40 MSTORE DUP1 MLOAD SWAP1 PUSH1 0x20 ADD KECCAK256 SWAP1 POP PUSH2 0x1833 DUP2 DUP4 CALLER PUSH2 0x310E JUMP JUMPDEST PUSH2 0x1872 JUMPI PUSH1 0x40 MLOAD PUSH32 0x8C379A000000000000000000000000000000000000000000000000000000000 DUP2 MSTORE PUSH1 0x4 ADD PUSH2 0x1869 SWAP1 PUSH2 0x4B89 JUMP JUMPDEST PUSH1 0x40 MLOAD DUP1 SWAP2 SUB SWAP1 REVERT JUMPDEST PUSH1 0x40 MLOAD DUP1 PUSH2 0x100 ADD PUSH1 0x40 MSTORE DUP1 DUP9 DUP2 MSTORE PUSH1 0x20 ADD CALLER PUSH20 0xFFFFFFFFFFFFFFFFFFFFFFFFFFFFFFFFFFFFFFFF AND DUP2 MSTORE PUSH1 0x20 ADD DUP8 DUP2 MSTORE PUSH1 0x20 ADD DUP7 PUSH1 0x4 DUP2 GT ISZERO PUSH2 0x18B9 JUMPI PUSH2 0x18B8 PUSH2 0x396C JUMP JUMPDEST JUMPDEST DUP2 MSTORE PUSH1 0x20 ADD DUP6 DUP2 MSTORE PUSH1 0x20 ADD DUP5 DUP2 MSTORE PUSH1 0x20 ADD TIMESTAMP DUP2 MSTORE PUSH1 0x20 ADD PUSH1 0x1 ISZERO ISZERO DUP2 MSTORE POP PUSH1 0x2 DUP9 PUSH1 0x40 MLOAD PUSH2 0x18E7 SWAP2 SWAP1 PUSH2 0x4861 JUMP JUMPDEST SWAP1 DUP2 MSTORE PUSH1 0x20 ADD PUSH1 0x40 MLOAD DUP1 SWAP2 SUB SWAP1 KECCAK256 PUSH0 DUP3 ADD MLOAD DUP2 PUSH0 ADD SWAP1 DUP2 PUSH2 0x1908 SWAP2 SWAP1 PUSH2 0x4D47 JUMP JUMPDEST POP PUSH1 0x20 DUP3 ADD MLOAD DUP2 PUSH1 0x1 ADD PUSH0 PUSH2 0x100 EXP DUP2 SLOAD DUP2 PUSH20 0xFFFFFFFFFFFFFFFFFFFFFFFFFFFFFFFFFFFFFFFF MUL NOT AND SWAP1 DUP4 PUSH20 0xFFFFFFFFFFFFFFFFFFFFFFFFFFFFFFFFFFFFFFFF AND MUL OR SWAP1 SSTORE POP PUSH1 0x40 DUP3 ADD MLOAD DUP2 PUSH1 0x2 ADD SWAP1 DUP2 PUSH2 0x1964 SWAP2 SWAP1 PUSH2 0x4D47 JUMP JUMPDEST POP PUSH1 0x60 DUP3 ADD MLOAD DUP2 PUSH1 0x3 ADD PUSH0 PUSH2 0x100 EXP DUP2 SLOAD DUP2 PUSH1 0xFF MUL NOT AND SWAP1 DUP4 PUSH1 0x4 DUP2 GT ISZERO PUSH2 0x198F JUMPI PUSH2 0x198E PUSH2 0x396C JUMP JUMPDEST JUMPDEST MUL OR SWAP1 SSTORE POP PUSH1 0x80 DUP3 ADD MLOAD DUP2 PUSH1 0x4 ADD SWAP1 DUP2 PUSH2 0x19A9 SWAP2 SWAP1 PUSH2 0x4D47 JUMP JUMPDEST POP PUSH1 0xA0 DUP3 ADD MLOAD DUP2 PUSH1 0x5 ADD SWAP1 DUP2 PUSH2 0x19BF SWAP2 SWAP1 PUSH2 0x4D47 JUMP JUMPDEST POP PUSH1 0xC0 DUP3 ADD MLOAD DUP2 PUSH1 0x6 ADD SSTORE PUSH1 0xE0 DUP3 ADD MLOAD DUP2 PUSH1 0x7 ADD PUSH0 PUSH2 0x100 EXP DUP2 SLOAD DUP2 PUSH1 0xFF MUL NOT AND SWAP1 DUP4 ISZERO ISZERO MUL OR SWAP1 SSTORE POP SWAP1 POP POP DUP7 PUSH1 0x1 PUSH0 CALLER PUSH20 0xFFFFFFFFFFFFFFFFFFFFFFFFFFFFFFFFFFFFFFFF AND PUSH20 0xFFFFFFFFFFFFFFFFFFFFFFFFFFFFFFFFFFFFFFFF AND DUP2 MSTORE PUSH1 0x20 ADD SWAP1 DUP2 MSTORE PUSH1 0x20 ADD PUSH0 KECCAK256 SWAP1 DUP2 PUSH2 0x1A36 SWAP2 SWAP1 PUSH2 0x4D47 JUMP JUMPDEST POP PUSH2 0x1A61 DUP2 PUSH0 DUP10 PUSH1 0x40 MLOAD PUSH1 0x20 ADD PUSH2 0x1A4D SWAP2 SWAP1 PUSH2 0x5074 JUMP JUMPDEST PUSH1 0x40 MLOAD PUSH1 0x20 DUP2 DUP4 SUB SUB DUP2 MSTORE SWAP1 PUSH1 0x40 MSTORE PUSH2 0x317B JUMP JUMPDEST CALLER PUSH20 0xFFFFFFFFFFFFFFFFFFFFFFFFFFFFFFFFFFFFFFFF AND DUP8 PUSH1 0x40 MLOAD PUSH2 0x1A86 SWAP2 SWAP1 PUSH2 0x4861 JUMP JUMPDEST PUSH1 0x40 MLOAD DUP1 SWAP2 SUB SWAP1 KECCAK256 PUSH32 0x7F605D0FF47D2A070E456B69CE2A36041788910B64443C7F4C6D307993CADE2C PUSH1 0x40 MLOAD PUSH1 0x40 MLOAD DUP1 SWAP2 SUB SWAP1 LOG3 POP POP POP POP POP POP POP JUMP JUMPDEST PUSH1 0x60 DUP2 DUP4 GT ISZERO DUP1 ISZERO PUSH2 0x1AD6 JUMPI POP PUSH1 0x5 SLOAD DUP3 LT JUMPDEST PUSH2 0x1B15 JUMPI PUSH1 0x40 MLOAD PUSH32 0x8C379A000000000000000000000000000000000000000000000000000000000 DUP2 MSTORE PUSH1 0x4 ADD PUSH2 0x1B0C SWAP1 PUSH2 0x50DF JUMP JUMPDEST PUSH1 0x40 MLOAD DUP1 SWAP2 SUB SWAP1 REVERT JUMPDEST PUSH0 PUSH1 0x1 DUP5 DUP5 PUSH2 0x1B24 SWAP2 SWAP1 PUSH2 0x478C JUMP JUMPDEST PUSH2 0x1B2E SWAP2 SWAP1 PUSH2 0x50FD JUMP JUMPDEST SWAP1 POP PUSH0 DUP2 PUSH8 0xFFFFFFFFFFFFFFFF DUP2 GT ISZERO PUSH2 0x1B4B JUMPI PUSH2 0x1B4A PUSH2 0x363A JUMP JUMPDEST JUMPDEST PUSH1 0x40 MLOAD SWAP1 DUP1 DUP3 MSTORE DUP1 PUSH1 0x20 MUL PUSH1 0x20 ADD DUP3 ADD PUSH1 0x40 MSTORE DUP1 ISZERO PUSH2 0x1B84 JUMPI DUP2 PUSH1 0x20 ADD JUMPDEST PUSH2 0x1B71 PUSH2 0x3500 JUMP JUMPDEST DUP2 MSTORE PUSH1 0x20 ADD SWAP1 PUSH1 0x1 SWAP1 SUB SWAP1 DUP2 PUSH2 0x1B69 JUMPI SWAP1 POP JUMPDEST POP SWAP1 POP PUSH0 PUSH0 SWAP1 POP JUMPDEST DUP3 DUP2 LT ISZERO PUSH2 0x1D77 JUMPI PUSH0 PUSH0 DUP3 DUP9 PUSH2 0x1BA2 SWAP2 SWAP1 PUSH2 0x50FD JUMP JUMPDEST DUP2 MSTORE PUSH1 0x20 ADD SWAP1 DUP2 MSTORE PUSH1 0x20 ADD PUSH0 KECCAK256 PUSH1 0x40 MLOAD DUP1 PUSH2 0x100 ADD PUSH1 0x40 MSTORE SWAP1 DUP2 PUSH0 DUP3 ADD SLOAD DUP2 MSTORE PUSH1 0x20 ADD PUSH1 0x1 DUP3 ADD PUSH0 SWAP1 SLOAD SWAP1 PUSH2 0x100 EXP SWAP1 DIV PUSH20 0xFFFFFFFFFFFFFFFFFFFFFFFFFFFFFFFFFFFFFFFF AND PUSH20 0xFFFFFFFFFFFFFFFFFFFFFFFFFFFFFFFFFFFFFFFF AND PUSH20 0xFFFFFFFFFFFFFFFFFFFFFFFFFFFFFFFFFFFFFFFF AND DUP2 MSTORE PUSH1 0x20 ADD PUSH1 0x2 DUP3 ADD SLOAD DUP2 MSTORE PUSH1 0x20 ADD PUSH1 0x3 DUP3 ADD PUSH0 SWAP1 SLOAD SWAP1 PUSH2 0x100 EXP SWAP1 DIV PUSH1 0xFF AND PUSH1 0x4 DUP2 GT ISZERO PUSH2 0x1C47 JUMPI PUSH2 0x1C46 PUSH2 0x396C JUMP JUMPDEST JUMPDEST PUSH1 0x4 DUP2 GT ISZERO PUSH2 0x1C59 JUMPI PUSH2 0x1C58 PUSH2 0x396C JUMP JUMPDEST JUMPDEST DUP2 MSTORE PUSH1 0x20 ADD PUSH1 0x3 DUP3 ADD PUSH1 0x1 SWAP1 SLOAD SWAP1 PUSH2 0x100 EXP SWAP1 DIV PUSH1 0xFF AND PUSH1 0x2 DUP2 GT ISZERO PUSH2 0x1C82 JUMPI PUSH2 0x1C81 PUSH2 0x396C JUMP JUMPDEST JUMPDEST PUSH1 0x2 DUP2 GT ISZERO PUSH2 0x1C94 JUMPI PUSH2 0x1C93 PUSH2 0x396C JUMP JUMPDEST JUMPDEST DUP2 MSTORE PUSH1 0x20 ADD PUSH1 0x4 DUP3 ADD SLOAD DUP2 MSTORE PUSH1 0x20 ADD PUSH1 0x5 DUP3 ADD DUP1 SLOAD PUSH2 0x1CB2 SWAP1 PUSH2 0x472F JUMP JUMPDEST DUP1 PUSH1 0x1F ADD PUSH1 0x20 DUP1 SWAP2 DIV MUL PUSH1 0x20 ADD PUSH1 0x40 MLOAD SWAP1 DUP2 ADD PUSH1 0x40 MSTORE DUP1 SWAP3 SWAP2 SWAP1 DUP2 DUP2 MSTORE PUSH1 0x20 ADD DUP3 DUP1 SLOAD PUSH2 0x1CDE SWAP1 PUSH2 0x472F JUMP JUMPDEST DUP1 ISZERO PUSH2 0x1D29 JUMPI DUP1 PUSH1 0x1F LT PUSH2 0x1D00 JUMPI PUSH2 0x100 DUP1 DUP4 SLOAD DIV MUL DUP4 MSTORE SWAP2 PUSH1 0x20 ADD SWAP2 PUSH2 0x1D29 JUMP JUMPDEST DUP3 ADD SWAP2 SWAP1 PUSH0 MSTORE PUSH1 0x20 PUSH0 KECCAK256 SWAP1 JUMPDEST DUP2 SLOAD DUP2 MSTORE SWAP1 PUSH1 0x1 ADD SWAP1 PUSH1 0x20 ADD DUP1 DUP4 GT PUSH2 0x1D0C JUMPI DUP3 SWAP1 SUB PUSH1 0x1F AND DUP3 ADD SWAP2 JUMPDEST POP POP POP POP POP DUP2 MSTORE PUSH1 0x20 ADD PUSH1 0x6 DUP3 ADD PUSH0 SWAP1 SLOAD SWAP1 PUSH2 0x100 EXP SWAP1 DIV PUSH1 0xFF AND ISZERO ISZERO ISZERO ISZERO DUP2 MSTORE POP POP DUP3 DUP3 DUP2 MLOAD DUP2 LT PUSH2 0x1D5F JUMPI PUSH2 0x1D5E PUSH2 0x5130 JUMP JUMPDEST JUMPDEST PUSH1 0x20 MUL PUSH1 0x20 ADD ADD DUP2 SWAP1 MSTORE POP DUP1 DUP1 PUSH1 0x1 ADD SWAP2 POP POP PUSH2 0x1B8C JUMP JUMPDEST POP DUP1 SWAP3 POP POP POP SWAP3 SWAP2 POP POP JUMP JUMPDEST PUSH2 0x1D8B PUSH2 0x357A JUMP JUMPDEST PUSH1 0x3 DUP3 PUSH1 0x40 MLOAD PUSH2 0x1D9B SWAP2 SWAP1 PUSH2 0x4861 JUMP JUMPDEST SWAP1 DUP2 MSTORE PUSH1 0x20 ADD PUSH1 0x40 MLOAD DUP1 SWAP2 SUB SWAP1 KECCAK256 PUSH1 0x6 ADD PUSH0 SWAP1 SLOAD SWAP1 PUSH2 0x100 EXP SWAP1 DIV PUSH1 0xFF AND PUSH2 0x1DF8 JUMPI PUSH1 0x40 MLOAD PUSH32 0x8C379A000000000000000000000000000000000000000000000000000000000 DUP2 MSTORE PUSH1 0x4 ADD PUSH2 0x1DEF SWAP1 PUSH2 0x4A61 JUMP JUMPDEST PUSH1 0x40 MLOAD DUP1 SWAP2 SUB SWAP1 REVERT JUMPDEST PUSH1 0x3 DUP3 PUSH1 0x40 MLOAD PUSH2 0x1E08 SWAP2 SWAP1 PUSH2 0x4861 JUMP JUMPDEST SWAP1 DUP2 MSTORE PUSH1 0x20 ADD PUSH1 0x40 MLOAD DUP1 SWAP2 SUB SWAP1 KECCAK256 PUSH1 0x40 MLOAD DUP1 PUSH1 0xE0 ADD PUSH1 0x40 MSTORE SWAP1 DUP2 PUSH0 DUP3 ADD DUP1 SLOAD PUSH2 0x1E30 SWAP1 PUSH2 0x472F JUMP JUMPDEST DUP1 PUSH1 0x1F ADD PUSH1 0x20 DUP1 SWAP2 DIV MUL PUSH1 0x20 ADD PUSH1 0x40 MLOAD SWAP1 DUP2 ADD PUSH1 0x40 MSTORE DUP1 SWAP3 SWAP2 SWAP1 DUP2 DUP2 MSTORE PUSH1 0x20 ADD DUP3 DUP1 SLOAD PUSH2 0x1E5C SWAP1 PUSH2 0x472F JUMP JUMPDEST DUP1 ISZERO PUSH2 0x1EA7 JUMPI DUP1 PUSH1 0x1F LT PUSH2 0x1E7E JUMPI PUSH2 0x100 DUP1 DUP4 SLOAD DIV MUL DUP4 MSTORE SWAP2 PUSH1 0x20 ADD SWAP2 PUSH2 0x1EA7 JUMP JUMPDEST DUP3 ADD SWAP2 SWAP1 PUSH0 MSTORE PUSH1 0x20 PUSH0 KECCAK256 SWAP1 JUMPDEST DUP2 SLOAD DUP2 MSTORE SWAP1 PUSH1 0x1 ADD SWAP1 PUSH1 0x20 ADD DUP1 DUP4 GT PUSH2 0x1E8A JUMPI DUP3 SWAP1 SUB PUSH1 0x1F AND DUP3 ADD SWAP2 JUMPDEST POP POP POP POP POP DUP2 MSTORE PUSH1 0x20 ADD PUSH1 0x1 DUP3 ADD DUP1 SLOAD PUSH2 0x1EC0 SWAP1 PUSH2 0x472F JUMP JUMPDEST DUP1 PUSH1 0x1F ADD PUSH1 0x20 DUP1 SWAP2 DIV MUL PUSH1 0x20 ADD PUSH1 0x40 MLOAD SWAP1 DUP2 ADD PUSH1 0x40 MSTORE DUP1 SWAP3 SWAP2 SWAP1 DUP2 DUP2 MSTORE PUSH1 0x20 ADD DUP3 DUP1 SLOAD PUSH2 0x1EEC SWAP1 PUSH2 0x472F JUMP JUMPDEST DUP1 ISZERO PUSH2 0x1F37 JUMPI DUP1 PUSH1 0x1F LT PUSH2 0x1F0E JUMPI PUSH2 0x100 DUP1 DUP4 SLOAD DIV MUL DUP4 MSTORE SWAP2 PUSH1 0x20 ADD SWAP2 PUSH2 0x1F37 JUMP JUMPDEST DUP3 ADD SWAP2 SWAP1 PUSH0 MSTORE PUSH1 0x20 PUSH0 KECCAK256 SWAP1 JUMPDEST DUP2 SLOAD DUP2 MSTORE SWAP1 PUSH1 0x1 ADD SWAP1 PUSH1 0x20 ADD DUP1 DUP4 GT PUSH2 0x1F1A JUMPI DUP3 SWAP1 SUB PUSH1 0x1F AND DUP3 ADD SWAP2 JUMPDEST POP POP POP POP POP DUP2 MSTORE PUSH1 0x20 ADD PUSH1 0x2 DUP3 ADD DUP1 SLOAD PUSH2 0x1F50 SWAP1 PUSH2 0x472F JUMP JUMPDEST DUP1 PUSH1 0x1F ADD PUSH1 0x20 DUP1 SWAP2 DIV MUL PUSH1 0x20 ADD PUSH1 0x40 MLOAD SWAP1 DUP2 ADD PUSH1 0x40 MSTORE DUP1 SWAP3 SWAP2 SWAP1 DUP2 DUP2 MSTORE PUSH1 0x20 ADD DUP3 DUP1 SLOAD PUSH2 0x1F7C SWAP1 PUSH2 0x472F JUMP JUMPDEST DUP1 ISZERO PUSH2 0x1FC7 JUMPI DUP1 PUSH1 0x1F LT PUSH2 0x1F9E JUMPI PUSH2 0x100 DUP1 DUP4 SLOAD DIV MUL DUP4 MSTORE SWAP2 PUSH1 0x20 ADD SWAP2 PUSH2 0x1FC7 JUMP JUMPDEST DUP3 ADD SWAP2 SWAP1 PUSH0 MSTORE PUSH1 0x20 PUSH0 KECCAK256 SWAP1 JUMPDEST DUP2 SLOAD DUP2 MSTORE SWAP1 PUSH1 0x1 ADD SWAP1 PUSH1 0x20 ADD DUP1 DUP4 GT PUSH2 0x1FAA JUMPI DUP3 SWAP1 SUB PUSH1 0x1F AND DUP3 ADD SWAP2 JUMPDEST POP POP POP POP POP DUP2 MSTORE PUSH1 0x20 ADD PUSH1 0x3 DUP3 ADD DUP1 SLOAD PUSH2 0x1FE0 SWAP1 PUSH2 0x472F JUMP JUMPDEST DUP1 PUSH1 0x1F ADD PUSH1 0x20 DUP1 SWAP2 DIV MUL PUSH1 0x20 ADD PUSH1 0x40 MLOAD SWAP1 DUP2 ADD PUSH1 0x40 MSTORE DUP1 SWAP3 SWAP2 SWAP1 DUP2 DUP2 MSTORE PUSH1 0x20 ADD DUP3 DUP1 SLOAD PUSH2 0x200C SWAP1 PUSH2 0x472F JUMP JUMPDEST DUP1 ISZERO PUSH2 0x2057 JUMPI DUP1 PUSH1 0x1F LT PUSH2 0x202E JUMPI PUSH2 0x100 DUP1 DUP4 SLOAD DIV MUL DUP4 MSTORE SWAP2 PUSH1 0x20 ADD SWAP2 PUSH2 0x2057 JUMP JUMPDEST DUP3 ADD SWAP2 SWAP1 PUSH0 MSTORE PUSH1 0x20 PUSH0 KECCAK256 SWAP1 JUMPDEST DUP2 SLOAD DUP2 MSTORE SWAP1 PUSH1 0x1 ADD SWAP1 PUSH1 0x20 ADD DUP1 DUP4 GT PUSH2 0x203A JUMPI DUP3 SWAP1 SUB PUSH1 0x1F AND DUP3 ADD SWAP2 JUMPDEST POP POP POP POP POP DUP2 MSTORE PUSH1 0x20 ADD PUSH1 0x4 DUP3 ADD SLOAD DUP2 MSTORE PUSH1 0x20 ADD PUSH1 0x5 DUP3 ADD SLOAD DUP2 MSTORE PUSH1 0x20 ADD PUSH1 0x6 DUP3 ADD PUSH0 SWAP1 SLOAD SWAP1 PUSH2 0x100 EXP SWAP1 DIV PUSH1 0xFF AND ISZERO ISZERO ISZERO ISZERO DUP2 MSTORE POP POP SWAP1 POP SWAP2 SWAP1 POP JUMP JUMPDEST PUSH1 0x2 DUP2 DUP1 MLOAD PUSH1 0x20 DUP2 ADD DUP3 ADD DUP1 MLOAD DUP5 DUP3 MSTORE PUSH1 0x20 DUP4 ADD PUSH1 0x20 DUP6 ADD KECCAK256 DUP2 DUP4 MSTORE DUP1 SWAP6 POP POP POP POP POP POP PUSH0 SWAP2 POP SWAP1 POP DUP1 PUSH0 ADD DUP1 SLOAD PUSH2 0x20CC SWAP1 PUSH2 0x472F JUMP JUMPDEST DUP1 PUSH1 0x1F ADD PUSH1 0x20 DUP1 SWAP2 DIV MUL PUSH1 0x20 ADD PUSH1 0x40 MLOAD SWAP1 DUP2 ADD PUSH1 0x40 MSTORE DUP1 SWAP3 SWAP2 SWAP1 DUP2 DUP2 MSTORE PUSH1 0x20 ADD DUP3 DUP1 SLOAD PUSH2 0x20F8 SWAP1 PUSH2 0x472F JUMP JUMPDEST DUP1 ISZERO PUSH2 0x2143 JUMPI DUP1 PUSH1 0x1F LT PUSH2 0x211A JUMPI PUSH2 0x100 DUP1 DUP4 SLOAD DIV MUL DUP4 MSTORE SWAP2 PUSH1 0x20 ADD SWAP2 PUSH2 0x2143 JUMP JUMPDEST DUP3 ADD SWAP2 SWAP1 PUSH0 MSTORE PUSH1 0x20 PUSH0 KECCAK256 SWAP1 JUMPDEST DUP2 SLOAD DUP2 MSTORE SWAP1 PUSH1 0x1 ADD SWAP1 PUSH1 0x20 ADD DUP1 DUP4 GT PUSH2 0x2126 JUMPI DUP3 SWAP1 SUB PUSH1 0x1F AND DUP3 ADD SWAP2 JUMPDEST POP POP POP POP POP SWAP1 DUP1 PUSH1 0x1 ADD PUSH0 SWAP1 SLOAD SWAP1 PUSH2 0x100 EXP SWAP1 DIV PUSH20 0xFFFFFFFFFFFFFFFFFFFFFFFFFFFFFFFFFFFFFFFF AND SWAP1 DUP1 PUSH1 0x2 ADD DUP1 SLOAD PUSH2 0x217D SWAP1 PUSH2 0x472F JUMP JUMPDEST DUP1 PUSH1 0x1F ADD PUSH1 0x20 DUP1 SWAP2 DIV MUL PUSH1 0x20 ADD PUSH1 0x40 MLOAD SWAP1 DUP2 ADD PUSH1 0x40 MSTORE DUP1 SWAP3 SWAP2 SWAP1 DUP2 DUP2 MSTORE PUSH1 0x20 ADD DUP3 DUP1 SLOAD PUSH2 0x21A9 SWAP1 PUSH2 0x472F JUMP JUMPDEST DUP1 ISZERO PUSH2 0x21F4 JUMPI DUP1 PUSH1 0x1F LT PUSH2 0x21CB JUMPI PUSH2 0x100 DUP1 DUP4 SLOAD DIV MUL DUP4 MSTORE SWAP2 PUSH1 0x20 ADD SWAP2 PUSH2 0x21F4 JUMP JUMPDEST DUP3 ADD SWAP2 SWAP1 PUSH0 MSTORE PUSH1 0x20 PUSH0 KECCAK256 SWAP1 JUMPDEST DUP2 SLOAD DUP2 MSTORE SWAP1 PUSH1 0x1 ADD SWAP1 PUSH1 0x20 ADD DUP1 DUP4 GT PUSH2 0x21D7 JUMPI DUP3 SWAP1 SUB PUSH1 0x1F AND DUP3 ADD SWAP2 JUMPDEST POP POP POP POP POP SWAP1 DUP1 PUSH1 0x3 ADD PUSH0 SWAP1 SLOAD SWAP1 PUSH2 0x100 EXP SWAP1 DIV PUSH1 0xFF AND SWAP1 DUP1 PUSH1 0x4 ADD DUP1 SLOAD PUSH2 0x221B SWAP1 PUSH2 0x472F JUMP JUMPDEST DUP1 PUSH1 0x1F ADD PUSH1 0x20 DUP1 SWAP2 DIV MUL PUSH1 0x20 ADD PUSH1 0x40 MLOAD SWAP1 DUP2 ADD PUSH1 0x40 MSTORE DUP1 SWAP3 SWAP2 SWAP1 DUP2 DUP2 MSTORE PUSH1 0x20 ADD DUP3 DUP1 SLOAD PUSH2 0x2247 SWAP1 PUSH2 0x472F JUMP JUMPDEST DUP1 ISZERO PUSH2 0x2292 JUMPI DUP1 PUSH1 0x1F LT PUSH2 0x2269 JUMPI PUSH2 0x100 DUP1 DUP4 SLOAD DIV MUL DUP4 MSTORE SWAP2 PUSH1 0x20 ADD SWAP2 PUSH2 0x2292 JUMP JUMPDEST DUP3 ADD SWAP2 SWAP1 PUSH0 MSTORE PUSH1 0x20 PUSH0 KECCAK256 SWAP1 JUMPDEST DUP2 SLOAD DUP2 MSTORE SWAP1 PUSH1 0x1 ADD SWAP1 PUSH1 0x20 ADD DUP1 DUP4 GT PUSH2 0x2275 JUMPI DUP3 SWAP1 SUB PUSH1 0x1F AND DUP3 ADD SWAP2 JUMPDEST POP POP POP POP POP SWAP1 DUP1 PUSH1 0x5 ADD DUP1 SLOAD PUSH2 0x22A7 SWAP1 PUSH2 0x472F JUMP JUMPDEST DUP1 PUSH1 0x1F ADD PUSH1 0x20 DUP1 SWAP2 DIV MUL PUSH1 0x20 ADD PUSH1 0x40 MLOAD SWAP1 DUP2 ADD PUSH1 0x40 MSTORE DUP1 SWAP3 SWAP2 SWAP1 DUP2 DUP2 MSTORE PUSH1 0x20 ADD DUP3 DUP1 SLOAD PUSH2 0x22D3 SWAP1 PUSH2 0x472F JUMP JUMPDEST DUP1 ISZERO PUSH2 0x231E JUMPI DUP1 PUSH1 0x1F LT PUSH2 0x22F5 JUMPI PUSH2 0x100 DUP1 DUP4 SLOAD DIV MUL DUP4 MSTORE SWAP2 PUSH1 0x20 ADD SWAP2 PUSH2 0x231E JUMP JUMPDEST DUP3 ADD SWAP2 SWAP1 PUSH0 MSTORE PUSH1 0x20 PUSH0 KECCAK256 SWAP1 JUMPDEST DUP2 SLOAD DUP2 MSTORE SWAP1 PUSH1 0x1 ADD SWAP1 PUSH1 0x20 ADD DUP1 DUP4 GT PUSH2 0x2301 JUMPI DUP3 SWAP1 SUB PUSH1 0x1F AND DUP3 ADD SWAP2 JUMPDEST POP POP POP POP POP SWAP1 DUP1 PUSH1 0x6 ADD SLOAD SWAP1 DUP1 PUSH1 0x7 ADD PUSH0 SWAP1 SLOAD SWAP1 PUSH2 0x100 EXP SWAP1 DIV PUSH1 0xFF AND SWAP1 POP DUP9 JUMP JUMPDEST PUSH2 0x2348 PUSH2 0x35B6 JUMP JUMPDEST PUSH1 0x4 DUP3 PUSH1 0x40 MLOAD PUSH2 0x2358 SWAP2 SWAP1 PUSH2 0x4861 JUMP JUMPDEST SWAP1 DUP2 MSTORE PUSH1 0x20 ADD PUSH1 0x40 MLOAD DUP1 SWAP2 SUB SWAP1 KECCAK256 PUSH1 0x8 ADD PUSH0 SWAP1 SLOAD SWAP1 PUSH2 0x100 EXP SWAP1 DIV PUSH1 0xFF AND PUSH2 0x23B5 JUMPI PUSH1 0x40 MLOAD PUSH32 0x8C379A000000000000000000000000000000000000000000000000000000000 DUP2 MSTORE PUSH1 0x4 ADD PUSH2 0x23AC SWAP1 PUSH2 0x51A7 JUMP JUMPDEST PUSH1 0x40 MLOAD DUP1 SWAP2 SUB SWAP1 REVERT JUMPDEST PUSH1 0x4 DUP3 PUSH1 0x40 MLOAD PUSH2 0x23C5 SWAP2 SWAP1 PUSH2 0x4861 JUMP JUMPDEST SWAP1 DUP2 MSTORE PUSH1 0x20 ADD PUSH1 0x40 MLOAD DUP1 SWAP2 SUB SWAP1 KECCAK256 PUSH1 0x40 MLOAD DUP1 PUSH2 0x120 ADD PUSH1 0x40 MSTORE SWAP1 DUP2 PUSH0 DUP3 ADD DUP1 SLOAD PUSH2 0x23EE SWAP1 PUSH2 0x472F JUMP JUMPDEST DUP1 PUSH1 0x1F ADD PUSH1 0x20 DUP1 SWAP2 DIV MUL PUSH1 0x20 ADD PUSH1 0x40 MLOAD SWAP1 DUP2 ADD PUSH1 0x40 MSTORE DUP1 SWAP3 SWAP2 SWAP1 DUP2 DUP2 MSTORE PUSH1 0x20 ADD DUP3 DUP1 SLOAD PUSH2 0x241A SWAP1 PUSH2 0x472F JUMP JUMPDEST DUP1 ISZERO PUSH2 0x2465 JUMPI DUP1 PUSH1 0x1F LT PUSH2 0x243C JUMPI PUSH2 0x100 DUP1 DUP4 SLOAD DIV MUL DUP4 MSTORE SWAP2 PUSH1 0x20 ADD SWAP2 PUSH2 0x2465 JUMP JUMPDEST DUP3 ADD SWAP2 SWAP1 PUSH0 MSTORE PUSH1 0x20 PUSH0 KECCAK256 SWAP1 JUMPDEST DUP2 SLOAD DUP2 MSTORE SWAP1 PUSH1 0x1 ADD SWAP1 PUSH1 0x20 ADD DUP1 DUP4 GT PUSH2 0x2448 JUMPI DUP3 SWAP1 SUB PUSH1 0x1F AND DUP3 ADD SWAP2 JUMPDEST POP POP POP POP POP DUP2 MSTORE PUSH1 0x20 ADD PUSH1 0x1 DUP3 ADD DUP1 SLOAD PUSH2 0x247E SWAP1 PUSH2 0x472F JUMP JUMPDEST DUP1 PUSH1 0x1F ADD PUSH1 0x20 DUP1 SWAP2 DIV MUL PUSH1 0x20 ADD PUSH1 0x40 MLOAD SWAP1 DUP2 ADD PUSH1 0x40 MSTORE DUP1 SWAP3 SWAP2 SWAP1 DUP2 DUP2 MSTORE PUSH1 0x20 ADD DUP3 DUP1 SLOAD PUSH2 0x24AA SWAP1 PUSH2 0x472F JUMP JUMPDEST DUP1 ISZERO PUSH2 0x24F5 JUMPI DUP1 PUSH1 0x1F LT PUSH2 0x24CC JUMPI PUSH2 0x100 DUP1 DUP4 SLOAD DIV MUL DUP4 MSTORE SWAP2 PUSH1 0x20 ADD SWAP2 PUSH2 0x24F5 JUMP JUMPDEST DUP3 ADD SWAP2 SWAP1 PUSH0 MSTORE PUSH1 0x20 PUSH0 KECCAK256 SWAP1 JUMPDEST DUP2 SLOAD DUP2 MSTORE SWAP1 PUSH1 0x1 ADD SWAP1 PUSH1 0x20 ADD DUP1 DUP4 GT PUSH2 0x24D8 JUMPI DUP3 SWAP1 SUB PUSH1 0x1F AND DUP3 ADD SWAP2 JUMPDEST POP POP POP POP POP DUP2 MSTORE PUSH1 0x20 ADD PUSH1 0x2 DUP3 ADD DUP1 SLOAD PUSH2 0x250E SWAP1 PUSH2 0x472F JUMP JUMPDEST DUP1 PUSH1 0x1F ADD PUSH1 0x20 DUP1 SWAP2 DIV MUL PUSH1 0x20 ADD PUSH1 0x40 MLOAD SWAP1 DUP2 ADD PUSH1 0x40 MSTORE DUP1 SWAP3 SWAP2 SWAP1 DUP2 DUP2 MSTORE PUSH1 0x20 ADD DUP3 DUP1 SLOAD PUSH2 0x253A SWAP1 PUSH2 0x472F JUMP JUMPDEST DUP1 ISZERO PUSH2 0x2585 JUMPI DUP1 PUSH1 0x1F LT PUSH2 0x255C JUMPI PUSH2 0x100 DUP1 DUP4 SLOAD DIV MUL DUP4 MSTORE SWAP2 PUSH1 0x20 ADD SWAP2 PUSH2 0x2585 JUMP JUMPDEST DUP3 ADD SWAP2 SWAP1 PUSH0 MSTORE PUSH1 0x20 PUSH0 KECCAK256 SWAP1 JUMPDEST DUP2 SLOAD DUP2 MSTORE SWAP1 PUSH1 0x1 ADD SWAP1 PUSH1 0x20 ADD DUP1 DUP4 GT PUSH2 0x2568 JUMPI DUP3 SWAP1 SUB PUSH1 0x1F AND DUP3 ADD SWAP2 JUMPDEST POP POP POP POP POP DUP2 MSTORE PUSH1 0x20 ADD PUSH1 0x3 DUP3 ADD DUP1 SLOAD PUSH2 0x259E SWAP1 PUSH2 0x472F JUMP JUMPDEST DUP1 PUSH1 0x1F ADD PUSH1 0x20 DUP1 SWAP2 DIV MUL PUSH1 0x20 ADD PUSH1 0x40 MLOAD SWAP1 DUP2 ADD PUSH1 0x40 MSTORE DUP1 SWAP3 SWAP2 SWAP1 DUP2 DUP2 MSTORE PUSH1 0x20 ADD DUP3 DUP1 SLOAD PUSH2 0x25CA SWAP1 PUSH2 0x472F JUMP JUMPDEST DUP1 ISZERO PUSH2 0x2615 JUMPI DUP1 PUSH1 0x1F LT PUSH2 0x25EC JUMPI PUSH2 0x100 DUP1 DUP4 SLOAD DIV MUL DUP4 MSTORE SWAP2 PUSH1 0x20 ADD SWAP2 PUSH2 0x2615 JUMP JUMPDEST DUP3 ADD SWAP2 SWAP1 PUSH0 MSTORE PUSH1 0x20 PUSH0 KECCAK256 SWAP1 JUMPDEST DUP2 SLOAD DUP2 MSTORE SWAP1 PUSH1 0x1 ADD SWAP1 PUSH1 0x20 ADD DUP1 DUP4 GT PUSH2 0x25F8 JUMPI DUP3 SWAP1 SUB PUSH1 0x1F AND DUP3 ADD SWAP2 JUMPDEST POP POP POP POP POP DUP2 MSTORE PUSH1 0x20 ADD PUSH1 0x4 DUP3 ADD SLOAD DUP2 MSTORE PUSH1 0x20 ADD PUSH1 0x5 DUP3 ADD SLOAD DUP2 MSTORE PUSH1 0x20 ADD PUSH1 0x6 DUP3 ADD PUSH0 SWAP1 SLOAD SWAP1 PUSH2 0x100 EXP SWAP1 DIV PUSH1 0xFF AND PUSH1 0x2 DUP2 GT ISZERO PUSH2 0x2656 JUMPI PUSH2 0x2655 PUSH2 0x396C JUMP JUMPDEST JUMPDEST PUSH1 0x2 DUP2 GT ISZERO PUSH2 0x2668 JUMPI PUSH2 0x2667 PUSH2 0x396C JUMP JUMPDEST JUMPDEST DUP2 MSTORE PUSH1 0x20 ADD PUSH1 0x7 DUP3 ADD SLOAD DUP2 MSTORE PUSH1 0x20 ADD PUSH1 0x8 DUP3 ADD PUSH0 SWAP1 SLOAD SWAP1 PUSH2 0x100 EXP SWAP1 DIV PUSH1 0xFF AND ISZERO ISZERO ISZERO ISZERO DUP2 MSTORE POP POP SWAP1 POP SWAP2 SWAP1 POP JUMP JUMPDEST PUSH0 PUSH0 PUSH0 DUP5 DUP2 MSTORE PUSH1 0x20 ADD SWAP1 DUP2 MSTORE PUSH1 0x20 ADD PUSH0 KECCAK256 PUSH1 0x6 ADD PUSH0 SWAP1 SLOAD SWAP1 PUSH2 0x100 EXP SWAP1 DIV PUSH1 0xFF AND PUSH2 0x26F7 JUMPI PUSH1 0x40 MLOAD PUSH32 0x8C379A000000000000000000000000000000000000000000000000000000000 DUP2 MSTORE PUSH1 0x4 ADD PUSH2 0x26EE SWAP1 PUSH2 0x48C1 JUMP JUMPDEST PUSH1 0x40 MLOAD DUP1 SWAP2 SUB SWAP1 REVERT JUMPDEST DUP2 PUSH0 PUSH0 DUP6 DUP2 MSTORE PUSH1 0x20 ADD SWAP1 DUP2 MSTORE PUSH1 0x20 ADD PUSH0 KECCAK256 PUSH1 0x2 ADD SLOAD EQ SWAP1 POP SWAP3 SWAP2 POP POP JUMP JUMPDEST PUSH0 PUSH1 0x1 PUSH0 CALLER PUSH20 0xFFFFFFFFFFFFFFFFFFFFFFFFFFFFFFFFFFFFFFFF AND PUSH20 0xFFFFFFFFFFFFFFFFFFFFFFFFFFFFFFFFFFFFFFFF AND DUP2 MSTORE PUSH1 0x20 ADD SWAP1 DUP2 MSTORE PUSH1 0x20 ADD PUSH0 KECCAK256 DUP1 SLOAD PUSH2 0x275E SWAP1 PUSH2 0x472F JUMP JUMPDEST SWAP1 POP GT PUSH2 0x27A0 JUMPI PUSH1 0x40 MLOAD PUSH32 0x8C379A000000000000000000000000000000000000000000000000000000000 DUP2 MSTORE PUSH1 0x4 ADD PUSH2 0x2797 SWAP1 PUSH2 0x4929 JUMP JUMPDEST PUSH1 0x40 MLOAD DUP1 SWAP2 SUB SWAP1 REVERT JUMPDEST PUSH1 0x3 DUP6 PUSH1 0x40 MLOAD PUSH2 0x27B0 SWAP2 SWAP1 PUSH2 0x4861 JUMP JUMPDEST SWAP1 DUP2 MSTORE PUSH1 0x20 ADD PUSH1 0x40 MLOAD DUP1 SWAP2 SUB SWAP1 KECCAK256 PUSH1 0x6 ADD PUSH0 SWAP1 SLOAD SWAP1 PUSH2 0x100 EXP SWAP1 DIV PUSH1 0xFF AND ISZERO PUSH2 0x280E JUMPI PUSH1 0x40 MLOAD PUSH32 0x8C379A000000000000000000000000000000000000000000000000000000000 DUP2 MSTORE PUSH1 0x4 ADD PUSH2 0x2805 SWAP1 PUSH2 0x520F JUMP JUMPDEST PUSH1 0x40 MLOAD DUP1 SWAP2 SUB SWAP1 REVERT JUMPDEST PUSH1 0x1 PUSH1 0x4 DUP2 GT ISZERO PUSH2 0x2822 JUMPI PUSH2 0x2821 PUSH2 0x396C JUMP JUMPDEST JUMPDEST PUSH1 0x2 PUSH1 0x1 PUSH0 CALLER PUSH20 0xFFFFFFFFFFFFFFFFFFFFFFFFFFFFFFFFFFFFFFFF AND PUSH20 0xFFFFFFFFFFFFFFFFFFFFFFFFFFFFFFFFFFFFFFFF AND DUP2 MSTORE PUSH1 0x20 ADD SWAP1 DUP2 MSTORE PUSH1 0x20 ADD PUSH0 KECCAK256 PUSH1 0x40 MLOAD PUSH2 0x286E SWAP2 SWAP1 PUSH2 0x52AD JUMP JUMPDEST SWAP1 DUP2 MSTORE PUSH1 0x20 ADD PUSH1 0x40 MLOAD DUP1 SWAP2 SUB SWAP1 KECCAK256 PUSH1 0x3 ADD PUSH0 SWAP1 SLOAD SWAP1 PUSH2 0x100 EXP SWAP1 DIV PUSH1 0xFF AND PUSH1 0x4 DUP2 GT ISZERO PUSH2 0x289E JUMPI PUSH2 0x289D PUSH2 0x396C JUMP JUMPDEST JUMPDEST EQ PUSH2 0x28DE JUMPI PUSH1 0x40 MLOAD PUSH32 0x8C379A000000000000000000000000000000000000000000000000000000000 DUP2 MSTORE PUSH1 0x4 ADD PUSH2 0x28D5 SWAP1 PUSH2 0x5333 JUMP JUMPDEST PUSH1 0x40 MLOAD DUP1 SWAP2 SUB SWAP1 REVERT JUMPDEST PUSH0 PUSH1 0x1 PUSH0 CALLER PUSH20 0xFFFFFFFFFFFFFFFFFFFFFFFFFFFFFFFFFFFFFFFF AND PUSH20 0xFFFFFFFFFFFFFFFFFFFFFFFFFFFFFFFFFFFFFFFF AND DUP2 MSTORE PUSH1 0x20 ADD SWAP1 DUP2 MSTORE PUSH1 0x20 ADD PUSH0 KECCAK256 DUP1 SLOAD PUSH2 0x2927 SWAP1 PUSH2 0x472F JUMP JUMPDEST DUP1 PUSH1 0x1F ADD PUSH1 0x20 DUP1 SWAP2 DIV MUL PUSH1 0x20 ADD PUSH1 0x40 MLOAD SWAP1 DUP2 ADD PUSH1 0x40 MSTORE DUP1 SWAP3 SWAP2 SWAP1 DUP2 DUP2 MSTORE PUSH1 0x20 ADD DUP3 DUP1 SLOAD PUSH2 0x2953 SWAP1 PUSH2 0x472F JUMP JUMPDEST DUP1 ISZERO PUSH2 0x299E JUMPI DUP1 PUSH1 0x1F LT PUSH2 0x2975 JUMPI PUSH2 0x100 DUP1 DUP4 SLOAD DIV MUL DUP4 MSTORE SWAP2 PUSH1 0x20 ADD SWAP2 PUSH2 0x299E JUMP JUMPDEST DUP3 ADD SWAP2 SWAP1 PUSH0 MSTORE PUSH1 0x20 PUSH0 KECCAK256 SWAP1 JUMPDEST DUP2 SLOAD DUP2 MSTORE SWAP1 PUSH1 0x1 ADD SWAP1 PUSH1 0x20 ADD DUP1 DUP4 GT PUSH2 0x2981 JUMPI DUP3 SWAP1 SUB PUSH1 0x1F AND DUP3 ADD SWAP2 JUMPDEST POP POP POP POP POP SWAP1 POP PUSH0 DUP7 DUP7 DUP7 DUP5 DUP8 PUSH1 0x40 MLOAD PUSH1 0x20 ADD PUSH2 0x29BF SWAP6 SWAP5 SWAP4 SWAP3 SWAP2 SWAP1 PUSH2 0x5351 JUMP JUMPDEST PUSH1 0x40 MLOAD PUSH1 0x20 DUP2 DUP4 SUB SUB DUP2 MSTORE SWAP1 PUSH1 0x40 MSTORE DUP1 MLOAD SWAP1 PUSH1 0x20 ADD KECCAK256 SWAP1 POP PUSH2 0x29E2 DUP2 DUP5 CALLER PUSH2 0x310E JUMP JUMPDEST PUSH2 0x2A21 JUMPI PUSH1 0x40 MLOAD PUSH32 0x8C379A000000000000000000000000000000000000000000000000000000000 DUP2 MSTORE PUSH1 0x4 ADD PUSH2 0x2A18 SWAP1 PUSH2 0x4B89 JUMP JUMPDEST PUSH1 0x40 MLOAD DUP1 SWAP2 SUB SWAP1 REVERT JUMPDEST PUSH1 0x40 MLOAD DUP1 PUSH1 0xE0 ADD PUSH1 0x40 MSTORE DUP1 DUP9 DUP2 MSTORE PUSH1 0x20 ADD DUP8 DUP2 MSTORE PUSH1 0x20 ADD DUP7 DUP2 MSTORE PUSH1 0x20 ADD DUP4 DUP2 MSTORE PUSH1 0x20 ADD DUP6 DUP2 MSTORE PUSH1 0x20 ADD TIMESTAMP DUP2 MSTORE PUSH1 0x20 ADD PUSH1 0x1 ISZERO ISZERO DUP2 MSTORE POP PUSH1 0x3 DUP9 PUSH1 0x40 MLOAD PUSH2 0x2A67 SWAP2 SWAP1 PUSH2 0x4861 JUMP JUMPDEST SWAP1 DUP2 MSTORE PUSH1 0x20 ADD PUSH1 0x40 MLOAD DUP1 SWAP2 SUB SWAP1 KECCAK256 PUSH0 DUP3 ADD MLOAD DUP2 PUSH0 ADD SWAP1 DUP2 PUSH2 0x2A88 SWAP2 SWAP1 PUSH2 0x4D47 JUMP JUMPDEST POP PUSH1 0x20 DUP3 ADD MLOAD DUP2 PUSH1 0x1 ADD SWAP1 DUP2 PUSH2 0x2A9E SWAP2 SWAP1 PUSH2 0x4D47 JUMP JUMPDEST POP PUSH1 0x40 DUP3 ADD MLOAD DUP2 PUSH1 0x2 ADD SWAP1 DUP2 PUSH2 0x2AB4 SWAP2 SWAP1 PUSH2 0x4D47 JUMP JUMPDEST POP PUSH1 0x60 DUP3 ADD MLOAD DUP2 PUSH1 0x3 ADD SWAP1 DUP2 PUSH2 0x2ACA SWAP2 SWAP1 PUSH2 0x4D47 JUMP JUMPDEST POP PUSH1 0x80 DUP3 ADD MLOAD DUP2 PUSH1 0x4 ADD SSTORE PUSH1 0xA0 DUP3 ADD MLOAD DUP2 PUSH1 0x5 ADD SSTORE PUSH1 0xC0 DUP3 ADD MLOAD DUP2 PUSH1 0x6 ADD PUSH0 PUSH2 0x100 EXP DUP2 SLOAD DUP2 PUSH1 0xFF MUL NOT AND SWAP1 DUP4 ISZERO ISZERO MUL OR SWAP1 SSTORE POP SWAP1 POP POP PUSH2 0x2B2C DUP2 PUSH1 0x1 DUP10 PUSH1 0x40 MLOAD PUSH1 0x20 ADD PUSH2 0x2B18 SWAP2 SWAP1 PUSH2 0x53E9 JUMP JUMPDEST PUSH1 0x40 MLOAD PUSH1 0x20 DUP2 DUP4 SUB SUB DUP2 MSTORE SWAP1 PUSH1 0x40 MSTORE PUSH2 0x317B JUMP JUMPDEST DUP7 PUSH1 0x40 MLOAD PUSH2 0x2B3A SWAP2 SWAP1 PUSH2 0x4861 JUMP JUMPDEST PUSH1 0x40 MLOAD DUP1 SWAP2 SUB SWAP1 KECCAK256 PUSH32 0x5C683C8EF124ED98B107DCF80C644ABC011626816B5B3A73E3F6D518C0CD778 DUP4 PUSH1 0x40 MLOAD PUSH2 0x2B71 SWAP2 SWAP1 PUSH2 0x3FF2 JUMP JUMPDEST PUSH1 0x40 MLOAD DUP1 SWAP2 SUB SWAP1 LOG2 POP POP POP POP POP POP POP JUMP JUMPDEST PUSH0 PUSH1 0x1 PUSH0 CALLER PUSH20 0xFFFFFFFFFFFFFFFFFFFFFFFFFFFFFFFFFFFFFFFF AND PUSH20 0xFFFFFFFFFFFFFFFFFFFFFFFFFFFFFFFFFFFFFFFF AND DUP2 MSTORE PUSH1 0x20 ADD SWAP1 DUP2 MSTORE PUSH1 0x20 ADD PUSH0 KECCAK256 DUP1 SLOAD PUSH2 0x2BCB SWAP1 PUSH2 0x472F JUMP JUMPDEST SWAP1 POP GT PUSH2 0x2C0D JUMPI PUSH1 0x40 MLOAD PUSH32 0x8C379A000000000000000000000000000000000000000000000000000000000 DUP2 MSTORE PUSH1 0x4 ADD PUSH2 0x2C04 SWAP1 PUSH2 0x4929 JUMP JUMPDEST PUSH1 0x40 MLOAD DUP1 SWAP2 SUB SWAP1 REVERT JUMPDEST PUSH1 0x4 DUP4 PUSH1 0x40 MLOAD PUSH2 0x2C1D SWAP2 SWAP1 PUSH2 0x4861 JUMP JUMPDEST SWAP1 DUP2 MSTORE PUSH1 0x20 ADD PUSH1 0x40 MLOAD DUP1 SWAP2 SUB SWAP1 KECCAK256 PUSH1 0x8 ADD PUSH0 SWAP1 SLOAD SWAP1 PUSH2 0x100 EXP SWAP1 DIV PUSH1 0xFF AND PUSH2 0x2C7A JUMPI PUSH1 0x40 MLOAD PUSH32 0x8C379A000000000000000000000000000000000000000000000000000000000 DUP2 MSTORE PUSH1 0x4 ADD PUSH2 0x2C71 SWAP1 PUSH2 0x51A7 JUMP JUMPDEST PUSH1 0x40 MLOAD DUP1 SWAP2 SUB SWAP1 REVERT JUMPDEST PUSH0 PUSH1 0x1 PUSH0 CALLER PUSH20 0xFFFFFFFFFFFFFFFFFFFFFFFFFFFFFFFFFFFFFFFF AND PUSH20 0xFFFFFFFFFFFFFFFFFFFFFFFFFFFFFFFFFFFFFFFF AND DUP2 MSTORE PUSH1 0x20 ADD SWAP1 DUP2 MSTORE PUSH1 0x20 ADD PUSH0 KECCAK256 DUP1 SLOAD PUSH2 0x2CC3 SWAP1 PUSH2 0x472F JUMP JUMPDEST DUP1 PUSH1 0x1F ADD PUSH1 0x20 DUP1 SWAP2 DIV MUL PUSH1 0x20 ADD PUSH1 0x40 MLOAD SWAP1 DUP2 ADD PUSH1 0x40 MSTORE DUP1 SWAP3 SWAP2 SWAP1 DUP2 DUP2 MSTORE PUSH1 0x20 ADD DUP3 DUP1 SLOAD PUSH2 0x2CEF SWAP1 PUSH2 0x472F JUMP JUMPDEST DUP1 ISZERO PUSH2 0x2D3A JUMPI DUP1 PUSH1 0x1F LT PUSH2 0x2D11 JUMPI PUSH2 0x100 DUP1 DUP4 SLOAD DIV MUL DUP4 MSTORE SWAP2 PUSH1 0x20 ADD SWAP2 PUSH2 0x2D3A JUMP JUMPDEST DUP3 ADD SWAP2 SWAP1 PUSH0 MSTORE PUSH1 0x20 PUSH0 KECCAK256 SWAP1 JUMPDEST DUP2 SLOAD DUP2 MSTORE SWAP1 PUSH1 0x1 ADD SWAP1 PUSH1 0x20 ADD DUP1 DUP4 GT PUSH2 0x2D1D JUMPI DUP3 SWAP1 SUB PUSH1 0x1F AND DUP3 ADD SWAP2 JUMPDEST POP POP POP POP POP SWAP1 POP DUP1 DUP1 MLOAD SWAP1 PUSH1 0x20 ADD KECCAK256 PUSH1 0x4 DUP6 PUSH1 0x40 MLOAD PUSH2 0x2D59 SWAP2 SWAP1 PUSH2 0x4861 JUMP JUMPDEST SWAP1 DUP2 MSTORE PUSH1 0x20 ADD PUSH1 0x40 MLOAD DUP1 SWAP2 SUB SWAP1 KECCAK256 PUSH1 0x2 ADD PUSH1 0x40 MLOAD PUSH2 0x2D77 SWAP2 SWAP1 PUSH2 0x54A6 JUMP JUMPDEST PUSH1 0x40 MLOAD DUP1 SWAP2 SUB SWAP1 KECCAK256 EQ DUP1 PUSH2 0x2DC6 JUMPI POP DUP1 DUP1 MLOAD SWAP1 PUSH1 0x20 ADD KECCAK256 PUSH1 0x4 DUP6 PUSH1 0x40 MLOAD PUSH2 0x2D9E SWAP2 SWAP1 PUSH2 0x4861 JUMP JUMPDEST SWAP1 DUP2 MSTORE PUSH1 0x20 ADD PUSH1 0x40 MLOAD DUP1 SWAP2 SUB SWAP1 KECCAK256 PUSH1 0x1 ADD PUSH1 0x40 MLOAD PUSH2 0x2DBC SWAP2 SWAP1 PUSH2 0x54A6 JUMP JUMPDEST PUSH1 0x40 MLOAD DUP1 SWAP2 SUB SWAP1 KECCAK256 EQ JUMPDEST PUSH2 0x2E05 JUMPI PUSH1 0x40 MLOAD PUSH32 0x8C379A000000000000000000000000000000000000000000000000000000000 DUP2 MSTORE PUSH1 0x4 ADD PUSH2 0x2DFC SWAP1 PUSH2 0x552C JUMP JUMPDEST PUSH1 0x40 MLOAD DUP1 SWAP2 SUB SWAP1 REVERT JUMPDEST PUSH0 DUP5 DUP5 PUSH1 0x2 DUP2 GT ISZERO PUSH2 0x2E1A JUMPI PUSH2 0x2E19 PUSH2 0x396C JUMP JUMPDEST JUMPDEST TIMESTAMP PUSH1 0x40 MLOAD PUSH1 0x20 ADD PUSH2 0x2E2D SWAP4 SWAP3 SWAP2 SWAP1 PUSH2 0x554A JUMP JUMPDEST PUSH1 0x40 MLOAD PUSH1 0x20 DUP2 DUP4 SUB SUB DUP2 MSTORE SWAP1 PUSH1 0x40 MSTORE DUP1 MLOAD SWAP1 PUSH1 0x20 ADD KECCAK256 SWAP1 POP PUSH2 0x2E50 DUP2 DUP5 CALLER PUSH2 0x310E JUMP JUMPDEST PUSH2 0x2E8F JUMPI PUSH1 0x40 MLOAD PUSH32 0x8C379A000000000000000000000000000000000000000000000000000000000 DUP2 MSTORE PUSH1 0x4 ADD PUSH2 0x2E86 SWAP1 PUSH2 0x4B89 JUMP JUMPDEST PUSH1 0x40 MLOAD DUP1 SWAP2 SUB SWAP1 REVERT JUMPDEST DUP4 PUSH1 0x4 DUP7 PUSH1 0x40 MLOAD PUSH2 0x2EA0 SWAP2 SWAP1 PUSH2 0x4861 JUMP JUMPDEST SWAP1 DUP2 MSTORE PUSH1 0x20 ADD PUSH1 0x40 MLOAD DUP1 SWAP2 SUB SWAP1 KECCAK256 PUSH1 0x6 ADD PUSH0 PUSH2 0x100 EXP DUP2 SLOAD DUP2 PUSH1 0xFF MUL NOT AND SWAP1 DUP4 PUSH1 0x2 DUP2 GT ISZERO PUSH2 0x2ED2 JUMPI PUSH2 0x2ED1 PUSH2 0x396C JUMP JUMPDEST JUMPDEST MUL OR SWAP1 SSTORE POP PUSH2 0x2F02 DUP2 PUSH1 0x3 DUP8 PUSH1 0x40 MLOAD PUSH1 0x20 ADD PUSH2 0x2EEE SWAP2 SWAP1 PUSH2 0x55CC JUMP JUMPDEST PUSH1 0x40 MLOAD PUSH1 0x20 DUP2 DUP4 SUB SUB DUP2 MSTORE SWAP1 PUSH1 0x40 MSTORE PUSH2 0x317B JUMP JUMPDEST POP POP POP POP POP JUMP JUMPDEST PUSH0 PUSH0 DUP4 DUP2 MSTORE PUSH1 0x20 ADD SWAP1 DUP2 MSTORE PUSH1 0x20 ADD PUSH0 KECCAK256 PUSH1 0x6 ADD PUSH0 SWAP1 SLOAD SWAP1 PUSH2 0x100 EXP SWAP1 DIV PUSH1 0xFF AND PUSH2 0x2F68 JUMPI PUSH1 0x40 MLOAD PUSH32 0x8C379A000000000000000000000000000000000000000000000000000000000 DUP2 MSTORE PUSH1 0x4 ADD PUSH2 0x2F5F SWAP1 PUSH2 0x48C1 JUMP JUMPDEST PUSH1 0x40 MLOAD DUP1 SWAP2 SUB SWAP1 REVERT JUMPDEST PUSH0 PUSH1 0x2 DUP2 GT ISZERO PUSH2 0x2F7B JUMPI PUSH2 0x2F7A PUSH2 0x396C JUMP JUMPDEST JUMPDEST PUSH0 PUSH0 DUP5 DUP2 MSTORE PUSH1 0x20 ADD SWAP1 DUP2 MSTORE PUSH1 0x20 ADD PUSH0 KECCAK256 PUSH1 0x3 ADD PUSH1 0x1 SWAP1 SLOAD SWAP1 PUSH2 0x100 EXP SWAP1 DIV PUSH1 0xFF AND PUSH1 0x2 DUP2 GT ISZERO PUSH2 0x2FAE JUMPI PUSH2 0x2FAD PUSH2 0x396C JUMP JUMPDEST JUMPDEST EQ PUSH2 0x2FEE JUMPI PUSH1 0x40 MLOAD PUSH32 0x8C379A000000000000000000000000000000000000000000000000000000000 DUP2 MSTORE PUSH1 0x4 ADD PUSH2 0x2FE5 SWAP1 PUSH2 0x5637 JUMP JUMPDEST PUSH1 0x40 MLOAD DUP1 SWAP2 SUB SWAP1 REVERT JUMPDEST PUSH0 DUP3 TIMESTAMP PUSH1 0x40 MLOAD PUSH1 0x20 ADD PUSH2 0x3002 SWAP3 SWAP2 SWAP1 PUSH2 0x569F JUMP JUMPDEST PUSH1 0x40 MLOAD PUSH1 0x20 DUP2 DUP4 SUB SUB DUP2 MSTORE SWAP1 PUSH1 0x40 MSTORE DUP1 MLOAD SWAP1 PUSH1 0x20 ADD KECCAK256 SWAP1 POP PUSH2 0x3025 DUP2 DUP4 CALLER PUSH2 0x310E JUMP JUMPDEST PUSH2 0x3064 JUMPI PUSH1 0x40 MLOAD PUSH32 0x8C379A000000000000000000000000000000000000000000000000000000000 DUP2 MSTORE PUSH1 0x4 ADD PUSH2 0x305B SWAP1 PUSH2 0x571F JUMP JUMPDEST PUSH1 0x40 MLOAD DUP1 SWAP2 SUB SWAP1 REVERT JUMPDEST PUSH1 0x1 PUSH0 PUSH0 DUP6 DUP2 MSTORE PUSH1 0x20 ADD SWAP1 DUP2 MSTORE PUSH1 0x20 ADD PUSH0 KECCAK256 PUSH1 0x3 ADD PUSH1 0x1 PUSH2 0x100 EXP DUP2 SLOAD DUP2 PUSH1 0xFF MUL NOT AND SWAP1 DUP4 PUSH1 0x2 DUP2 GT ISZERO PUSH2 0x309B JUMPI PUSH2 0x309A PUSH2 0x396C JUMP JUMPDEST JUMPDEST MUL OR SWAP1 SSTORE POP CALLER PUSH20 0xFFFFFFFFFFFFFFFFFFFFFFFFFFFFFFFFFFFFFFFF AND DUP4 PUSH32 0x15C2F311C9E0F53B50388279894AEFF029A3457884A6601E924FCA879E12ADCC PUSH1 0x40 MLOAD PUSH1 0x40 MLOAD DUP1 SWAP2 SUB SWAP1 LOG3 POP POP POP JUMP JUMPDEST PUSH1 0x6 PUSH0 SWAP1 SLOAD SWAP1 PUSH2 0x100 EXP SWAP1 DIV PUSH20 0xFFFFFFFFFFFFFFFFFFFFFFFFFFFFFFFFFFFFFFFF AND DUP2 JUMP JUMPDEST PUSH0 PUSH0 DUP5 PUSH1 0x40 MLOAD PUSH1 0x20 ADD PUSH2 0x3121 SWAP2 SWAP1 PUSH2 0x57A7 JUMP JUMPDEST PUSH1 0x40 MLOAD PUSH1 0x20 DUP2 DUP4 SUB SUB DUP2 MSTORE SWAP1 PUSH1 0x40 MSTORE DUP1 MLOAD SWAP1 PUSH1 0x20 ADD KECCAK256 SWAP1 POP DUP3 PUSH20 0xFFFFFFFFFFFFFFFFFFFFFFFFFFFFFFFFFFFFFFFF AND PUSH2 0x315A DUP3 DUP7 PUSH2 0x336F JUMP JUMPDEST PUSH20 0xFFFFFFFFFFFFFFFFFFFFFFFFFFFFFFFFFFFFFFFF AND EQ SWAP2 POP POP SWAP4 SWAP3 POP POP POP JUMP JUMPDEST PUSH1 0x40 MLOAD DUP1 PUSH2 0x100 ADD PUSH1 0x40 MSTORE DUP1 PUSH1 0x5 SLOAD DUP2 MSTORE PUSH1 0x20 ADD CALLER PUSH20 0xFFFFFFFFFFFFFFFFFFFFFFFFFFFFFFFFFFFFFFFF AND DUP2 MSTORE PUSH1 0x20 ADD DUP5 DUP2 MSTORE PUSH1 0x20 ADD DUP4 PUSH1 0x4 DUP2 GT ISZERO PUSH2 0x31C4 JUMPI PUSH2 0x31C3 PUSH2 0x396C JUMP JUMPDEST JUMPDEST DUP2 MSTORE PUSH1 0x20 ADD PUSH1 0x1 PUSH1 0x2 DUP2 GT ISZERO PUSH2 0x31DD JUMPI PUSH2 0x31DC PUSH2 0x396C JUMP JUMPDEST JUMPDEST DUP2 MSTORE PUSH1 0x20 ADD TIMESTAMP DUP2 MSTORE PUSH1 0x20 ADD DUP3 DUP2 MSTORE PUSH1 0x20 ADD PUSH1 0x1 ISZERO ISZERO DUP2 MSTORE POP PUSH0 PUSH0 PUSH1 0x5 SLOAD DUP2 MSTORE PUSH1 0x20 ADD SWAP1 DUP2 MSTORE PUSH1 0x20 ADD PUSH0 KECCAK256 PUSH0 DUP3 ADD MLOAD DUP2 PUSH0 ADD SSTORE PUSH1 0x20 DUP3 ADD MLOAD DUP2 PUSH1 0x1 ADD PUSH0 PUSH2 0x100 EXP DUP2 SLOAD DUP2 PUSH20 0xFFFFFFFFFFFFFFFFFFFFFFFFFFFFFFFFFFFFFFFF MUL NOT AND SWAP1 DUP4 PUSH20 0xFFFFFFFFFFFFFFFFFFFFFFFFFFFFFFFFFFFFFFFF AND MUL OR SWAP1 SSTORE POP PUSH1 0x40 DUP3 ADD MLOAD DUP2 PUSH1 0x2 ADD SSTORE PUSH1 0x60 DUP3 ADD MLOAD DUP2 PUSH1 0x3 ADD PUSH0 PUSH2 0x100 EXP DUP2 SLOAD DUP2 PUSH1 0xFF MUL NOT AND SWAP1 DUP4 PUSH1 0x4 DUP2 GT ISZERO PUSH2 0x3289 JUMPI PUSH2 0x3288 PUSH2 0x396C JUMP JUMPDEST JUMPDEST MUL OR SWAP1 SSTORE POP PUSH1 0x80 DUP3 ADD MLOAD DUP2 PUSH1 0x3 ADD PUSH1 0x1 PUSH2 0x100 EXP DUP2 SLOAD DUP2 PUSH1 0xFF MUL NOT AND SWAP1 DUP4 PUSH1 0x2 DUP2 GT ISZERO PUSH2 0x32B9 JUMPI PUSH2 0x32B8 PUSH2 0x396C JUMP JUMPDEST JUMPDEST MUL OR SWAP1 SSTORE POP PUSH1 0xA0 DUP3 ADD MLOAD DUP2 PUSH1 0x4 ADD SSTORE PUSH1 0xC0 DUP3 ADD MLOAD DUP2 PUSH1 0x5 ADD SWAP1 DUP2 PUSH2 0x32DD SWAP2 SWAP1 PUSH2 0x4D47 JUMP JUMPDEST POP PUSH1 0xE0 DUP3 ADD MLOAD DUP2 PUSH1 0x6 ADD PUSH0 PUSH2 0x100 EXP DUP2 SLOAD DUP2 PUSH1 0xFF MUL NOT AND SWAP1 DUP4 ISZERO ISZERO MUL OR SWAP1 SSTORE POP SWAP1 POP POP CALLER PUSH20 0xFFFFFFFFFFFFFFFFFFFFFFFFFFFFFFFFFFFFFFFF AND PUSH1 0x5 SLOAD PUSH32 0x473D33250CA56498A2FC52BD1C778AC788FCC075CB56498B29BB945134541194 DUP6 DUP6 PUSH1 0x40 MLOAD PUSH2 0x334B SWAP3 SWAP2 SWAP1 PUSH2 0x57CC JUMP JUMPDEST PUSH1 0x40 MLOAD DUP1 SWAP2 SUB SWAP1 LOG3 PUSH1 0x5 PUSH0 DUP2 SLOAD DUP1 SWAP3 SWAP2 SWAP1 PUSH2 0x3365 SWAP1 PUSH2 0x57F3 JUMP JUMPDEST SWAP2 SWAP1 POP SSTORE POP POP POP POP JUMP JUMPDEST PUSH0 PUSH1 0x41 DUP3 MLOAD EQ PUSH2 0x33B4 JUMPI PUSH1 0x40 MLOAD PUSH32 0x8C379A000000000000000000000000000000000000000000000000000000000 DUP2 MSTORE PUSH1 0x4 ADD PUSH2 0x33AB SWAP1 PUSH2 0x5884 JUMP JUMPDEST PUSH1 0x40 MLOAD DUP1 SWAP2 SUB SWAP1 REVERT JUMPDEST PUSH0 PUSH0 PUSH0 PUSH1 0x20 DUP6 ADD MLOAD SWAP3 POP PUSH1 0x40 DUP6 ADD MLOAD SWAP2 POP PUSH1 0x60 DUP6 ADD MLOAD PUSH0 BYTE SWAP1 POP PUSH1 0x1B DUP2 PUSH1 0xFF AND LT ISZERO PUSH2 0x33EA JUMPI PUSH1 0x1B DUP2 PUSH2 0x33E7 SWAP2 SWAP1 PUSH2 0x58AE JUMP JUMPDEST SWAP1 POP JUMPDEST PUSH1 0x1B DUP2 PUSH1 0xFF AND EQ DUP1 PUSH2 0x33FF JUMPI POP PUSH1 0x1C DUP2 PUSH1 0xFF AND EQ JUMPDEST PUSH2 0x343E JUMPI PUSH1 0x40 MLOAD PUSH32 0x8C379A000000000000000000000000000000000000000000000000000000000 DUP2 MSTORE PUSH1 0x4 ADD PUSH2 0x3435 SWAP1 PUSH2 0x592C JUMP JUMPDEST PUSH1 0x40 MLOAD DUP1 SWAP2 SUB SWAP1 REVERT JUMPDEST PUSH1 0x1 DUP7 DUP3 DUP6 DUP6 PUSH1 0x40 MLOAD PUSH0 DUP2 MSTORE PUSH1 0x20 ADD PUSH1 0x40 MSTORE PUSH1 0x40 MLOAD PUSH2 0x3460 SWAP5 SWAP4 SWAP3 SWAP2 SWAP1 PUSH2 0x5959 JUMP JUMPDEST PUSH1 0x20 PUSH1 0x40 MLOAD PUSH1 0x20 DUP2 SUB SWAP1 DUP1 DUP5 SUB SWAP1 DUP6 GAS STATICCALL ISZERO DUP1 ISZERO PUSH2 0x3480 JUMPI RETURNDATASIZE PUSH0 PUSH0 RETURNDATACOPY RETURNDATASIZE PUSH0 REVERT JUMPDEST POP POP POP PUSH1 0x20 PUSH1 0x40 MLOAD SUB MLOAD SWAP4 POP POP POP POP SWAP3 SWAP2 POP POP JUMP JUMPDEST PUSH1 0x40 MLOAD DUP1 PUSH2 0x100 ADD PUSH1 0x40 MSTORE DUP1 PUSH1 0x60 DUP2 MSTORE PUSH1 0x20 ADD PUSH0 PUSH20 0xFFFFFFFFFFFFFFFFFFFFFFFFFFFFFFFFFFFFFFFF AND DUP2 MSTORE PUSH1 0x20 ADD PUSH1 0x60 DUP2 MSTORE PUSH1 0x20 ADD PUSH0 PUSH1 0x4 DUP2 GT ISZERO PUSH2 0x34DE JUMPI PUSH2 0x34DD PUSH2 0x396C JUMP JUMPDEST JUMPDEST DUP2 MSTORE PUSH1 0x20 ADD PUSH1 0x60 DUP2 MSTORE PUSH1 0x20 ADD PUSH1 0x60 DUP2 MSTORE PUSH1 0x20 ADD PUSH0 DUP2 MSTORE PUSH1 0x20 ADD PUSH0 ISZERO ISZERO DUP2 MSTORE POP SWAP1 JUMP JUMPDEST PUSH1 0x40 MLOAD DUP1 PUSH2 0x100 ADD PUSH1 0x40 MSTORE DUP1 PUSH0 DUP2 MSTORE PUSH1 0x20 ADD PUSH0 PUSH20 0xFFFFFFFFFFFFFFFFFFFFFFFFFFFFFFFFFFFFFFFF AND DUP2 MSTORE PUSH1 0x20 ADD PUSH0 DUP2 MSTORE PUSH1 0x20 ADD PUSH0 PUSH1 0x4 DUP2 GT ISZERO PUSH2 0x3547 JUMPI PUSH2 0x3546 PUSH2 0x396C JUMP JUMPDEST JUMPDEST DUP2 MSTORE PUSH1 0x20 ADD PUSH0 PUSH1 0x2 DUP2 GT ISZERO PUSH2 0x355F JUMPI PUSH2 0x355E PUSH2 0x396C JUMP JUMPDEST JUMPDEST DUP2 MSTORE PUSH1 0x20 ADD PUSH0 DUP2 MSTORE PUSH1 0x20 ADD PUSH1 0x60 DUP2 MSTORE PUSH1 0x20 ADD PUSH0 ISZERO ISZERO DUP2 MSTORE POP SWAP1 JUMP JUMPDEST PUSH1 0x40 MLOAD DUP1 PUSH1 0xE0 ADD PUSH1 0x40 MSTORE DUP1 PUSH1 0x60 DUP2 MSTORE PUSH1 0x20 ADD PUSH1 0x60 DUP2 MSTORE PUSH1 0x20 ADD PUSH1 0x60 DUP2 MSTORE PUSH1 0x20 ADD PUSH1 0x60 DUP2 MSTORE PUSH1 0x20 ADD PUSH0 DUP2 MSTORE PUSH1 0x20 ADD PUSH0 DUP2 MSTORE PUSH1 0x20 ADD PUSH0 ISZERO ISZERO DUP2 MSTORE POP SWAP1 JUMP JUMPDEST PUSH1 0x40 MLOAD DUP1 PUSH2 0x120 ADD PUSH1 0x40 MSTORE DUP1 PUSH1 0x60 DUP2 MSTORE PUSH1 0x20 ADD PUSH1 0x60 DUP2 MSTORE PUSH1 0x20 ADD PUSH1 0x60 DUP2 MSTORE PUSH1 0x20 ADD PUSH1 0x60 DUP2 MSTORE PUSH1 0x20 ADD PUSH0 DUP2 MSTORE PUSH1 0x20 ADD PUSH0 DUP2 MSTORE PUSH1 0x20 ADD PUSH0 PUSH1 0x2 DUP2 GT ISZERO PUSH2 0x35FD JUMPI PUSH2 0x35FC PUSH2 0x396C JUMP JUMPDEST JUMPDEST DUP2 MSTORE PUSH1 0x20 ADD PUSH0 DUP2 MSTORE PUSH1 0x20 ADD PUSH0 ISZERO ISZERO DUP2 MSTORE POP SWAP1 JUMP JUMPDEST PUSH0 PUSH1 0x40 MLOAD SWAP1 POP SWAP1 JUMP JUMPDEST PUSH0 PUSH0 REVERT JUMPDEST PUSH0 PUSH0 REVERT JUMPDEST PUSH0 PUSH0 REVERT JUMPDEST PUSH0 PUSH0 REVERT JUMPDEST PUSH0 PUSH1 0x1F NOT PUSH1 0x1F DUP4 ADD AND SWAP1 POP SWAP2 SWAP1 POP JUMP JUMPDEST PUSH32 0x4E487B7100000000000000000000000000000000000000000000000000000000 PUSH0 MSTORE PUSH1 0x41 PUSH1 0x4 MSTORE PUSH1 0x24 PUSH0 REVERT JUMPDEST PUSH2 0x3670 DUP3 PUSH2 0x362A JUMP JUMPDEST DUP2 ADD DUP2 DUP2 LT PUSH8 0xFFFFFFFFFFFFFFFF DUP3 GT OR ISZERO PUSH2 0x368F JUMPI PUSH2 0x368E PUSH2 0x363A JUMP JUMPDEST JUMPDEST DUP1 PUSH1 0x40 MSTORE POP POP POP JUMP JUMPDEST PUSH0 PUSH2 0x36A1 PUSH2 0x3611 JUMP JUMPDEST SWAP1 POP PUSH2 0x36AD DUP3 DUP3 PUSH2 0x3667 JUMP JUMPDEST SWAP2 SWAP1 POP JUMP JUMPDEST PUSH0 PUSH8 0xFFFFFFFFFFFFFFFF DUP3 GT ISZERO PUSH2 0x36CC JUMPI PUSH2 0x36CB PUSH2 0x363A JUMP JUMPDEST JUMPDEST PUSH2 0x36D5 DUP3 PUSH2 0x362A JUMP JUMPDEST SWAP1 POP PUSH1 0x20 DUP2 ADD SWAP1 POP SWAP2 SWAP1 POP JUMP JUMPDEST DUP3 DUP2 DUP4 CALLDATACOPY PUSH0 DUP4 DUP4 ADD MSTORE POP POP POP JUMP JUMPDEST PUSH0 PUSH2 0x3702 PUSH2 0x36FD DUP5 PUSH2 0x36B2 JUMP JUMPDEST PUSH2 0x3698 JUMP JUMPDEST SWAP1 POP DUP3 DUP2 MSTORE PUSH1 0x20 DUP2 ADD DUP5 DUP5 DUP5 ADD GT ISZERO PUSH2 0x371E JUMPI PUSH2 0x371D PUSH2 0x3626 JUMP JUMPDEST JUMPDEST PUSH2 0x3729 DUP5 DUP3 DUP6 PUSH2 0x36E2 JUMP JUMPDEST POP SWAP4 SWAP3 POP POP POP JUMP JUMPDEST PUSH0 DUP3 PUSH1 0x1F DUP4 ADD SLT PUSH2 0x3745 JUMPI PUSH2 0x3744 PUSH2 0x3622 JUMP JUMPDEST JUMPDEST DUP2 CALLDATALOAD PUSH2 0x3755 DUP5 DUP3 PUSH1 0x20 DUP7 ADD PUSH2 0x36F0 JUMP JUMPDEST SWAP2 POP POP SWAP3 SWAP2 POP POP JUMP JUMPDEST PUSH0 PUSH1 0x20 DUP3 DUP5 SUB SLT ISZERO PUSH2 0x3773 JUMPI PUSH2 0x3772 PUSH2 0x361A JUMP JUMPDEST JUMPDEST PUSH0 DUP3 ADD CALLDATALOAD PUSH8 0xFFFFFFFFFFFFFFFF DUP2 GT ISZERO PUSH2 0x3790 JUMPI PUSH2 0x378F PUSH2 0x361E JUMP JUMPDEST JUMPDEST PUSH2 0x379C DUP5 DUP3 DUP6 ADD PUSH2 0x3731 JUMP JUMPDEST SWAP2 POP POP SWAP3 SWAP2 POP POP JUMP JUMPDEST PUSH0 DUP2 MLOAD SWAP1 POP SWAP2 SWAP1 POP JUMP JUMPDEST PUSH0 DUP3 DUP3 MSTORE PUSH1 0x20 DUP3 ADD SWAP1 POP SWAP3 SWAP2 POP POP JUMP JUMPDEST DUP3 DUP2 DUP4 MCOPY PUSH0 DUP4 DUP4 ADD MSTORE POP POP POP JUMP JUMPDEST PUSH0 PUSH2 0x37D7 DUP3 PUSH2 0x37A5 JUMP JUMPDEST PUSH2 0x37E1 DUP2 DUP6 PUSH2 0x37AF JUMP JUMPDEST SWAP4 POP PUSH2 0x37F1 DUP2 DUP6 PUSH1 0x20 DUP7 ADD PUSH2 0x37BF JUMP JUMPDEST PUSH2 0x37FA DUP2 PUSH2 0x362A JUMP JUMPDEST DUP5 ADD SWAP2 POP POP SWAP3 SWAP2 POP POP JUMP JUMPDEST PUSH0 DUP2 SWAP1 POP SWAP2 SWAP1 POP JUMP JUMPDEST PUSH2 0x3817 DUP2 PUSH2 0x3805 JUMP JUMPDEST DUP3 MSTORE POP POP JUMP JUMPDEST PUSH0 DUP2 ISZERO ISZERO SWAP1 POP SWAP2 SWAP1 POP JUMP JUMPDEST PUSH2 0x3831 DUP2 PUSH2 0x381D JUMP JUMPDEST DUP3 MSTORE POP POP JUMP JUMPDEST PUSH0 PUSH1 0xE0 DUP3 ADD SWAP1 POP DUP2 DUP2 SUB PUSH0 DUP4 ADD MSTORE PUSH2 0x384F DUP2 DUP11 PUSH2 0x37CD JUMP JUMPDEST SWAP1 POP DUP2 DUP2 SUB PUSH1 0x20 DUP4 ADD MSTORE PUSH2 0x3863 DUP2 DUP10 PUSH2 0x37CD JUMP JUMPDEST SWAP1 POP DUP2 DUP2 SUB PUSH1 0x40 DUP4 ADD MSTORE PUSH2 0x3877 DUP2 DUP9 PUSH2 0x37CD JUMP JUMPDEST SWAP1 POP DUP2 DUP2 SUB PUSH1 0x60 DUP4 ADD MSTORE PUSH2 0x388B DUP2 DUP8 PUSH2 0x37CD JUMP JUMPDEST SWAP1 POP PUSH2 0x389A PUSH1 0x80 DUP4 ADD DUP7 PUSH2 0x380E JUMP JUMPDEST PUSH2 0x38A7 PUSH1 0xA0 DUP4 ADD DUP6 PUSH2 0x380E JUMP JUMPDEST PUSH2 0x38B4 PUSH1 0xC0 DUP4 ADD DUP5 PUSH2 0x3828 JUMP JUMPDEST SWAP9 SWAP8 POP POP POP POP POP POP POP POP JUMP JUMPDEST PUSH2 0x38C9 DUP2 PUSH2 0x3805 JUMP JUMPDEST DUP2 EQ PUSH2 0x38D3 JUMPI PUSH0 PUSH0 REVERT JUMPDEST POP JUMP JUMPDEST PUSH0 DUP2 CALLDATALOAD SWAP1 POP PUSH2 0x38E4 DUP2 PUSH2 0x38C0 JUMP JUMPDEST SWAP3 SWAP2 POP POP JUMP JUMPDEST PUSH0 PUSH1 0x20 DUP3 DUP5 SUB SLT ISZERO PUSH2 0x38FF JUMPI PUSH2 0x38FE PUSH2 0x361A JUMP JUMPDEST JUMPDEST PUSH0 PUSH2 0x390C DUP5 DUP3 DUP6 ADD PUSH2 0x38D6 JUMP JUMPDEST SWAP2 POP POP SWAP3 SWAP2 POP POP JUMP JUMPDEST PUSH0 PUSH20 0xFFFFFFFFFFFFFFFFFFFFFFFFFFFFFFFFFFFFFFFF DUP3 AND SWAP1 POP SWAP2 SWAP1 POP JUMP JUMPDEST PUSH0 PUSH2 0x393E DUP3 PUSH2 0x3915 JUMP JUMPDEST SWAP1 POP SWAP2 SWAP1 POP JUMP JUMPDEST PUSH2 0x394E DUP2 PUSH2 0x3934 JUMP JUMPDEST DUP3 MSTORE POP POP JUMP JUMPDEST PUSH0 DUP2 SWAP1 POP SWAP2 SWAP1 POP JUMP JUMPDEST PUSH2 0x3966 DUP2 PUSH2 0x3954 JUMP JUMPDEST DUP3 MSTORE POP POP JUMP JUMPDEST PUSH32 0x4E487B7100000000000000000000000000000000000000000000000000000000 PUSH0 MSTORE PUSH1 0x21 PUSH1 0x4 MSTORE PUSH1 0x24 PUSH0 REVERT JUMPDEST PUSH1 0x5 DUP2 LT PUSH2 0x39AA JUMPI PUSH2 0x39A9 PUSH2 0x396C JUMP JUMPDEST JUMPDEST POP JUMP JUMPDEST PUSH0 DUP2 SWAP1 POP PUSH2 0x39BA DUP3 PUSH2 0x3999 JUMP JUMPDEST SWAP2 SWAP1 POP JUMP JUMPDEST PUSH0 PUSH2 0x39C9 DUP3 PUSH2 0x39AD JUMP JUMPDEST SWAP1 POP SWAP2 SWAP1 POP JUMP JUMPDEST PUSH2 0x39D9 DUP2 PUSH2 0x39BF JUMP JUMPDEST DUP3 MSTORE POP POP JUMP JUMPDEST PUSH1 0x3 DUP2 LT PUSH2 0x39F0 JUMPI PUSH2 0x39EF PUSH2 0x396C JUMP JUMPDEST JUMPDEST POP JUMP JUMPDEST PUSH0 DUP2 SWAP1 POP PUSH2 0x3A00 DUP3 PUSH2 0x39DF JUMP JUMPDEST SWAP2 SWAP1 POP JUMP JUMPDEST PUSH0 PUSH2 0x3A0F DUP3 PUSH2 0x39F3 JUMP JUMPDEST SWAP1 POP SWAP2 SWAP1 POP JUMP JUMPDEST PUSH2 0x3A1F DUP2 PUSH2 0x3A05 JUMP JUMPDEST DUP3 MSTORE POP POP JUMP JUMPDEST PUSH0 PUSH2 0x100 DUP3 ADD SWAP1 POP PUSH2 0x3A39 PUSH0 DUP4 ADD DUP12 PUSH2 0x380E JUMP JUMPDEST PUSH2 0x3A46 PUSH1 0x20 DUP4 ADD DUP11 PUSH2 0x3945 JUMP JUMPDEST PUSH2 0x3A53 PUSH1 0x40 DUP4 ADD DUP10 PUSH2 0x395D JUMP JUMPDEST PUSH2 0x3A60 PUSH1 0x60 DUP4 ADD DUP9 PUSH2 0x39D0 JUMP JUMPDEST PUSH2 0x3A6D PUSH1 0x80 DUP4 ADD DUP8 PUSH2 0x3A16 JUMP JUMPDEST PUSH2 0x3A7A PUSH1 0xA0 DUP4 ADD DUP7 PUSH2 0x380E JUMP JUMPDEST DUP2 DUP2 SUB PUSH1 0xC0 DUP4 ADD MSTORE PUSH2 0x3A8C DUP2 DUP6 PUSH2 0x37CD JUMP JUMPDEST SWAP1 POP PUSH2 0x3A9B PUSH1 0xE0 DUP4 ADD DUP5 PUSH2 0x3828 JUMP JUMPDEST SWAP10 SWAP9 POP POP POP POP POP POP POP POP POP JUMP JUMPDEST PUSH0 PUSH1 0x20 DUP3 ADD SWAP1 POP PUSH2 0x3ABB PUSH0 DUP4 ADD DUP5 PUSH2 0x380E JUMP JUMPDEST SWAP3 SWAP2 POP POP JUMP JUMPDEST PUSH2 0x3ACA DUP2 PUSH2 0x3934 JUMP JUMPDEST DUP2 EQ PUSH2 0x3AD4 JUMPI PUSH0 PUSH0 REVERT JUMPDEST POP JUMP JUMPDEST PUSH0 DUP2 CALLDATALOAD SWAP1 POP PUSH2 0x3AE5 DUP2 PUSH2 0x3AC1 JUMP JUMPDEST SWAP3 SWAP2 POP POP JUMP JUMPDEST PUSH0 PUSH1 0x20 DUP3 DUP5 SUB SLT ISZERO PUSH2 0x3B00 JUMPI PUSH2 0x3AFF PUSH2 0x361A JUMP JUMPDEST JUMPDEST PUSH0 PUSH2 0x3B0D DUP5 DUP3 DUP6 ADD PUSH2 0x3AD7 JUMP JUMPDEST SWAP2 POP POP SWAP3 SWAP2 POP POP JUMP JUMPDEST PUSH0 PUSH1 0x20 DUP3 ADD SWAP1 POP PUSH2 0x3B29 PUSH0 DUP4 ADD DUP5 PUSH2 0x3828 JUMP JUMPDEST SWAP3 SWAP2 POP POP JUMP JUMPDEST PUSH0 PUSH2 0x120 DUP3 ADD SWAP1 POP DUP2 DUP2 SUB PUSH0 DUP4 ADD MSTORE PUSH2 0x3B48 DUP2 DUP13 PUSH2 0x37CD JUMP JUMPDEST SWAP1 POP DUP2 DUP2 SUB PUSH1 0x20 DUP4 ADD MSTORE PUSH2 0x3B5C DUP2 DUP12 PUSH2 0x37CD JUMP JUMPDEST SWAP1 POP DUP2 DUP2 SUB PUSH1 0x40 DUP4 ADD MSTORE PUSH2 0x3B70 DUP2 DUP11 PUSH2 0x37CD JUMP JUMPDEST SWAP1 POP DUP2 DUP2 SUB PUSH1 0x60 DUP4 ADD MSTORE PUSH2 0x3B84 DUP2 DUP10 PUSH2 0x37CD JUMP JUMPDEST SWAP1 POP PUSH2 0x3B93 PUSH1 0x80 DUP4 ADD DUP9 PUSH2 0x380E JUMP JUMPDEST PUSH2 0x3BA0 PUSH1 0xA0 DUP4 ADD DUP8 PUSH2 0x380E JUMP JUMPDEST PUSH2 0x3BAD PUSH1 0xC0 DUP4 ADD DUP7 PUSH2 0x3A16 JUMP JUMPDEST PUSH2 0x3BBA PUSH1 0xE0 DUP4 ADD DUP6 PUSH2 0x380E JUMP JUMPDEST PUSH2 0x3BC8 PUSH2 0x100 DUP4 ADD DUP5 PUSH2 0x3828 JUMP JUMPDEST SWAP11 SWAP10 POP POP POP POP POP POP POP POP POP POP JUMP JUMPDEST PUSH0 DUP3 DUP3 MSTORE PUSH1 0x20 DUP3 ADD SWAP1 POP SWAP3 SWAP2 POP POP JUMP JUMPDEST PUSH0 PUSH2 0x3BF0 DUP3 PUSH2 0x37A5 JUMP JUMPDEST PUSH2 0x3BFA DUP2 DUP6 PUSH2 0x3BD6 JUMP JUMPDEST SWAP4 POP PUSH2 0x3C0A DUP2 DUP6 PUSH1 0x20 DUP7 ADD PUSH2 0x37BF JUMP JUMPDEST PUSH2 0x3C13 DUP2 PUSH2 0x362A JUMP JUMPDEST DUP5 ADD SWAP2 POP POP SWAP3 SWAP2 POP POP JUMP JUMPDEST PUSH2 0x3C27 DUP2 PUSH2 0x3934 JUMP JUMPDEST DUP3 MSTORE POP POP JUMP JUMPDEST PUSH1 0x5 DUP2 LT PUSH2 0x3C3E JUMPI PUSH2 0x3C3D PUSH2 0x396C JUMP JUMPDEST JUMPDEST POP JUMP JUMPDEST PUSH0 DUP2 SWAP1 POP PUSH2 0x3C4E DUP3 PUSH2 0x3C2D JUMP JUMPDEST SWAP2 SWAP1 POP JUMP JUMPDEST PUSH0 PUSH2 0x3C5D DUP3 PUSH2 0x3C41 JUMP JUMPDEST SWAP1 POP SWAP2 SWAP1 POP JUMP JUMPDEST PUSH2 0x3C6D DUP2 PUSH2 0x3C53 JUMP JUMPDEST DUP3 MSTORE POP POP JUMP JUMPDEST PUSH2 0x3C7C DUP2 PUSH2 0x3805 JUMP JUMPDEST DUP3 MSTORE POP POP JUMP JUMPDEST PUSH2 0x3C8B DUP2 PUSH2 0x381D JUMP JUMPDEST DUP3 MSTORE POP POP JUMP JUMPDEST PUSH0 PUSH2 0x100 DUP4 ADD PUSH0 DUP4 ADD MLOAD DUP5 DUP3 SUB PUSH0 DUP7 ADD MSTORE PUSH2 0x3CAC DUP3 DUP3 PUSH2 0x3BE6 JUMP JUMPDEST SWAP2 POP POP PUSH1 0x20 DUP4 ADD MLOAD PUSH2 0x3CC1 PUSH1 0x20 DUP7 ADD DUP3 PUSH2 0x3C1E JUMP JUMPDEST POP PUSH1 0x40 DUP4 ADD MLOAD DUP5 DUP3 SUB PUSH1 0x40 DUP7 ADD MSTORE PUSH2 0x3CD9 DUP3 DUP3 PUSH2 0x3BE6 JUMP JUMPDEST SWAP2 POP POP PUSH1 0x60 DUP4 ADD MLOAD PUSH2 0x3CEE PUSH1 0x60 DUP7 ADD DUP3 PUSH2 0x3C64 JUMP JUMPDEST POP PUSH1 0x80 DUP4 ADD MLOAD DUP5 DUP3 SUB PUSH1 0x80 DUP7 ADD MSTORE PUSH2 0x3D06 DUP3 DUP3 PUSH2 0x3BE6 JUMP JUMPDEST SWAP2 POP POP PUSH1 0xA0 DUP4 ADD MLOAD DUP5 DUP3 SUB PUSH1 0xA0 DUP7 ADD MSTORE PUSH2 0x3D20 DUP3 DUP3 PUSH2 0x3BE6 JUMP JUMPDEST SWAP2 POP POP PUSH1 0xC0 DUP4 ADD MLOAD PUSH2 0x3D35 PUSH1 0xC0 DUP7 ADD DUP3 PUSH2 0x3C73 JUMP JUMPDEST POP PUSH1 0xE0 DUP4 ADD MLOAD PUSH2 0x3D48 PUSH1 0xE0 DUP7 ADD DUP3 PUSH2 0x3C82 JUMP JUMPDEST POP DUP1 SWAP2 POP POP SWAP3 SWAP2 POP POP JUMP JUMPDEST PUSH0 PUSH1 0x20 DUP3 ADD SWAP1 POP DUP2 DUP2 SUB PUSH0 DUP4 ADD MSTORE PUSH2 0x3D6B DUP2 DUP5 PUSH2 0x3C91 JUMP JUMPDEST SWAP1 POP SWAP3 SWAP2 POP POP JUMP JUMPDEST PUSH2 0x3D7C DUP2 PUSH2 0x3954 JUMP JUMPDEST DUP3 MSTORE POP POP JUMP JUMPDEST PUSH2 0x3D8B DUP2 PUSH2 0x39BF JUMP JUMPDEST DUP3 MSTORE POP POP JUMP JUMPDEST PUSH2 0x3D9A DUP2 PUSH2 0x3A05 JUMP JUMPDEST DUP3 MSTORE POP POP JUMP JUMPDEST PUSH0 PUSH2 0x100 DUP4 ADD PUSH0 DUP4 ADD MLOAD PUSH2 0x3DB6 PUSH0 DUP7 ADD DUP3 PUSH2 0x3C73 JUMP JUMPDEST POP PUSH1 0x20 DUP4 ADD MLOAD PUSH2 0x3DC9 PUSH1 0x20 DUP7 ADD DUP3 PUSH2 0x3C1E JUMP JUMPDEST POP PUSH1 0x40 DUP4 ADD MLOAD PUSH2 0x3DDC PUSH1 0x40 DUP7 ADD DUP3 PUSH2 0x3D73 JUMP JUMPDEST POP PUSH1 0x60 DUP4 ADD MLOAD PUSH2 0x3DEF PUSH1 0x60 DUP7 ADD DUP3 PUSH2 0x3D82 JUMP JUMPDEST POP PUSH1 0x80 DUP4 ADD MLOAD PUSH2 0x3E02 PUSH1 0x80 DUP7 ADD DUP3 PUSH2 0x3D91 JUMP JUMPDEST POP PUSH1 0xA0 DUP4 ADD MLOAD PUSH2 0x3E15 PUSH1 0xA0 DUP7 ADD DUP3 PUSH2 0x3C73 JUMP JUMPDEST POP PUSH1 0xC0 DUP4 ADD MLOAD DUP5 DUP3 SUB PUSH1 0xC0 DUP7 ADD MSTORE PUSH2 0x3E2D DUP3 DUP3 PUSH2 0x3BE6 JUMP JUMPDEST SWAP2 POP POP PUSH1 0xE0 DUP4 ADD MLOAD PUSH2 0x3E42 PUSH1 0xE0 DUP7 ADD DUP3 PUSH2 0x3C82 JUMP JUMPDEST POP DUP1 SWAP2 POP POP SWAP3 SWAP2 POP POP JUMP JUMPDEST PUSH0 PUSH1 0x20 DUP3 ADD SWAP1 POP DUP2 DUP2 SUB PUSH0 DUP4 ADD MSTORE PUSH2 0x3E65 DUP2 DUP5 PUSH2 0x3DA0 JUMP JUMPDEST SWAP1 POP SWAP3 SWAP2 POP POP JUMP JUMPDEST PUSH0 PUSH8 0xFFFFFFFFFFFFFFFF DUP3 GT ISZERO PUSH2 0x3E87 JUMPI PUSH2 0x3E86 PUSH2 0x363A JUMP JUMPDEST JUMPDEST PUSH2 0x3E90 DUP3 PUSH2 0x362A JUMP JUMPDEST SWAP1 POP PUSH1 0x20 DUP2 ADD SWAP1 POP SWAP2 SWAP1 POP JUMP JUMPDEST PUSH0 PUSH2 0x3EAF PUSH2 0x3EAA DUP5 PUSH2 0x3E6D JUMP JUMPDEST PUSH2 0x3698 JUMP JUMPDEST SWAP1 POP DUP3 DUP2 MSTORE PUSH1 0x20 DUP2 ADD DUP5 DUP5 DUP5 ADD GT ISZERO PUSH2 0x3ECB JUMPI PUSH2 0x3ECA PUSH2 0x3626 JUMP JUMPDEST JUMPDEST PUSH2 0x3ED6 DUP5 DUP3 DUP6 PUSH2 0x36E2 JUMP JUMPDEST POP SWAP4 SWAP3 POP POP POP JUMP JUMPDEST PUSH0 DUP3 PUSH1 0x1F DUP4 ADD SLT PUSH2 0x3EF2 JUMPI PUSH2 0x3EF1 PUSH2 0x3622 JUMP JUMPDEST JUMPDEST DUP2 CALLDATALOAD PUSH2 0x3F02 DUP5 DUP3 PUSH1 0x20 DUP7 ADD PUSH2 0x3E9D JUMP JUMPDEST SWAP2 POP POP SWAP3 SWAP2 POP POP JUMP JUMPDEST PUSH0 PUSH0 PUSH0 PUSH0 PUSH0 PUSH1 0xA0 DUP7 DUP9 SUB SLT ISZERO PUSH2 0x3F24 JUMPI PUSH2 0x3F23 PUSH2 0x361A JUMP JUMPDEST JUMPDEST PUSH0 DUP7 ADD CALLDATALOAD PUSH8 0xFFFFFFFFFFFFFFFF DUP2 GT ISZERO PUSH2 0x3F41 JUMPI PUSH2 0x3F40 PUSH2 0x361E JUMP JUMPDEST JUMPDEST PUSH2 0x3F4D DUP9 DUP3 DUP10 ADD PUSH2 0x3731 JUMP JUMPDEST SWAP6 POP POP PUSH1 0x20 DUP7 ADD CALLDATALOAD PUSH8 0xFFFFFFFFFFFFFFFF DUP2 GT ISZERO PUSH2 0x3F6E JUMPI PUSH2 0x3F6D PUSH2 0x361E JUMP JUMPDEST JUMPDEST PUSH2 0x3F7A DUP9 DUP3 DUP10 ADD PUSH2 0x3731 JUMP JUMPDEST SWAP5 POP POP PUSH1 0x40 DUP7 ADD CALLDATALOAD PUSH8 0xFFFFFFFFFFFFFFFF DUP2 GT ISZERO PUSH2 0x3F9B JUMPI PUSH2 0x3F9A PUSH2 0x361E JUMP JUMPDEST JUMPDEST PUSH2 0x3FA7 DUP9 DUP3 DUP10 ADD PUSH2 0x3731 JUMP JUMPDEST SWAP4 POP POP PUSH1 0x60 PUSH2 0x3FB8 DUP9 DUP3 DUP10 ADD PUSH2 0x38D6 JUMP JUMPDEST SWAP3 POP POP PUSH1 0x80 DUP7 ADD CALLDATALOAD PUSH8 0xFFFFFFFFFFFFFFFF DUP2 GT ISZERO PUSH2 0x3FD9 JUMPI PUSH2 0x3FD8 PUSH2 0x361E JUMP JUMPDEST JUMPDEST PUSH2 0x3FE5 DUP9 DUP3 DUP10 ADD PUSH2 0x3EDE JUMP JUMPDEST SWAP2 POP POP SWAP3 SWAP6 POP SWAP3 SWAP6 SWAP1 SWAP4 POP JUMP JUMPDEST PUSH0 PUSH1 0x20 DUP3 ADD SWAP1 POP DUP2 DUP2 SUB PUSH0 DUP4 ADD MSTORE PUSH2 0x400A DUP2 DUP5 PUSH2 0x37CD JUMP JUMPDEST SWAP1 POP SWAP3 SWAP2 POP POP JUMP JUMPDEST PUSH1 0x5 DUP2 LT PUSH2 0x401E JUMPI PUSH0 PUSH0 REVERT JUMPDEST POP JUMP JUMPDEST PUSH0 DUP2 CALLDATALOAD SWAP1 POP PUSH2 0x402F DUP2 PUSH2 0x4012 JUMP JUMPDEST SWAP3 SWAP2 POP POP JUMP JUMPDEST PUSH0 PUSH0 PUSH0 PUSH0 PUSH0 PUSH0 PUSH1 0xC0 DUP8 DUP10 SUB SLT ISZERO PUSH2 0x404F JUMPI PUSH2 0x404E PUSH2 0x361A JUMP JUMPDEST JUMPDEST PUSH0 DUP8 ADD CALLDATALOAD PUSH8 0xFFFFFFFFFFFFFFFF DUP2 GT ISZERO PUSH2 0x406C JUMPI PUSH2 0x406B PUSH2 0x361E JUMP JUMPDEST JUMPDEST PUSH2 0x4078 DUP10 DUP3 DUP11 ADD PUSH2 0x3731 JUMP JUMPDEST SWAP7 POP POP PUSH1 0x20 DUP8 ADD CALLDATALOAD PUSH8 0xFFFFFFFFFFFFFFFF DUP2 GT ISZERO PUSH2 0x4099 JUMPI PUSH2 0x4098 PUSH2 0x361E JUMP JUMPDEST JUMPDEST PUSH2 0x40A5 DUP10 DUP3 DUP11 ADD PUSH2 0x3731 JUMP JUMPDEST SWAP6 POP POP PUSH1 0x40 PUSH2 0x40B6 DUP10 DUP3 DUP11 ADD PUSH2 0x4021 JUMP JUMPDEST SWAP5 POP POP PUSH1 0x60 DUP8 ADD CALLDATALOAD PUSH8 0xFFFFFFFFFFFFFFFF DUP2 GT ISZERO PUSH2 0x40D7 JUMPI PUSH2 0x40D6 PUSH2 0x361E JUMP JUMPDEST JUMPDEST PUSH2 0x40E3 DUP10 DUP3 DUP11 ADD PUSH2 0x3731 JUMP JUMPDEST SWAP4 POP POP PUSH1 0x80 DUP8 ADD CALLDATALOAD PUSH8 0xFFFFFFFFFFFFFFFF DUP2 GT ISZERO PUSH2 0x4104 JUMPI PUSH2 0x4103 PUSH2 0x361E JUMP JUMPDEST JUMPDEST PUSH2 0x4110 DUP10 DUP3 DUP11 ADD PUSH2 0x3731 JUMP JUMPDEST SWAP3 POP POP PUSH1 0xA0 DUP8 ADD CALLDATALOAD PUSH8 0xFFFFFFFFFFFFFFFF DUP2 GT ISZERO PUSH2 0x4131 JUMPI PUSH2 0x4130 PUSH2 0x361E JUMP JUMPDEST JUMPDEST PUSH2 0x413D DUP10 DUP3 DUP11 ADD PUSH2 0x3EDE JUMP JUMPDEST SWAP2 POP POP SWAP3 SWAP6 POP SWAP3 SWAP6 POP SWAP3 SWAP6 JUMP JUMPDEST PUSH0 PUSH0 PUSH1 0x40 DUP4 DUP6 SUB SLT ISZERO PUSH2 0x4160 JUMPI PUSH2 0x415F PUSH2 0x361A JUMP JUMPDEST JUMPDEST PUSH0 PUSH2 0x416D DUP6 DUP3 DUP7 ADD PUSH2 0x38D6 JUMP JUMPDEST SWAP3 POP POP PUSH1 0x20 PUSH2 0x417E DUP6 DUP3 DUP7 ADD PUSH2 0x38D6 JUMP JUMPDEST SWAP2 POP POP SWAP3 POP SWAP3 SWAP1 POP JUMP JUMPDEST PUSH0 DUP2 MLOAD SWAP1 POP SWAP2 SWAP1 POP JUMP JUMPDEST PUSH0 DUP3 DUP3 MSTORE PUSH1 0x20 DUP3 ADD SWAP1 POP SWAP3 SWAP2 POP POP JUMP JUMPDEST PUSH0 DUP2 SWAP1 POP PUSH1 0x20 DUP3 ADD SWAP1 POP SWAP2 SWAP1 POP JUMP JUMPDEST PUSH0 PUSH2 0x100 DUP4 ADD PUSH0 DUP4 ADD MLOAD PUSH2 0x41C7 PUSH0 DUP7 ADD DUP3 PUSH2 0x3C73 JUMP JUMPDEST POP PUSH1 0x20 DUP4 ADD MLOAD PUSH2 0x41DA PUSH1 0x20 DUP7 ADD DUP3 PUSH2 0x3C1E JUMP JUMPDEST POP PUSH1 0x40 DUP4 ADD MLOAD PUSH2 0x41ED PUSH1 0x40 DUP7 ADD DUP3 PUSH2 0x3D73 JUMP JUMPDEST POP PUSH1 0x60 DUP4 ADD MLOAD PUSH2 0x4200 PUSH1 0x60 DUP7 ADD DUP3 PUSH2 0x3D82 JUMP JUMPDEST POP PUSH1 0x80 DUP4 ADD MLOAD PUSH2 0x4213 PUSH1 0x80 DUP7 ADD DUP3 PUSH2 0x3D91 JUMP JUMPDEST POP PUSH1 0xA0 DUP4 ADD MLOAD PUSH2 0x4226 PUSH1 0xA0 DUP7 ADD DUP3 PUSH2 0x3C73 JUMP JUMPDEST POP PUSH1 0xC0 DUP4 ADD MLOAD DUP5 DUP3 SUB PUSH1 0xC0 DUP7 ADD MSTORE PUSH2 0x423E DUP3 DUP3 PUSH2 0x3BE6 JUMP JUMPDEST SWAP2 POP POP PUSH1 0xE0 DUP4 ADD MLOAD PUSH2 0x4253 PUSH1 0xE0 DUP7 ADD DUP3 PUSH2 0x3C82 JUMP JUMPDEST POP DUP1 SWAP2 POP POP SWAP3 SWAP2 POP POP JUMP JUMPDEST PUSH0 PUSH2 0x4269 DUP4 DUP4 PUSH2 0x41B1 JUMP JUMPDEST SWAP1 POP SWAP3 SWAP2 POP POP JUMP JUMPDEST PUSH0 PUSH1 0x20 DUP3 ADD SWAP1 POP SWAP2 SWAP1 POP JUMP JUMPDEST PUSH0 PUSH2 0x4287 DUP3 PUSH2 0x4188 JUMP JUMPDEST PUSH2 0x4291 DUP2 DUP6 PUSH2 0x4192 JUMP JUMPDEST SWAP4 POP DUP4 PUSH1 0x20 DUP3 MUL DUP6 ADD PUSH2 0x42A3 DUP6 PUSH2 0x41A2 JUMP JUMPDEST DUP1 PUSH0 JUMPDEST DUP6 DUP2 LT ISZERO PUSH2 0x42DE JUMPI DUP5 DUP5 SUB DUP10 MSTORE DUP2 MLOAD PUSH2 0x42BF DUP6 DUP3 PUSH2 0x425E JUMP JUMPDEST SWAP5 POP PUSH2 0x42CA DUP4 PUSH2 0x4271 JUMP JUMPDEST SWAP3 POP PUSH1 0x20 DUP11 ADD SWAP10 POP POP PUSH1 0x1 DUP2 ADD SWAP1 POP PUSH2 0x42A6 JUMP JUMPDEST POP DUP3 SWAP8 POP DUP8 SWAP6 POP POP POP POP POP POP SWAP3 SWAP2 POP POP JUMP JUMPDEST PUSH0 PUSH1 0x20 DUP3 ADD SWAP1 POP DUP2 DUP2 SUB PUSH0 DUP4 ADD MSTORE PUSH2 0x4308 DUP2 DUP5 PUSH2 0x427D JUMP JUMPDEST SWAP1 POP SWAP3 SWAP2 POP POP JUMP JUMPDEST PUSH0 PUSH1 0xE0 DUP4 ADD PUSH0 DUP4 ADD MLOAD DUP5 DUP3 SUB PUSH0 DUP7 ADD MSTORE PUSH2 0x432A DUP3 DUP3 PUSH2 0x3BE6 JUMP JUMPDEST SWAP2 POP POP PUSH1 0x20 DUP4 ADD MLOAD DUP5 DUP3 SUB PUSH1 0x20 DUP7 ADD MSTORE PUSH2 0x4344 DUP3 DUP3 PUSH2 0x3BE6 JUMP JUMPDEST SWAP2 POP POP PUSH1 0x40 DUP4 ADD MLOAD DUP5 DUP3 SUB PUSH1 0x40 DUP7 ADD MSTORE PUSH2 0x435E DUP3 DUP3 PUSH2 0x3BE6 JUMP JUMPDEST SWAP2 POP POP PUSH1 0x60 DUP4 ADD MLOAD DUP5 DUP3 SUB PUSH1 0x60 DUP7 ADD MSTORE PUSH2 0x4378 DUP3 DUP3 PUSH2 0x3BE6 JUMP JUMPDEST SWAP2 POP POP PUSH1 0x80 DUP4 ADD MLOAD PUSH2 0x438D PUSH1 0x80 DUP7 ADD DUP3 PUSH2 0x3C73 JUMP JUMPDEST POP PUSH1 0xA0 DUP4 ADD MLOAD PUSH2 0x43A0 PUSH1 0xA0 DUP7 ADD DUP3 PUSH2 0x3C73 JUMP JUMPDEST POP PUSH1 0xC0 DUP4 ADD MLOAD PUSH2 0x43B3 PUSH1 0xC0 DUP7 ADD DUP3 PUSH2 0x3C82 JUMP JUMPDEST POP DUP1 SWAP2 POP POP SWAP3 SWAP2 POP POP JUMP JUMPDEST PUSH0 PUSH1 0x20 DUP3 ADD SWAP1 POP DUP2 DUP2 SUB PUSH0 DUP4 ADD MSTORE PUSH2 0x43D6 DUP2 DUP5 PUSH2 0x4310 JUMP JUMPDEST SWAP1 POP SWAP3 SWAP2 POP POP JUMP JUMPDEST PUSH2 0x43E7 DUP2 PUSH2 0x3C53 JUMP JUMPDEST DUP3 MSTORE POP POP JUMP JUMPDEST PUSH0 PUSH2 0x100 DUP3 ADD SWAP1 POP DUP2 DUP2 SUB PUSH0 DUP4 ADD MSTORE PUSH2 0x4406 DUP2 DUP12 PUSH2 0x37CD JUMP JUMPDEST SWAP1 POP PUSH2 0x4415 PUSH1 0x20 DUP4 ADD DUP11 PUSH2 0x3945 JUMP JUMPDEST DUP2 DUP2 SUB PUSH1 0x40 DUP4 ADD MSTORE PUSH2 0x4427 DUP2 DUP10 PUSH2 0x37CD JUMP JUMPDEST SWAP1 POP PUSH2 0x4436 PUSH1 0x60 DUP4 ADD DUP9 PUSH2 0x43DE JUMP JUMPDEST DUP2 DUP2 SUB PUSH1 0x80 DUP4 ADD MSTORE PUSH2 0x4448 DUP2 DUP8 PUSH2 0x37CD JUMP JUMPDEST SWAP1 POP DUP2 DUP2 SUB PUSH1 0xA0 DUP4 ADD MSTORE PUSH2 0x445C DUP2 DUP7 PUSH2 0x37CD JUMP JUMPDEST SWAP1 POP PUSH2 0x446B PUSH1 0xC0 DUP4 ADD DUP6 PUSH2 0x380E JUMP JUMPDEST PUSH2 0x4478 PUSH1 0xE0 DUP4 ADD DUP5 PUSH2 0x3828 JUMP JUMPDEST SWAP10 SWAP9 POP POP POP POP POP POP POP POP POP JUMP JUMPDEST PUSH0 PUSH2 0x120 DUP4 ADD PUSH0 DUP4 ADD MLOAD DUP5 DUP3 SUB PUSH0 DUP7 ADD MSTORE PUSH2 0x44A0 DUP3 DUP3 PUSH2 0x3BE6 JUMP JUMPDEST SWAP2 POP POP PUSH1 0x20 DUP4 ADD MLOAD DUP5 DUP3 SUB PUSH1 0x20 DUP7 ADD MSTORE PUSH2 0x44BA DUP3 DUP3 PUSH2 0x3BE6 JUMP JUMPDEST SWAP2 POP POP PUSH1 0x40 DUP4 ADD MLOAD DUP5 DUP3 SUB PUSH1 0x40 DUP7 ADD MSTORE PUSH2 0x44D4 DUP3 DUP3 PUSH2 0x3BE6 JUMP JUMPDEST SWAP2 POP POP PUSH1 0x60 DUP4 ADD MLOAD DUP5 DUP3 SUB PUSH1 0x60 DUP7 ADD MSTORE PUSH2 0x44EE DUP3 DUP3 PUSH2 0x3BE6 JUMP JUMPDEST SWAP2 POP POP PUSH1 0x80 DUP4 ADD MLOAD PUSH2 0x4503 PUSH1 0x80 DUP7 ADD DUP3 PUSH2 0x3C73 JUMP JUMPDEST POP PUSH1 0xA0 DUP4 ADD MLOAD PUSH2 0x4516 PUSH1 0xA0 DUP7 ADD DUP3 PUSH2 0x3C73 JUMP JUMPDEST POP PUSH1 0xC0 DUP4 ADD MLOAD PUSH2 0x4529 PUSH1 0xC0 DUP7 ADD DUP3 PUSH2 0x3D91 JUMP JUMPDEST POP PUSH1 0xE0 DUP4 ADD MLOAD PUSH2 0x453C PUSH1 0xE0 DUP7 ADD DUP3 PUSH2 0x3C73 JUMP JUMPDEST POP PUSH2 0x100 DUP4 ADD MLOAD PUSH2 0x4551 PUSH2 0x100 DUP7 ADD DUP3 PUSH2 0x3C82 JUMP JUMPDEST POP DUP1 SWAP2 POP POP SWAP3 SWAP2 POP POP JUMP JUMPDEST PUSH0 PUSH1 0x20 DUP3 ADD SWAP1 POP DUP2 DUP2 SUB PUSH0 DUP4 ADD MSTORE PUSH2 0x4574 DUP2 DUP5 PUSH2 0x4485 JUMP JUMPDEST SWAP1 POP SWAP3 SWAP2 POP POP JUMP JUMPDEST PUSH2 0x4585 DUP2 PUSH2 0x3954 JUMP JUMPDEST DUP2 EQ PUSH2 0x458F JUMPI PUSH0 PUSH0 REVERT JUMPDEST POP JUMP JUMPDEST PUSH0 DUP2 CALLDATALOAD SWAP1 POP PUSH2 0x45A0 DUP2 PUSH2 0x457C JUMP JUMPDEST SWAP3 SWAP2 POP POP JUMP JUMPDEST PUSH0 PUSH0 PUSH1 0x40 DUP4 DUP6 SUB SLT ISZERO PUSH2 0x45BC JUMPI PUSH2 0x45BB PUSH2 0x361A JUMP JUMPDEST JUMPDEST PUSH0 PUSH2 0x45C9 DUP6 DUP3 DUP7 ADD PUSH2 0x38D6 JUMP JUMPDEST SWAP3 POP POP PUSH1 0x20 PUSH2 0x45DA DUP6 DUP3 DUP7 ADD PUSH2 0x4592 JUMP JUMPDEST SWAP2 POP POP SWAP3 POP SWAP3 SWAP1 POP JUMP JUMPDEST PUSH1 0x3 DUP2 LT PUSH2 0x45F0 JUMPI PUSH0 PUSH0 REVERT JUMPDEST POP JUMP JUMPDEST PUSH0 DUP2 CALLDATALOAD SWAP1 POP PUSH2 0x4601 DUP2 PUSH2 0x45E4 JUMP JUMPDEST SWAP3 SWAP2 POP POP JUMP JUMPDEST PUSH0 PUSH0 PUSH0 PUSH1 0x60 DUP5 DUP7 SUB SLT ISZERO PUSH2 0x461E JUMPI PUSH2 0x461D PUSH2 0x361A JUMP JUMPDEST JUMPDEST PUSH0 DUP5 ADD CALLDATALOAD PUSH8 0xFFFFFFFFFFFFFFFF DUP2 GT ISZERO PUSH2 0x463B JUMPI PUSH2 0x463A PUSH2 0x361E JUMP JUMPDEST JUMPDEST PUSH2 0x4647 DUP7 DUP3 DUP8 ADD PUSH2 0x3731 JUMP JUMPDEST SWAP4 POP POP PUSH1 0x20 PUSH2 0x4658 DUP7 DUP3 DUP8 ADD PUSH2 0x45F3 JUMP JUMPDEST SWAP3 POP POP PUSH1 0x40 DUP5 ADD CALLDATALOAD PUSH8 0xFFFFFFFFFFFFFFFF DUP2 GT ISZERO PUSH2 0x4679 JUMPI PUSH2 0x4678 PUSH2 0x361E JUMP JUMPDEST JUMPDEST PUSH2 0x4685 DUP7 DUP3 DUP8 ADD PUSH2 0x3EDE JUMP JUMPDEST SWAP2 POP POP SWAP3 POP SWAP3 POP SWAP3 JUMP JUMPDEST PUSH0 PUSH0 PUSH1 0x40 DUP4 DUP6 SUB SLT ISZERO PUSH2 0x46A5 JUMPI PUSH2 0x46A4 PUSH2 0x361A JUMP JUMPDEST JUMPDEST PUSH0 PUSH2 0x46B2 DUP6 DUP3 DUP7 ADD PUSH2 0x38D6 JUMP JUMPDEST SWAP3 POP POP PUSH1 0x20 DUP4 ADD CALLDATALOAD PUSH8 0xFFFFFFFFFFFFFFFF DUP2 GT ISZERO PUSH2 0x46D3 JUMPI PUSH2 0x46D2 PUSH2 0x361E JUMP JUMPDEST JUMPDEST PUSH2 0x46DF DUP6 DUP3 DUP7 ADD PUSH2 0x3EDE JUMP JUMPDEST SWAP2 POP POP SWAP3 POP SWAP3 SWAP1 POP JUMP JUMPDEST PUSH0 PUSH1 0x20 DUP3 ADD SWAP1 POP PUSH2 0x46FC PUSH0 DUP4 ADD DUP5 PUSH2 0x3945 JUMP JUMPDEST SWAP3 SWAP2 POP POP JUMP JUMPDEST PUSH32 0x4E487B7100000000000000000000000000000000000000000000000000000000 PUSH0 MSTORE PUSH1 0x22 PUSH1 0x4 MSTORE PUSH1 0x24 PUSH0 REVERT JUMPDEST PUSH0 PUSH1 0x2 DUP3 DIV SWAP1 POP PUSH1 0x1 DUP3 AND DUP1 PUSH2 0x4746 JUMPI PUSH1 0x7F DUP3 AND SWAP2 POP JUMPDEST PUSH1 0x20 DUP3 LT DUP2 SUB PUSH2 0x4759 JUMPI PUSH2 0x4758 PUSH2 0x4702 JUMP JUMPDEST JUMPDEST POP SWAP2 SWAP1 POP JUMP JUMPDEST PUSH32 0x4E487B7100000000000000000000000000000000000000000000000000000000 PUSH0 MSTORE PUSH1 0x11 PUSH1 0x4 MSTORE PUSH1 0x24 PUSH0 REVERT JUMPDEST PUSH0 PUSH2 0x4796 DUP3 PUSH2 0x3805 JUMP JUMPDEST SWAP2 POP PUSH2 0x47A1 DUP4 PUSH2 0x3805 JUMP JUMPDEST SWAP3 POP DUP3 DUP3 SUB SWAP1 POP DUP2 DUP2 GT ISZERO PUSH2 0x47B9 JUMPI PUSH2 0x47B8 PUSH2 0x475F JUMP JUMPDEST JUMPDEST SWAP3 SWAP2 POP POP JUMP JUMPDEST PUSH32 0x55736572206E6F7420666F756E64000000000000000000000000000000000000 PUSH0 DUP3 ADD MSTORE POP JUMP JUMPDEST PUSH0 PUSH2 0x47F3 PUSH1 0xE DUP4 PUSH2 0x37AF JUMP JUMPDEST SWAP2 POP PUSH2 0x47FE DUP3 PUSH2 0x47BF JUMP JUMPDEST PUSH1 0x20 DUP3 ADD SWAP1 POP SWAP2 SWAP1 POP JUMP JUMPDEST PUSH0 PUSH1 0x20 DUP3 ADD SWAP1 POP DUP2 DUP2 SUB PUSH0 DUP4 ADD MSTORE PUSH2 0x4820 DUP2 PUSH2 0x47E7 JUMP JUMPDEST SWAP1 POP SWAP2 SWAP1 POP JUMP JUMPDEST PUSH0 DUP2 SWAP1 POP SWAP3 SWAP2 POP POP JUMP JUMPDEST PUSH0 PUSH2 0x483B DUP3 PUSH2 0x37A5 JUMP JUMPDEST PUSH2 0x4845 DUP2 DUP6 PUSH2 0x4827 JUMP JUMPDEST SWAP4 POP PUSH2 0x4855 DUP2 DUP6 PUSH1 0x20 DUP7 ADD PUSH2 0x37BF JUMP JUMPDEST DUP1 DUP5 ADD SWAP2 POP POP SWAP3 SWAP2 POP POP JUMP JUMPDEST PUSH0 PUSH2 0x486C DUP3 DUP5 PUSH2 0x4831 JUMP JUMPDEST SWAP2 POP DUP2 SWAP1 POP SWAP3 SWAP2 POP POP JUMP JUMPDEST PUSH32 0x456E74727920646F6573206E6F74206578697374000000000000000000000000 PUSH0 DUP3 ADD MSTORE POP JUMP JUMPDEST PUSH0 PUSH2 0x48AB PUSH1 0x14 DUP4 PUSH2 0x37AF JUMP JUMPDEST SWAP2 POP PUSH2 0x48B6 DUP3 PUSH2 0x4877 JUMP JUMPDEST PUSH1 0x20 DUP3 ADD SWAP1 POP SWAP2 SWAP1 POP JUMP JUMPDEST PUSH0 PUSH1 0x20 DUP3 ADD SWAP1 POP DUP2 DUP2 SUB PUSH0 DUP4 ADD MSTORE PUSH2 0x48D8 DUP2 PUSH2 0x489F JUMP JUMPDEST SWAP1 POP SWAP2 SWAP1 POP JUMP JUMPDEST PUSH32 0x55736572206E6F74207265676973746572656400000000000000000000000000 PUSH0 DUP3 ADD MSTORE POP JUMP JUMPDEST PUSH0 PUSH2 0x4913 PUSH1 0x13 DUP4 PUSH2 0x37AF JUMP JUMPDEST SWAP2 POP PUSH2 0x491E DUP3 PUSH2 0x48DF JUMP JUMPDEST PUSH1 0x20 DUP3 ADD SWAP1 POP SWAP2 SWAP1 POP JUMP JUMPDEST PUSH0 PUSH1 0x20 DUP3 ADD SWAP1 POP DUP2 DUP2 SUB PUSH0 DUP4 ADD MSTORE PUSH2 0x4940 DUP2 PUSH2 0x4907 JUMP JUMPDEST SWAP1 POP SWAP2 SWAP1 POP JUMP JUMPDEST PUSH32 0x4F7264657220616C726561647920657869737473000000000000000000000000 PUSH0 DUP3 ADD MSTORE POP JUMP JUMPDEST PUSH0 PUSH2 0x497B PUSH1 0x14 DUP4 PUSH2 0x37AF JUMP JUMPDEST SWAP2 POP PUSH2 0x4986 DUP3 PUSH2 0x4947 JUMP JUMPDEST PUSH1 0x20 DUP3 ADD SWAP1 POP SWAP2 SWAP1 POP JUMP JUMPDEST PUSH0 PUSH1 0x20 DUP3 ADD SWAP1 POP DUP2 DUP2 SUB PUSH0 DUP4 ADD MSTORE PUSH2 0x49A8 DUP2 PUSH2 0x496F JUMP JUMPDEST SWAP1 POP SWAP2 SWAP1 POP JUMP JUMPDEST PUSH32 0x53656C6C6572206E6F7420666F756E6400000000000000000000000000000000 PUSH0 DUP3 ADD MSTORE POP JUMP JUMPDEST PUSH0 PUSH2 0x49E3 PUSH1 0x10 DUP4 PUSH2 0x37AF JUMP JUMPDEST SWAP2 POP PUSH2 0x49EE DUP3 PUSH2 0x49AF JUMP JUMPDEST PUSH1 0x20 DUP3 ADD SWAP1 POP SWAP2 SWAP1 POP JUMP JUMPDEST PUSH0 PUSH1 0x20 DUP3 ADD SWAP1 POP DUP2 DUP2 SUB PUSH0 DUP4 ADD MSTORE PUSH2 0x4A10 DUP2 PUSH2 0x49D7 JUMP JUMPDEST SWAP1 POP SWAP2 SWAP1 POP JUMP JUMPDEST PUSH32 0x50726F64756374206E6F7420666F756E64000000000000000000000000000000 PUSH0 DUP3 ADD MSTORE POP JUMP JUMPDEST PUSH0 PUSH2 0x4A4B PUSH1 0x11 DUP4 PUSH2 0x37AF JUMP JUMPDEST SWAP2 POP PUSH2 0x4A56 DUP3 PUSH2 0x4A17 JUMP JUMPDEST PUSH1 0x20 DUP3 ADD SWAP1 POP SWAP2 SWAP1 POP JUMP JUMPDEST PUSH0 PUSH1 0x20 DUP3 ADD SWAP1 POP DUP2 DUP2 SUB PUSH0 DUP4 ADD MSTORE PUSH2 0x4A78 DUP2 PUSH2 0x4A3F JUMP JUMPDEST SWAP1 POP SWAP2 SWAP1 POP JUMP JUMPDEST PUSH0 PUSH2 0x4A89 DUP3 PUSH2 0x3805 JUMP JUMPDEST SWAP2 POP PUSH2 0x4A94 DUP4 PUSH2 0x3805 JUMP JUMPDEST SWAP3 POP DUP3 DUP3 MUL PUSH2 0x4AA2 DUP2 PUSH2 0x3805 JUMP JUMPDEST SWAP2 POP DUP3 DUP3 DIV DUP5 EQ DUP4 ISZERO OR PUSH2 0x4AB9 JUMPI PUSH2 0x4AB8 PUSH2 0x475F JUMP JUMPDEST JUMPDEST POP SWAP3 SWAP2 POP POP JUMP JUMPDEST PUSH0 DUP2 SWAP1 POP SWAP2 SWAP1 POP JUMP JUMPDEST PUSH2 0x4ADA PUSH2 0x4AD5 DUP3 PUSH2 0x3805 JUMP JUMPDEST PUSH2 0x4AC0 JUMP JUMPDEST DUP3 MSTORE POP POP JUMP JUMPDEST PUSH0 PUSH2 0x4AEB DUP3 DUP10 PUSH2 0x4831 JUMP JUMPDEST SWAP2 POP PUSH2 0x4AF7 DUP3 DUP9 PUSH2 0x4831 JUMP JUMPDEST SWAP2 POP PUSH2 0x4B03 DUP3 DUP8 PUSH2 0x4831 JUMP JUMPDEST SWAP2 POP PUSH2 0x4B0F DUP3 DUP7 PUSH2 0x4831 JUMP JUMPDEST SWAP2 POP PUSH2 0x4B1B DUP3 DUP6 PUSH2 0x4AC9 JUMP JUMPDEST PUSH1 0x20 DUP3 ADD SWAP2 POP PUSH2 0x4B2B DUP3 DUP5 PUSH2 0x4AC9 JUMP JUMPDEST PUSH1 0x20 DUP3 ADD SWAP2 POP DUP2 SWAP1 POP SWAP8 SWAP7 POP POP POP POP POP POP POP JUMP JUMPDEST PUSH32 0x496E76616C6964207369676E6174757265000000000000000000000000000000 PUSH0 DUP3 ADD MSTORE POP JUMP JUMPDEST PUSH0 PUSH2 0x4B73 PUSH1 0x11 DUP4 PUSH2 0x37AF JUMP JUMPDEST SWAP2 POP PUSH2 0x4B7E DUP3 PUSH2 0x4B3F JUMP JUMPDEST PUSH1 0x20 DUP3 ADD SWAP1 POP SWAP2 SWAP1 POP JUMP JUMPDEST PUSH0 PUSH1 0x20 DUP3 ADD SWAP1 POP DUP2 DUP2 SUB PUSH0 DUP4 ADD MSTORE PUSH2 0x4BA0 DUP2 PUSH2 0x4B67 JUMP JUMPDEST SWAP1 POP SWAP2 SWAP1 POP JUMP JUMPDEST PUSH0 DUP2 SWAP1 POP DUP2 PUSH0 MSTORE PUSH1 0x20 PUSH0 KECCAK256 SWAP1 POP SWAP2 SWAP1 POP JUMP JUMPDEST PUSH0 PUSH1 0x20 PUSH1 0x1F DUP4 ADD DIV SWAP1 POP SWAP2 SWAP1 POP JUMP JUMPDEST PUSH0 DUP3 DUP3 SHL SWAP1 POP SWAP3 SWAP2 POP POP JUMP JUMPDEST PUSH0 PUSH1 0x8 DUP4 MUL PUSH2 0x4C03 PUSH32 0xFFFFFFFFFFFFFFFFFFFFFFFFFFFFFFFFFFFFFFFFFFFFFFFFFFFFFFFFFFFFFFFF DUP3 PUSH2 0x4BC8 JUMP JUMPDEST PUSH2 0x4C0D DUP7 DUP4 PUSH2 0x4BC8 JUMP JUMPDEST SWAP6 POP DUP1 NOT DUP5 AND SWAP4 POP DUP1 DUP7 AND DUP5 OR SWAP3 POP POP POP SWAP4 SWAP3 POP POP POP JUMP JUMPDEST PUSH0 DUP2 SWAP1 POP SWAP2 SWAP1 POP JUMP JUMPDEST PUSH0 PUSH2 0x4C48 PUSH2 0x4C43 PUSH2 0x4C3E DUP5 PUSH2 0x3805 JUMP JUMPDEST PUSH2 0x4C25 JUMP JUMPDEST PUSH2 0x3805 JUMP JUMPDEST SWAP1 POP SWAP2 SWAP1 POP JUMP JUMPDEST PUSH0 DUP2 SWAP1 POP SWAP2 SWAP1 POP JUMP JUMPDEST PUSH2 0x4C61 DUP4 PUSH2 0x4C2E JUMP JUMPDEST PUSH2 0x4C75 PUSH2 0x4C6D DUP3 PUSH2 0x4C4F JUMP JUMPDEST DUP5 DUP5 SLOAD PUSH2 0x4BD4 JUMP JUMPDEST DUP3 SSTORE POP POP POP POP JUMP JUMPDEST PUSH0 PUSH0 SWAP1 POP SWAP1 JUMP JUMPDEST PUSH2 0x4C8C PUSH2 0x4C7D JUMP JUMPDEST PUSH2 0x4C97 DUP2 DUP5 DUP5 PUSH2 0x4C58 JUMP JUMPDEST POP POP POP JUMP JUMPDEST JUMPDEST DUP2 DUP2 LT ISZERO PUSH2 0x4CBA JUMPI PUSH2 0x4CAF PUSH0 DUP3 PUSH2 0x4C84 JUMP JUMPDEST PUSH1 0x1 DUP2 ADD SWAP1 POP PUSH2 0x4C9D JUMP JUMPDEST POP POP JUMP JUMPDEST PUSH1 0x1F DUP3 GT ISZERO PUSH2 0x4CFF JUMPI PUSH2 0x4CD0 DUP2 PUSH2 0x4BA7 JUMP JUMPDEST PUSH2 0x4CD9 DUP5 PUSH2 0x4BB9 JUMP JUMPDEST DUP2 ADD PUSH1 0x20 DUP6 LT ISZERO PUSH2 0x4CE8 JUMPI DUP2 SWAP1 POP JUMPDEST PUSH2 0x4CFC PUSH2 0x4CF4 DUP6 PUSH2 0x4BB9 JUMP JUMPDEST DUP4 ADD DUP3 PUSH2 0x4C9C JUMP JUMPDEST POP POP JUMPDEST POP POP POP JUMP JUMPDEST PUSH0 DUP3 DUP3 SHR SWAP1 POP SWAP3 SWAP2 POP POP JUMP JUMPDEST PUSH0 PUSH2 0x4D1F PUSH0 NOT DUP5 PUSH1 0x8 MUL PUSH2 0x4D04 JUMP JUMPDEST NOT DUP1 DUP4 AND SWAP2 POP POP SWAP3 SWAP2 POP POP JUMP JUMPDEST PUSH0 PUSH2 0x4D37 DUP4 DUP4 PUSH2 0x4D10 JUMP JUMPDEST SWAP2 POP DUP3 PUSH1 0x2 MUL DUP3 OR SWAP1 POP SWAP3 SWAP2 POP POP JUMP JUMPDEST PUSH2 0x4D50 DUP3 PUSH2 0x37A5 JUMP JUMPDEST PUSH8 0xFFFFFFFFFFFFFFFF DUP2 GT ISZERO PUSH2 0x4D69 JUMPI PUSH2 0x4D68 PUSH2 0x363A JUMP JUMPDEST JUMPDEST PUSH2 0x4D73 DUP3 SLOAD PUSH2 0x472F JUMP JUMPDEST PUSH2 0x4D7E DUP3 DUP3 DUP6 PUSH2 0x4CBE JUMP JUMPDEST PUSH0 PUSH1 0x20 SWAP1 POP PUSH1 0x1F DUP4 GT PUSH1 0x1 DUP2 EQ PUSH2 0x4DAF JUMPI PUSH0 DUP5 ISZERO PUSH2 0x4D9D JUMPI DUP3 DUP8 ADD MLOAD SWAP1 POP JUMPDEST PUSH2 0x4DA7 DUP6 DUP3 PUSH2 0x4D2C JUMP JUMPDEST DUP7 SSTORE POP PUSH2 0x4E0E JUMP JUMPDEST PUSH1 0x1F NOT DUP5 AND PUSH2 0x4DBD DUP7 PUSH2 0x4BA7 JUMP JUMPDEST PUSH0 JUMPDEST DUP3 DUP2 LT ISZERO PUSH2 0x4DE4 JUMPI DUP5 DUP10 ADD MLOAD DUP3 SSTORE PUSH1 0x1 DUP3 ADD SWAP2 POP PUSH1 0x20 DUP6 ADD SWAP5 POP PUSH1 0x20 DUP2 ADD SWAP1 POP PUSH2 0x4DBF JUMP JUMPDEST DUP7 DUP4 LT ISZERO PUSH2 0x4E01 JUMPI DUP5 DUP10 ADD MLOAD PUSH2 0x4DFD PUSH1 0x1F DUP10 AND DUP3 PUSH2 0x4D10 JUMP JUMPDEST DUP4 SSTORE POP JUMPDEST PUSH1 0x1 PUSH1 0x2 DUP9 MUL ADD DUP9 SSTORE POP POP POP JUMPDEST POP POP POP POP POP POP JUMP JUMPDEST PUSH32 0x4F726465723A0000000000000000000000000000000000000000000000000000 PUSH0 DUP3 ADD MSTORE POP JUMP JUMPDEST PUSH0 PUSH2 0x4E4A PUSH1 0x6 DUP4 PUSH2 0x4827 JUMP JUMPDEST SWAP2 POP PUSH2 0x4E55 DUP3 PUSH2 0x4E16 JUMP JUMPDEST PUSH1 0x6 DUP3 ADD SWAP1 POP SWAP2 SWAP1 POP JUMP JUMPDEST PUSH0 PUSH2 0x4E6A DUP3 PUSH2 0x4E3E JUMP JUMPDEST SWAP2 POP PUSH2 0x4E76 DUP3 DUP5 PUSH2 0x4831 JUMP JUMPDEST SWAP2 POP DUP2 SWAP1 POP SWAP3 SWAP2 POP POP JUMP JUMPDEST PUSH0 PUSH1 0x40 DUP3 ADD SWAP1 POP DUP2 DUP2 SUB PUSH0 DUP4 ADD MSTORE PUSH2 0x4E99 DUP2 DUP6 PUSH2 0x37CD JUMP JUMPDEST SWAP1 POP DUP2 DUP2 SUB PUSH1 0x20 DUP4 ADD MSTORE PUSH2 0x4EAD DUP2 DUP5 PUSH2 0x37CD JUMP JUMPDEST SWAP1 POP SWAP4 SWAP3 POP POP POP JUMP JUMPDEST PUSH32 0x57616C6C657420616C7265616479207265676973746572656400000000000000 PUSH0 DUP3 ADD MSTORE POP JUMP JUMPDEST PUSH0 PUSH2 0x4EEA PUSH1 0x19 DUP4 PUSH2 0x37AF JUMP JUMPDEST SWAP2 POP PUSH2 0x4EF5 DUP3 PUSH2 0x4EB6 JUMP JUMPDEST PUSH1 0x20 DUP3 ADD SWAP1 POP SWAP2 SWAP1 POP JUMP JUMPDEST PUSH0 PUSH1 0x20 DUP3 ADD SWAP1 POP DUP2 DUP2 SUB PUSH0 DUP4 ADD MSTORE PUSH2 0x4F17 DUP2 PUSH2 0x4EDE JUMP JUMPDEST SWAP1 POP SWAP2 SWAP1 POP JUMP JUMPDEST PUSH32 0x5573657220494420616C72656164792065786973747300000000000000000000 PUSH0 DUP3 ADD MSTORE POP JUMP JUMPDEST PUSH0 PUSH2 0x4F52 PUSH1 0x16 DUP4 PUSH2 0x37AF JUMP JUMPDEST SWAP2 POP PUSH2 0x4F5D DUP3 PUSH2 0x4F1E JUMP JUMPDEST PUSH1 0x20 DUP3 ADD SWAP1 POP SWAP2 SWAP1 POP JUMP JUMPDEST PUSH0 PUSH1 0x20 DUP3 ADD SWAP1 POP DUP2 DUP2 SUB PUSH0 DUP4 ADD MSTORE PUSH2 0x4F7F DUP2 PUSH2 0x4F46 JUMP JUMPDEST SWAP1 POP SWAP2 SWAP1 POP JUMP JUMPDEST PUSH0 DUP2 PUSH1 0x60 SHL SWAP1 POP SWAP2 SWAP1 POP JUMP JUMPDEST PUSH0 PUSH2 0x4F9C DUP3 PUSH2 0x4F86 JUMP JUMPDEST SWAP1 POP SWAP2 SWAP1 POP JUMP JUMPDEST PUSH0 PUSH2 0x4FAD DUP3 PUSH2 0x4F92 JUMP JUMPDEST SWAP1 POP SWAP2 SWAP1 POP JUMP JUMPDEST PUSH2 0x4FC5 PUSH2 0x4FC0 DUP3 PUSH2 0x3934 JUMP JUMPDEST PUSH2 0x4FA3 JUMP JUMPDEST DUP3 MSTORE POP POP JUMP JUMPDEST PUSH0 PUSH2 0x4FD6 DUP3 DUP10 PUSH2 0x4831 JUMP JUMPDEST SWAP2 POP PUSH2 0x4FE2 DUP3 DUP9 PUSH2 0x4831 JUMP JUMPDEST SWAP2 POP PUSH2 0x4FEE DUP3 DUP8 PUSH2 0x4AC9 JUMP JUMPDEST PUSH1 0x20 DUP3 ADD SWAP2 POP PUSH2 0x4FFE DUP3 DUP7 PUSH2 0x4831 JUMP JUMPDEST SWAP2 POP PUSH2 0x500A DUP3 DUP6 PUSH2 0x4831 JUMP JUMPDEST SWAP2 POP PUSH2 0x5016 DUP3 DUP5 PUSH2 0x4FB4 JUMP JUMPDEST PUSH1 0x14 DUP3 ADD SWAP2 POP DUP2 SWAP1 POP SWAP8 SWAP7 POP POP POP POP POP POP POP JUMP JUMPDEST PUSH32 0x557365723A000000000000000000000000000000000000000000000000000000 PUSH0 DUP3 ADD MSTORE POP JUMP JUMPDEST PUSH0 PUSH2 0x505E PUSH1 0x5 DUP4 PUSH2 0x4827 JUMP JUMPDEST SWAP2 POP PUSH2 0x5069 DUP3 PUSH2 0x502A JUMP JUMPDEST PUSH1 0x5 DUP3 ADD SWAP1 POP SWAP2 SWAP1 POP JUMP JUMPDEST PUSH0 PUSH2 0x507E DUP3 PUSH2 0x5052 JUMP JUMPDEST SWAP2 POP PUSH2 0x508A DUP3 DUP5 PUSH2 0x4831 JUMP JUMPDEST SWAP2 POP DUP2 SWAP1 POP SWAP3 SWAP2 POP POP JUMP JUMPDEST PUSH32 0x496E76616C69642072616E676500000000000000000000000000000000000000 PUSH0 DUP3 ADD MSTORE POP JUMP JUMPDEST PUSH0 PUSH2 0x50C9 PUSH1 0xD DUP4 PUSH2 0x37AF JUMP JUMPDEST SWAP2 POP PUSH2 0x50D4 DUP3 PUSH2 0x5095 JUMP JUMPDEST PUSH1 0x20 DUP3 ADD SWAP1 POP SWAP2 SWAP1 POP JUMP JUMPDEST PUSH0 PUSH1 0x20 DUP3 ADD SWAP1 POP DUP2 DUP2 SUB PUSH0 DUP4 ADD MSTORE PUSH2 0x50F6 DUP2 PUSH2 0x50BD JUMP JUMPDEST SWAP1 POP SWAP2 SWAP1 POP JUMP JUMPDEST PUSH0 PUSH2 0x5107 DUP3 PUSH2 0x3805 JUMP JUMPDEST SWAP2 POP PUSH2 0x5112 DUP4 PUSH2 0x3805 JUMP JUMPDEST SWAP3 POP DUP3 DUP3 ADD SWAP1 POP DUP1 DUP3 GT ISZERO PUSH2 0x512A JUMPI PUSH2 0x5129 PUSH2 0x475F JUMP JUMPDEST JUMPDEST SWAP3 SWAP2 POP POP JUMP JUMPDEST PUSH32 0x4E487B7100000000000000000000000000000000000000000000000000000000 PUSH0 MSTORE PUSH1 0x32 PUSH1 0x4 MSTORE PUSH1 0x24 PUSH0 REVERT JUMPDEST PUSH32 0x4F72646572206E6F7420666F756E640000000000000000000000000000000000 PUSH0 DUP3 ADD MSTORE POP JUMP JUMPDEST PUSH0 PUSH2 0x5191 PUSH1 0xF DUP4 PUSH2 0x37AF JUMP JUMPDEST SWAP2 POP PUSH2 0x519C DUP3 PUSH2 0x515D JUMP JUMPDEST PUSH1 0x20 DUP3 ADD SWAP1 POP SWAP2 SWAP1 POP JUMP JUMPDEST PUSH0 PUSH1 0x20 DUP3 ADD SWAP1 POP DUP2 DUP2 SUB PUSH0 DUP4 ADD MSTORE PUSH2 0x51BE DUP2 PUSH2 0x5185 JUMP JUMPDEST SWAP1 POP SWAP2 SWAP1 POP JUMP JUMPDEST PUSH32 0x50726F6475637420616C72656164792065786973747300000000000000000000 PUSH0 DUP3 ADD MSTORE POP JUMP JUMPDEST PUSH0 PUSH2 0x51F9 PUSH1 0x16 DUP4 PUSH2 0x37AF JUMP JUMPDEST SWAP2 POP PUSH2 0x5204 DUP3 PUSH2 0x51C5 JUMP JUMPDEST PUSH1 0x20 DUP3 ADD SWAP1 POP SWAP2 SWAP1 POP JUMP JUMPDEST PUSH0 PUSH1 0x20 DUP3 ADD SWAP1 POP DUP2 DUP2 SUB PUSH0 DUP4 ADD MSTORE PUSH2 0x5226 DUP2 PUSH2 0x51ED JUMP JUMPDEST SWAP1 POP SWAP2 SWAP1 POP JUMP JUMPDEST PUSH0 DUP2 SLOAD PUSH2 0x5239 DUP2 PUSH2 0x472F JUMP JUMPDEST PUSH2 0x5243 DUP2 DUP7 PUSH2 0x4827 JUMP JUMPDEST SWAP5 POP PUSH1 0x1 DUP3 AND PUSH0 DUP2 EQ PUSH2 0x525D JUMPI PUSH1 0x1 DUP2 EQ PUSH2 0x5272 JUMPI PUSH2 0x52A4 JUMP JUMPDEST PUSH1 0xFF NOT DUP4 AND DUP7 MSTORE DUP2 ISZERO ISZERO DUP3 MUL DUP7 ADD SWAP4 POP PUSH2 0x52A4 JUMP JUMPDEST PUSH2 0x527B DUP6 PUSH2 0x4BA7 JUMP JUMPDEST PUSH0 JUMPDEST DUP4 DUP2 LT ISZERO PUSH2 0x529C JUMPI DUP2 SLOAD DUP2 DUP10 ADD MSTORE PUSH1 0x1 DUP3 ADD SWAP2 POP PUSH1 0x20 DUP2 ADD SWAP1 POP PUSH2 0x527D JUMP JUMPDEST DUP4 DUP9 ADD SWAP6 POP POP POP JUMPDEST POP POP POP SWAP3 SWAP2 POP POP JUMP JUMPDEST PUSH0 PUSH2 0x52B8 DUP3 DUP5 PUSH2 0x522D JUMP JUMPDEST SWAP2 POP DUP2 SWAP1 POP SWAP3 SWAP2 POP POP JUMP JUMPDEST PUSH32 0x4F6E6C79206661726D6572732063616E2072656769737465722070726F647563 PUSH0 DUP3 ADD MSTORE PUSH32 0x7473000000000000000000000000000000000000000000000000000000000000 PUSH1 0x20 DUP3 ADD MSTORE POP JUMP JUMPDEST PUSH0 PUSH2 0x531D PUSH1 0x22 DUP4 PUSH2 0x37AF JUMP JUMPDEST SWAP2 POP PUSH2 0x5328 DUP3 PUSH2 0x52C3 JUMP JUMPDEST PUSH1 0x40 DUP3 ADD SWAP1 POP SWAP2 SWAP1 POP JUMP JUMPDEST PUSH0 PUSH1 0x20 DUP3 ADD SWAP1 POP DUP2 DUP2 SUB PUSH0 DUP4 ADD MSTORE PUSH2 0x534A DUP2 PUSH2 0x5311 JUMP JUMPDEST SWAP1 POP SWAP2 SWAP1 POP JUMP JUMPDEST PUSH0 PUSH2 0x535C DUP3 DUP9 PUSH2 0x4831 JUMP JUMPDEST SWAP2 POP PUSH2 0x5368 DUP3 DUP8 PUSH2 0x4831 JUMP JUMPDEST SWAP2 POP PUSH2 0x5374 DUP3 DUP7 PUSH2 0x4831 JUMP JUMPDEST SWAP2 POP PUSH2 0x5380 DUP3 DUP6 PUSH2 0x4831 JUMP JUMPDEST SWAP2 POP PUSH2 0x538C DUP3 DUP5 PUSH2 0x4AC9 JUMP JUMPDEST PUSH1 0x20 DUP3 ADD SWAP2 POP DUP2 SWAP1 POP SWAP7 SWAP6 POP POP POP POP POP POP JUMP JUMPDEST PUSH32 0x50726F647563743A000000000000000000000000000000000000000000000000 PUSH0 DUP3 ADD MSTORE POP JUMP JUMPDEST PUSH0 PUSH2 0x53D3 PUSH1 0x8 DUP4 PUSH2 0x4827 JUMP JUMPDEST SWAP2 POP PUSH2 0x53DE DUP3 PUSH2 0x539F JUMP JUMPDEST PUSH1 0x8 DUP3 ADD SWAP1 POP SWAP2 SWAP1 POP JUMP JUMPDEST PUSH0 PUSH2 0x53F3 DUP3 PUSH2 0x53C7 JUMP JUMPDEST SWAP2 POP PUSH2 0x53FF DUP3 DUP5 PUSH2 0x4831 JUMP JUMPDEST SWAP2 POP DUP2 SWAP1 POP SWAP3 SWAP2 POP POP JUMP JUMPDEST PUSH0 DUP2 SWAP1 POP SWAP3 SWAP2 POP POP JUMP JUMPDEST PUSH0 DUP2 SWAP1 POP DUP2 PUSH0 MSTORE PUSH1 0x20 PUSH0 KECCAK256 SWAP1 POP SWAP2 SWAP1 POP JUMP JUMPDEST PUSH0 DUP2 SLOAD PUSH2 0x5432 DUP2 PUSH2 0x472F JUMP JUMPDEST PUSH2 0x543C DUP2 DUP7 PUSH2 0x540A JUMP JUMPDEST SWAP5 POP PUSH1 0x1 DUP3 AND PUSH0 DUP2 EQ PUSH2 0x5456 JUMPI PUSH1 0x1 DUP2 EQ PUSH2 0x546B JUMPI PUSH2 0x549D JUMP JUMPDEST PUSH1 0xFF NOT DUP4 AND DUP7 MSTORE DUP2 ISZERO ISZERO DUP3 MUL DUP7 ADD SWAP4 POP PUSH2 0x549D JUMP JUMPDEST PUSH2 0x5474 DUP6 PUSH2 0x5414 JUMP JUMPDEST PUSH0 JUMPDEST DUP4 DUP2 LT ISZERO PUSH2 0x5495 JUMPI DUP2 SLOAD DUP2 DUP10 ADD MSTORE PUSH1 0x1 DUP3 ADD SWAP2 POP PUSH1 0x20 DUP2 ADD SWAP1 POP PUSH2 0x5476 JUMP JUMPDEST DUP4 DUP9 ADD SWAP6 POP POP POP JUMPDEST POP POP POP SWAP3 SWAP2 POP POP JUMP JUMPDEST PUSH0 PUSH2 0x54B1 DUP3 DUP5 PUSH2 0x5426 JUMP JUMPDEST SWAP2 POP DUP2 SWAP1 POP SWAP3 SWAP2 POP POP JUMP JUMPDEST PUSH32 0x4E6F7420617574686F72697A656420746F207570646174652074686973206F72 PUSH0 DUP3 ADD MSTORE PUSH32 0x6465720000000000000000000000000000000000000000000000000000000000 PUSH1 0x20 DUP3 ADD MSTORE POP JUMP JUMPDEST PUSH0 PUSH2 0x5516 PUSH1 0x23 DUP4 PUSH2 0x37AF JUMP JUMPDEST SWAP2 POP PUSH2 0x5521 DUP3 PUSH2 0x54BC JUMP JUMPDEST PUSH1 0x40 DUP3 ADD SWAP1 POP SWAP2 SWAP1 POP JUMP JUMPDEST PUSH0 PUSH1 0x20 DUP3 ADD SWAP1 POP DUP2 DUP2 SUB PUSH0 DUP4 ADD MSTORE PUSH2 0x5543 DUP2 PUSH2 0x550A JUMP JUMPDEST SWAP1 POP SWAP2 SWAP1 POP JUMP JUMPDEST PUSH0 PUSH2 0x5555 DUP3 DUP7 PUSH2 0x4831 JUMP JUMPDEST SWAP2 POP PUSH2 0x5561 DUP3 DUP6 PUSH2 0x4AC9 JUMP JUMPDEST PUSH1 0x20 DUP3 ADD SWAP2 POP PUSH2 0x5571 DUP3 DUP5 PUSH2 0x4AC9 JUMP JUMPDEST PUSH1 0x20 DUP3 ADD SWAP2 POP DUP2 SWAP1 POP SWAP5 SWAP4 POP POP POP POP JUMP JUMPDEST PUSH32 0x4F726465725374617475733A0000000000000000000000000000000000000000 PUSH0 DUP3 ADD MSTORE POP JUMP JUMPDEST PUSH0 PUSH2 0x55B6 PUSH1 0xC DUP4 PUSH2 0x4827 JUMP JUMPDEST SWAP2 POP PUSH2 0x55C1 DUP3 PUSH2 0x5582 JUMP JUMPDEST PUSH1 0xC DUP3 ADD SWAP1 POP SWAP2 SWAP1 POP JUMP JUMPDEST PUSH0 PUSH2 0x55D6 DUP3 PUSH2 0x55AA JUMP JUMPDEST SWAP2 POP PUSH2 0x55E2 DUP3 DUP5 PUSH2 0x4831 JUMP JUMPDEST SWAP2 POP DUP2 SWAP1 POP SWAP3 SWAP2 POP POP JUMP JUMPDEST PUSH32 0x5472616E73616374696F6E20616C72656164792070726F636573736564000000 PUSH0 DUP3 ADD MSTORE POP JUMP JUMPDEST PUSH0 PUSH2 0x5621 PUSH1 0x1D DUP4 PUSH2 0x37AF JUMP JUMPDEST SWAP2 POP PUSH2 0x562C DUP3 PUSH2 0x55ED JUMP JUMPDEST PUSH1 0x20 DUP3 ADD SWAP1 POP SWAP2 SWAP1 POP JUMP JUMPDEST PUSH0 PUSH1 0x20 DUP3 ADD SWAP1 POP DUP2 DUP2 SUB PUSH0 DUP4 ADD MSTORE PUSH2 0x564E DUP2 PUSH2 0x5615 JUMP JUMPDEST SWAP1 POP SWAP2 SWAP1 POP JUMP JUMPDEST PUSH32 0x434F4E4649524D00000000000000000000000000000000000000000000000000 PUSH0 DUP3 ADD MSTORE POP JUMP JUMPDEST PUSH0 PUSH2 0x5689 PUSH1 0x7 DUP4 PUSH2 0x4827 JUMP JUMPDEST SWAP2 POP PUSH2 0x5694 DUP3 PUSH2 0x5655 JUMP JUMPDEST PUSH1 0x7 DUP3 ADD SWAP1 POP SWAP2 SWAP1 POP JUMP JUMPDEST PUSH0 PUSH2 0x56AA DUP3 DUP6 PUSH2 0x4AC9 JUMP JUMPDEST PUSH1 0x20 DUP3 ADD SWAP2 POP PUSH2 0x56B9 DUP3 PUSH2 0x567D JUMP JUMPDEST SWAP2 POP PUSH2 0x56C5 DUP3 DUP5 PUSH2 0x4AC9 JUMP JUMPDEST PUSH1 0x20 DUP3 ADD SWAP2 POP DUP2 SWAP1 POP SWAP4 SWAP3 POP POP POP JUMP JUMPDEST PUSH32 0x496E76616C696420636F6E6669726D6174696F6E207369676E61747572650000 PUSH0 DUP3 ADD MSTORE POP JUMP JUMPDEST PUSH0 PUSH2 0x5709 PUSH1 0x1E DUP4 PUSH2 0x37AF JUMP JUMPDEST SWAP2 POP PUSH2 0x5714 DUP3 PUSH2 0x56D5 JUMP JUMPDEST PUSH1 0x20 DUP3 ADD SWAP1 POP SWAP2 SWAP1 POP JUMP JUMPDEST PUSH0 PUSH1 0x20 DUP3 ADD SWAP1 POP DUP2 DUP2 SUB PUSH0 DUP4 ADD MSTORE PUSH2 0x5736 DUP2 PUSH2 0x56FD JUMP JUMPDEST SWAP1 POP SWAP2 SWAP1 POP JUMP JUMPDEST PUSH32 0x19457468657265756D205369676E6564204D6573736167653A0A333200000000 PUSH0 DUP3 ADD MSTORE POP JUMP JUMPDEST PUSH0 PUSH2 0x5771 PUSH1 0x1C DUP4 PUSH2 0x4827 JUMP JUMPDEST SWAP2 POP PUSH2 0x577C DUP3 PUSH2 0x573D JUMP JUMPDEST PUSH1 0x1C DUP3 ADD SWAP1 POP SWAP2 SWAP1 POP JUMP JUMPDEST PUSH0 DUP2 SWAP1 POP SWAP2 SWAP1 POP JUMP JUMPDEST PUSH2 0x57A1 PUSH2 0x579C DUP3 PUSH2 0x3954 JUMP JUMPDEST PUSH2 0x5787 JUMP JUMPDEST DUP3 MSTORE POP POP JUMP JUMPDEST PUSH0 PUSH2 0x57B1 DUP3 PUSH2 0x5765 JUMP JUMPDEST SWAP2 POP PUSH2 0x57BD DUP3 DUP5 PUSH2 0x5790 JUMP JUMPDEST PUSH1 0x20 DUP3 ADD SWAP2 POP DUP2 SWAP1 POP SWAP3 SWAP2 POP POP JUMP JUMPDEST PUSH0 PUSH1 0x40 DUP3 ADD SWAP1 POP PUSH2 0x57DF PUSH0 DUP4 ADD DUP6 PUSH2 0x395D JUMP JUMPDEST PUSH2 0x57EC PUSH1 0x20 DUP4 ADD DUP5 PUSH2 0x39D0 JUMP JUMPDEST SWAP4 SWAP3 POP POP POP JUMP JUMPDEST PUSH0 PUSH2 0x57FD DUP3 PUSH2 0x3805 JUMP JUMPDEST SWAP2 POP PUSH32 0xFFFFFFFFFFFFFFFFFFFFFFFFFFFFFFFFFFFFFFFFFFFFFFFFFFFFFFFFFFFFFFFF DUP3 SUB PUSH2 0x582F JUMPI PUSH2 0x582E PUSH2 0x475F JUMP JUMPDEST JUMPDEST PUSH1 0x1 DUP3 ADD SWAP1 POP SWAP2 SWAP1 POP JUMP JUMPDEST PUSH32 0x496E76616C6964207369676E6174757265206C656E6774680000000000000000 PUSH0 DUP3 ADD MSTORE POP JUMP JUMPDEST PUSH0 PUSH2 0x586E PUSH1 0x18 DUP4 PUSH2 0x37AF JUMP JUMPDEST SWAP2 POP PUSH2 0x5879 DUP3 PUSH2 0x583A JUMP JUMPDEST PUSH1 0x20 DUP3 ADD SWAP1 POP SWAP2 SWAP1 POP JUMP JUMPDEST PUSH0 PUSH1 0x20 DUP3 ADD SWAP1 POP DUP2 DUP2 SUB PUSH0 DUP4 ADD MSTORE PUSH2 0x589B DUP2 PUSH2 0x5862 JUMP JUMPDEST SWAP1 POP SWAP2 SWAP1 POP JUMP JUMPDEST PUSH0 PUSH1 0xFF DUP3 AND SWAP1 POP SWAP2 SWAP1 POP JUMP JUMPDEST PUSH0 PUSH2 0x58B8 DUP3 PUSH2 0x58A2 JUMP JUMPDEST SWAP2 POP PUSH2 0x58C3 DUP4 PUSH2 0x58A2 JUMP JUMPDEST SWAP3 POP DUP3 DUP3 ADD SWAP1 POP PUSH1 0xFF DUP2 GT ISZERO PUSH2 0x58DC JUMPI PUSH2 0x58DB PUSH2 0x475F JUMP JUMPDEST JUMPDEST SWAP3 SWAP2 POP POP JUMP JUMPDEST PUSH32 0x496E76616C6964207369676E617475726520762076616C756500000000000000 PUSH0 DUP3 ADD MSTORE POP JUMP JUMPDEST PUSH0 PUSH2 0x5916 PUSH1 0x19 DUP4 PUSH2 0x37AF JUMP JUMPDEST SWAP2 POP PUSH2 0x5921 DUP3 PUSH2 0x58E2 JUMP JUMPDEST PUSH1 0x20 DUP3 ADD SWAP1 POP SWAP2 SWAP1 POP JUMP JUMPDEST PUSH0 PUSH1 0x20 DUP3 ADD SWAP1 POP DUP2 DUP2 SUB PUSH0 DUP4 ADD MSTORE PUSH2 0x5943 DUP2 PUSH2 0x590A JUMP JUMPDEST SWAP1 POP SWAP2 SWAP1 POP JUMP JUMPDEST PUSH2 0x5953 DUP2 PUSH2 0x58A2 JUMP JUMPDEST DUP3 MSTORE POP POP JUMP JUMPDEST PUSH0 PUSH1 0x80 DUP3 ADD SWAP1 POP PUSH2 0x596C PUSH0 DUP4 ADD DUP8 PUSH2 0x395D JUMP JUMPDEST PUSH2 0x5979 PUSH1 0x20 DUP4 ADD DUP7 PUSH2 0x594A JUMP JUMPDEST PUSH2 0x5986 PUSH1 0x40 DUP4 ADD DUP6 PUSH2 0x395D JUMP JUMPDEST PUSH2 0x5993 PUSH1 0x60 DUP4 ADD DUP5 PUSH2 0x395D JUMP JUMPDEST SWAP6 SWAP5 POP POP POP POP POP JUMP INVALID LOG2 PUSH5 0x6970667358 0x22 SLT KECCAK256 0xB4 PUSH22 0xBA44A6182268ABCA674563122191EE936A953475FECD BLOBBASEFEE JUMPF 0x78DE JUMPI 0xD2 DUP11 DUP4 PUSH5 0x736F6C6343 STOP ADDMOD 0x1E STOP CALLER "
		},
		"gasEstimates": {
			"creation": {
				"codeDepositCost": "4598800",
				"executionCost": "51751",
				"totalCost": "4650551"
			},
			"external": {
				"admin()": "2618",
				"confirmTransaction(uint256,bytes)": "infinite",
				"createOrder(string,string,string,uint256,bytes)": "infinite",
				"getLedgerEntry(uint256)": "infinite",
				"getLedgerHistory(uint256,uint256)": "infinite",
				"getOrder(string)": "infinite",
				"getProduct(string)": "infinite",
				"getTotalEntries()": "infinite",
				"getUserByWallet(address)": "infinite",
				"isUserRegistered(address)": "3062",
				"ledger(uint256)": "infinite",
				"ledgerCounter()": "2448",
				"orders(string)": "infinite",
				"products(string)": "infinite",
				"registerProduct(string,string,string,uint256,bytes)": "infinite",
				"registerUser(string,string,uint8,string,string,bytes)": "infinite",
				"updateOrderStatus(string,uint8,bytes)": "infinite",
				"users(string)": "infinite",
				"verifyDataIntegrity(uint256,bytes32)": "5211",
				"walletToUserId(address)": "infinite"
			},
			"internal": {
				"_createLedgerEntry(bytes32,enum FlargoLedger.TransactionType,string memory)": "infinite",
				"_recoverSigner(bytes32,bytes memory)": "infinite",
				"_verifySignature(bytes32,bytes memory,address)": "infinite"
			}
		},
		"methodIdentifiers": {
			"admin()": "f851a440",
			"confirmTransaction(uint256,bytes)": "c4a2e641",
			"createOrder(string,string,string,uint256,bytes)": "4732c183",
			"getLedgerEntry(uint256)": "43ec5665",
			"getLedgerHistory(uint256,uint256)": "5e3e2f35",
			"getOrder(string)": "712ca0f8",
			"getProduct(string)": "68111cce",
			"getTotalEntries()": "12d491c9",
			"getUserByWallet(address)": "3b0328be",
			"isUserRegistered(address)": "163f7522",
			"ledger(uint256)": "10a7fd7b",
			"ledgerCounter()": "26415d30",
			"orders(string)": "1a948947",
			"products(string)": "0186a423",
			"registerProduct(string,string,string,uint256,bytes)": "9a1b4098",
			"registerUser(string,string,uint8,string,string,bytes)": "5632ba98",
			"updateOrderStatus(string,uint8,bytes)": "b0f513b8",
			"users(string)": "689e1c03",
			"verifyDataIntegrity(uint256,bytes32)": "89e0465b",
			"walletToUserId(address)": "4bb54384"
		}
	},
	"abi": [
		{
			"inputs": [],
			"stateMutability": "nonpayable",
			"type": "constructor"
		},
		{
			"anonymous": false,
			"inputs": [
				{
					"indexed": true,
					"internalType": "uint256",
					"name": "entryId",
					"type": "uint256"
				},
				{
					"indexed": true,
					"internalType": "address",
					"name": "signer",
					"type": "address"
				},
				{
					"indexed": false,
					"internalType": "bytes32",
					"name": "dataHash",
					"type": "bytes32"
				},
				{
					"indexed": false,
					"internalType": "enum FlargoLedger.TransactionType",
					"name": "txType",
					"type": "uint8"
				}
			],
			"name": "LedgerEntryCreated",
			"type": "event"
		},
		{
			"anonymous": false,
			"inputs": [
				{
					"indexed": true,
					"internalType": "string",
					"name": "orderId",
					"type": "string"
				},
				{
					"indexed": false,
					"internalType": "string",
					"name": "buyerId",
					"type": "string"
				},
				{
					"indexed": false,
					"internalType": "string",
					"name": "sellerId",
					"type": "string"
				}
			],
			"name": "OrderCreated",
			"type": "event"
		},
		{
			"anonymous": false,
			"inputs": [
				{
					"indexed": true,
					"internalType": "string",
					"name": "productId",
					"type": "string"
				},
				{
					"indexed": false,
					"internalType": "string",
					"name": "farmerId",
					"type": "string"
				}
			],
			"name": "ProductRegistered",
			"type": "event"
		},
		{
			"anonymous": false,
			"inputs": [
				{
					"indexed": true,
					"internalType": "uint256",
					"name": "entryId",
					"type": "uint256"
				},
				{
					"indexed": true,
					"internalType": "address",
					"name": "confirmer",
					"type": "address"
				}
			],
			"name": "TransactionConfirmed",
			"type": "event"
		},
		{
			"anonymous": false,
			"inputs": [
				{
					"indexed": true,
					"internalType": "string",
					"name": "userId",
					"type": "string"
				},
				{
					"indexed": true,
					"internalType": "address",
					"name": "wallet",
					"type": "address"
				}
			],
			"name": "UserRegistered",
			"type": "event"
		},
		{
			"inputs": [],
			"name": "admin",
			"outputs": [
				{
					"internalType": "address",
					"name": "",
					"type": "address"
				}
			],
			"stateMutability": "view",
			"type": "function"
		},
		{
			"inputs": [
				{
					"internalType": "uint256",
					"name": "_entryId",
					"type": "uint256"
				},
				{
					"internalType": "bytes",
					"name": "_signature",
					"type": "bytes"
				}
			],
			"name": "confirmTransaction",
			"outputs": [],
			"stateMutability": "nonpayable",
			"type": "function"
		},
		{
			"inputs": [
				{
					"internalType": "string",
					"name": "_orderId",
					"type": "string"
				},
				{
					"internalType": "string",
					"name": "_sellerId",
					"type": "string"
				},
				{
					"internalType": "string",
					"name": "_productId",
					"type": "string"
				},
				{
					"internalType": "uint256",
					"name": "_quantity",
					"type": "uint256"
				},
				{
					"internalType": "bytes",
					"name": "_signature",
					"type": "bytes"
				}
			],
			"name": "createOrder",
			"outputs": [],
			"stateMutability": "nonpayable",
			"type": "function"
		},
		{
			"inputs": [
				{
					"internalType": "uint256",
					"name": "_entryId",
					"type": "uint256"
				}
			],
			"name": "getLedgerEntry",
			"outputs": [
				{
					"components": [
						{
							"internalType": "uint256",
							"name": "id",
							"type": "uint256"
						},
						{
							"internalType": "address",
							"name": "signer",
							"type": "address"
						},
						{
							"internalType": "bytes32",
							"name": "dataHash",
							"type": "bytes32"
						},
						{
							"internalType": "enum FlargoLedger.TransactionType",
							"name": "txType",
							"type": "uint8"
						},
						{
							"internalType": "enum FlargoLedger.Status",
							"name": "status",
							"type": "uint8"
						},
						{
							"internalType": "uint256",
							"name": "timestamp",
							"type": "uint256"
						},
						{
							"internalType": "string",
							"name": "metadata",
							"type": "string"
						},
						{
							"internalType": "bool",
							"name": "exists",
							"type": "bool"
						}
					],
					"internalType": "struct FlargoLedger.LedgerEntry",
					"name": "",
					"type": "tuple"
				}
			],
			"stateMutability": "view",
			"type": "function"
		},
		{
			"inputs": [
				{
					"internalType": "uint256",
					"name": "_fromId",
					"type": "uint256"
				},
				{
					"internalType": "uint256",
					"name": "_toId",
					"type": "uint256"
				}
			],
			"name": "getLedgerHistory",
			"outputs": [
				{
					"components": [
						{
							"internalType": "uint256",
							"name": "id",
							"type": "uint256"
						},
						{
							"internalType": "address",
							"name": "signer",
							"type": "address"
						},
						{
							"internalType": "bytes32",
							"name": "dataHash",
							"type": "bytes32"
						},
						{
							"internalType": "enum FlargoLedger.TransactionType",
							"name": "txType",
							"type": "uint8"
						},
						{
							"internalType": "enum FlargoLedger.Status",
							"name": "status",
							"type": "uint8"
						},
						{
							"internalType": "uint256",
							"name": "timestamp",
							"type": "uint256"
						},
						{
							"internalType": "string",
							"name": "metadata",
							"type": "string"
						},
						{
							"internalType": "bool",
							"name": "exists",
							"type": "bool"
						}
					],
					"internalType": "struct FlargoLedger.LedgerEntry[]",
					"name": "",
					"type": "tuple[]"
				}
			],
			"stateMutability": "view",
			"type": "function"
		},
		{
			"inputs": [
				{
					"internalType": "string",
					"name": "_orderId",
					"type": "string"
				}
			],
			"name": "getOrder",
			"outputs": [
				{
					"components": [
						{
							"internalType": "string",
							"name": "id",
							"type": "string"
						},
						{
							"internalType": "string",
							"name": "buyerId",
							"type": "string"
						},
						{
							"internalType": "string",
							"name": "sellerId",
							"type": "string"
						},
						{
							"internalType": "string",
							"name": "productId",
							"type": "string"
						},
						{
							"internalType": "uint256",
							"name": "quantity",
							"type": "uint256"
						},
						{
							"internalType": "uint256",
							"name": "totalAmount",
							"type": "uint256"
						},
						{
							"internalType": "enum FlargoLedger.Status",
							"name": "status",
							"type": "uint8"
						},
						{
							"internalType": "uint256",
							"name": "timestamp",
							"type": "uint256"
						},
						{
							"internalType": "bool",
							"name": "active",
							"type": "bool"
						}
					],
					"internalType": "struct FlargoLedger.Order",
					"name": "",
					"type": "tuple"
				}
			],
			"stateMutability": "view",
			"type": "function"
		},
		{
			"inputs": [
				{
					"internalType": "string",
					"name": "_productId",
					"type": "string"
				}
			],
			"name": "getProduct",
			"outputs": [
				{
					"components": [
						{
							"internalType": "string",
							"name": "id",
							"type": "string"
						},
						{
							"internalType": "string",
							"name": "name",
							"type": "string"
						},
						{
							"internalType": "string",
							"name": "category",
							"type": "string"
						},
						{
							"internalType": "string",
							"name": "farmerId",
							"type": "string"
						},
						{
							"internalType": "uint256",
							"name": "pricePerUnit",
							"type": "uint256"
						},
						{
							"internalType": "uint256",
							"name": "timestamp",
							"type": "uint256"
						},
						{
							"internalType": "bool",
							"name": "active",
							"type": "bool"
						}
					],
					"internalType": "struct FlargoLedger.Product",
					"name": "",
					"type": "tuple"
				}
			],
			"stateMutability": "view",
			"type": "function"
		},
		{
			"inputs": [],
			"name": "getTotalEntries",
			"outputs": [
				{
					"internalType": "uint256",
					"name": "",
					"type": "uint256"
				}
			],
			"stateMutability": "view",
			"type": "function"
		},
		{
			"inputs": [
				{
					"internalType": "address",
					"name": "_wallet",
					"type": "address"
				}
			],
			"name": "getUserByWallet",
			"outputs": [
				{
					"components": [
						{
							"internalType": "string",
							"name": "id",
							"type": "string"
						},
						{
							"internalType": "address",
							"name": "wallet",
							"type": "address"
						},
						{
							"internalType": "string",
							"name": "name",
							"type": "string"
						},
						{
							"internalType": "enum FlargoLedger.Role",
							"name": "role",
							"type": "uint8"
						},
						{
							"internalType": "string",
							"name": "email",
							"type": "string"
						},
						{
							"internalType": "string",
							"name": "contactNumber",
							"type": "string"
						},
						{
							"internalType": "uint256",
							"name": "timestamp",
							"type": "uint256"
						},
						{
							"internalType": "bool",
							"name": "active",
							"type": "bool"
						}
					],
					"internalType": "struct FlargoLedger.User",
					"name": "",
					"type": "tuple"
				}
			],
			"stateMutability": "view",
			"type": "function"
		},
		{
			"inputs": [
				{
					"internalType": "address",
					"name": "_wallet",
					"type": "address"
				}
			],
			"name": "isUserRegistered",
			"outputs": [
				{
					"internalType": "bool",
					"name": "",
					"type": "bool"
				}
			],
			"stateMutability": "view",
			"type": "function"
		},
		{
			"inputs": [
				{
					"internalType": "uint256",
					"name": "",
					"type": "uint256"
				}
			],
			"name": "ledger",
			"outputs": [
				{
					"internalType": "uint256",
					"name": "id",
					"type": "uint256"
				},
				{
					"internalType": "address",
					"name": "signer",
					"type": "address"
				},
				{
					"internalType": "bytes32",
					"name": "dataHash",
					"type": "bytes32"
				},
				{
					"internalType": "enum FlargoLedger.TransactionType",
					"name": "txType",
					"type": "uint8"
				},
				{
					"internalType": "enum FlargoLedger.Status",
					"name": "status",
					"type": "uint8"
				},
				{
					"internalType": "uint256",
					"name": "timestamp",
					"type": "uint256"
				},
				{
					"internalType": "string",
					"name": "metadata",
					"type": "string"
				},
				{
					"internalType": "bool",
					"name": "exists",
					"type": "bool"
				}
			],
			"stateMutability": "view",
			"type": "function"
		},
		{
			"inputs": [],
			"name": "ledgerCounter",
			"outputs": [
				{
					"internalType": "uint256",
					"name": "",
					"type": "uint256"
				}
			],
			"stateMutability": "view",
			"type": "function"
		},
		{
			"inputs": [
				{
					"internalType": "string",
					"name": "",
					"type": "string"
				}
			],
			"name": "orders",
			"outputs": [
				{
					"internalType": "string",
					"name": "id",
					"type": "string"
				},
				{
					"internalType": "string",
					"name": "buyerId",
					"type": "string"
				},
				{
					"internalType": "string",
					"name": "sellerId",
					"type": "string"
				},
				{
					"internalType": "string",
					"name": "productId",
					"type": "string"
				},
				{
					"internalType": "uint256",
					"name": "quantity",
					"type": "uint256"
				},
				{
					"internalType": "uint256",
					"name": "totalAmount",
					"type": "uint256"
				},
				{
					"internalType": "enum FlargoLedger.Status",
					"name": "status",
					"type": "uint8"
				},
				{
					"internalType": "uint256",
					"name": "timestamp",
					"type": "uint256"
				},
				{
					"internalType": "bool",
					"name": "active",
					"type": "bool"
				}
			],
			"stateMutability": "view",
			"type": "function"
		},
		{
			"inputs": [
				{
					"internalType": "string",
					"name": "",
					"type": "string"
				}
			],
			"name": "products",
			"outputs": [
				{
					"internalType": "string",
					"name": "id",
					"type": "string"
				},
				{
					"internalType": "string",
					"name": "name",
					"type": "string"
				},
				{
					"internalType": "string",
					"name": "category",
					"type": "string"
				},
				{
					"internalType": "string",
					"name": "farmerId",
					"type": "string"
				},
				{
					"internalType": "uint256",
					"name": "pricePerUnit",
					"type": "uint256"
				},
				{
					"internalType": "uint256",
					"name": "timestamp",
					"type": "uint256"
				},
				{
					"internalType": "bool",
					"name": "active",
					"type": "bool"
				}
			],
			"stateMutability": "view",
			"type": "function"
		},
		{
			"inputs": [
				{
					"internalType": "string",
					"name": "_productId",
					"type": "string"
				},
				{
					"internalType": "string",
					"name": "_name",
					"type": "string"
				},
				{
					"internalType": "string",
					"name": "_category",
					"type": "string"
				},
				{
					"internalType": "uint256",
					"name": "_pricePerUnit",
					"type": "uint256"
				},
				{
					"internalType": "bytes",
					"name": "_signature",
					"type": "bytes"
				}
			],
			"name": "registerProduct",
			"outputs": [],
			"stateMutability": "nonpayable",
			"type": "function"
		},
		{
			"inputs": [
				{
					"internalType": "string",
					"name": "_userId",
					"type": "string"
				},
				{
					"internalType": "string",
					"name": "_name",
					"type": "string"
				},
				{
					"internalType": "enum FlargoLedger.Role",
					"name": "_role",
					"type": "uint8"
				},
				{
					"internalType": "string",
					"name": "_email",
					"type": "string"
				},
				{
					"internalType": "string",
					"name": "_contactNumber",
					"type": "string"
				},
				{
					"internalType": "bytes",
					"name": "_signature",
					"type": "bytes"
				}
			],
			"name": "registerUser",
			"outputs": [],
			"stateMutability": "nonpayable",
			"type": "function"
		},
		{
			"inputs": [
				{
					"internalType": "string",
					"name": "_orderId",
					"type": "string"
				},
				{
					"internalType": "enum FlargoLedger.Status",
					"name": "_status",
					"type": "uint8"
				},
				{
					"internalType": "bytes",
					"name": "_signature",
					"type": "bytes"
				}
			],
			"name": "updateOrderStatus",
			"outputs": [],
			"stateMutability": "nonpayable",
			"type": "function"
		},
		{
			"inputs": [
				{
					"internalType": "string",
					"name": "",
					"type": "string"
				}
			],
			"name": "users",
			"outputs": [
				{
					"internalType": "string",
					"name": "id",
					"type": "string"
				},
				{
					"internalType": "address",
					"name": "wallet",
					"type": "address"
				},
				{
					"internalType": "string",
					"name": "name",
					"type": "string"
				},
				{
					"internalType": "enum FlargoLedger.Role",
					"name": "role",
					"type": "uint8"
				},
				{
					"internalType": "string",
					"name": "email",
					"type": "string"
				},
				{
					"internalType": "string",
					"name": "contactNumber",
					"type": "string"
				},
				{
					"internalType": "uint256",
					"name": "timestamp",
					"type": "uint256"
				},
				{
					"internalType": "bool",
					"name": "active",
					"type": "bool"
				}
			],
			"stateMutability": "view",
			"type": "function"
		},
		{
			"inputs": [
				{
					"internalType": "uint256",
					"name": "_entryId",
					"type": "uint256"
				},
				{
					"internalType": "bytes32",
					"name": "_expectedHash",
					"type": "bytes32"
				}
			],
			"name": "verifyDataIntegrity",
			"outputs": [
				{
					"internalType": "bool",
					"name": "",
					"type": "bool"
				}
			],
			"stateMutability": "view",
			"type": "function"
		},
		{
			"inputs": [
				{
					"internalType": "address",
					"name": "",
					"type": "address"
				}
			],
			"name": "walletToUserId",
			"outputs": [
				{
					"internalType": "string",
					"name": "",
					"type": "string"
				}
			],
			"stateMutability": "view",
			"type": "function"
		}
	]
}